:100000000C942A000C9447000C9447000C94470071
:100010000C9447000C9447000C9447000C94AE14C9
:100020000C9447000C9447000C9447000C94470034
:100030000C9447000C9447000C9447000C94470024
:100040000C9447000C9447000C9447000C94470014
:100050000C94470011241FBECFE5D8E0DEBFCDBF12
:1000600010E0A0E6B0E0ECE6F1E402C005900D92ED
:10007000A037B107D9F713E0A0E7B0E001C01D92A7
:10008000A635B107E1F70E94030D0C94B4200C943F
:100090000000EF92FF920F931F937B018C0120E0F1
:1000A00030E040E05FE40E94490388238CF0C801FF
:1000B000B70120E030E040E05FE40E94C1010E940F
:1000C000A9039B01AC01205030404040504806C07D
:1000D000C801B7010E94A9039B01AC01B901CA0183
:1000E0001F910F91FF90EF900895A0E0B0E0EBE733
:1000F000F0E00C945E20DC012B01FA019C9192301F
:1001000008F439C1EB018881823008F433C194309E
:1001100069F4843009F02FC111969C91119789815F
:10012000981709F428C1A5E6B0E025C1843009F488
:1001300021C18230A9F4923009F01DC19A01AD01AC
:1001400088E0EA010990AE01E90109929E0181501F
:10015000C1F7E201898111969C918923818308C1AD
:10016000923009F407C112962D903C901397EB0141
:100170008A819B811496AD90BD90CD90DC901797AD
:10018000EC80FD800E811F819101281B390BB90184
:1001900037FF04C066277727621B730B6032710537
:1001A0000CF061C0121613066CF537014801062EDB
:1001B00004C096948794779467940A94D2F721E0C8
:1001C00030E040E050E004C0220F331F441F551FB1
:1001D0006A95D2F721503040404050402E213F21B7
:1001E00040235123211531054105510521F021E01E
:1001F00030E040E050E079018A01E628F72808293C
:1002000019293CC0232BD1F1260E371E350146019A
:10021000062E04C096948794779467940A94D2F734
:1002200021E030E040E050E004C0220F331F441FC3
:10023000551F6A95D2F721503040404050402A2146
:100240003B214C215D21211531054105510521F04E
:1002500021E030E040E050E059016A01A628B728CB
:10026000C828D9280BC0821593052CF01C01AA249C
:10027000BB24650103C0EE24FF24870111969C91E5
:10028000D20111968C91981709F445C0992339F041
:10029000A80197012A193B094C095D0906C0A6016E
:1002A00095012E193F09400B510B57FD08C01182D3
:1002B0003382228224833583468357831DC081E0A5
:1002C00081833382228288279927DC01821B930B4A
:1002D000A40BB50B84839583A683B7830DC0220F2F
:1002E000331F441F551F24833583468357838281E0
:1002F000938101979383828324813581468157813D
:10030000DA01C9010197A109B1098F5F9F4FAF4F72
:10031000BF4328F30BC0918333822282EA0CFB1C7B
:100320000C1D1D1DE482F5820683178383E0808304
:10033000248135814681578157FF1AC0C901AA27F8
:1003400097FDA095BA2F81709070A070B0705695EF
:10035000479537952795822B932BA42BB52B848318
:100360009583A683B7838281938101969383828349
:10037000DF0101C0D201CD01CDB7DEB7E2E10C94BF
:100380007A20A0E2B0E0E7ECF1E00C946A20698307
:100390007A838B839C832D833E834F835887E9E048
:1003A000EE2EF12CEC0EFD1ECE010196B7010E943F
:1003B000D2048E010F5E1F4FCE010596B8010E9438
:1003C000D2048A8991E089278A8BC701B801AE01DE
:1003D000475E5F4F0E9475000E94FD03A096E6E015
:1003E0000C948620A0E2B0E0E8EFF1E00C946A20E3
:1003F00069837A838B839C832D833E834F835887C5
:10040000F9E0EF2EF12CEC0EFD1ECE010196B701A6
:100410000E94D2048E010F5E1F4FCE010596B801D7
:100420000E94D204C701B801AE01475E5F4F0E942F
:1004300075000E94FD03A096E6E00C948620A0E2E1
:10044000B0E0E5E2F2E00C945E2069837A838B836E
:100450009C832D833E834F835887CE010196BE0136
:10046000675F7F4F0E94D204CE010596BE016F5E8A
:100470007F4F0E94D2049985923088F0898982301A
:10048000C8F0943019F4823051F404C0843029F457
:10049000923081F485E690E0C6C0923049F420E0C5
:1004A0009A858A89981321E02A87CE010996BBC0D4
:1004B000823049F420E09A858A89981321E02A8BBA
:1004C000CE014196B0C02D843E844F8458886D88FB
:1004D0007E888F88988CEE24FF248701AA24BB2471
:1004E000650140E050E060E070E0E0E0F0E0C10174
:1004F00081709070892BE9F0E60CF71C081D191D1E
:100500009A01AB012A0D3B1D4C1D5D1D80E090E062
:10051000A0E0B0E0E614F7040805190520F481E036
:1005200090E0A0E0B0E0BA01A901480F591F6A1F8E
:100530007B1FAA0CBB1CCC1CDD1C97FE08C081E0F5
:1005400090E0A0E0B0E0A82AB92ACA2ADB2A3196B6
:10055000E032F10549F0660C771C881C991C569412
:10056000479437942794C3CFFA85EA892B893C892D
:100570008B859C85280F391F2E5F3F4F17C0CA01FE
:1005800081709070892B61F016950795F794E79428
:1005900080E090E0A0E0B0E8E82AF92A0A2B1B2BC3
:1005A00076956795579547952F5F3F4F77FDE7CF36
:1005B0000CC0440F551F661F771F17FD4160EE0CDE
:1005C000FF1C001F111F21503040403090E05907A0
:1005D00090E0690790E4790760F32B8F3C8FDB0193
:1005E000CA018F779070A070B07080349105A1051A
:1005F000B10561F447FD0AC0E114F10401051105DC
:1006000029F0405C5F4F6F4F7F4F40781A8EFE1786
:1006100011F081E08A8F4D8F5E8F6F8F78A383E01A
:10062000898FCE0149960E94FD03A096E2E10C94C9
:100630007A20A8E1B0E0EFE1F3E00C946A2069834E
:100640007A838B839C832D833E834F83588789E0F5
:10065000E82EF12CEC0EFD1ECE010196B7010E9492
:10066000D2048E010F5E1F4FCE010596B8010E9485
:10067000D2048985823040F08989823028F0C70110
:10068000B8010E944A0501C08FEF6896E6E00C941D
:100690008620A8E1B0E0EFE4F3E00C946A206983DF
:1006A0007A838B839C832D833E834F83588789E095
:1006B000E82EF12CEC0EFD1ECE010196B7010E9432
:1006C000D2048E010F5E1F4FCE010596B8010E9425
:1006D000D2048985823040F08989823028F0C701B0
:1006E000B8010E944A0501C08FEF6896E6E00C94BD
:1006F0008620A8E1B0E0EFE7F3E00C946A2069837C
:100700007A838B839C832D833E834F83588789E034
:10071000E82EF12CEC0EFD1ECE010196B7010E94D1
:10072000D2048E010F5E1F4FCE010596B8010E94C4
:10073000D2048985823040F08989823028F0C7014F
:10074000B8010E944A0501C081E06896E6E00C9479
:100750008620ACE0B0E0EFEAF3E00C946E20698311
:100760007A838B839C83CE010196BE016B5F7F4FA2
:100770000E94D2048D81823061F1823050F1843048
:1007800021F48E81882351F12EC02F81388537FDC9
:1007900020C06E812F3131051CF06623F9F023C093
:1007A0008EE190E0821B930B29853A854B855C8511
:1007B00004C056954795379527958A95D2F76623B5
:1007C000B1F050954095309521953F4F4F4F5F4F79
:1007D0000EC020E030E040E050E009C02FEF3FEFD6
:1007E0004FEF5FE704C020E030E040E050E8B9019F
:1007F000CA012C96E2E00C948A20DF92EF92FF92DD
:100800000F931F93FC01E480F58006811781D1804E
:100810008081823048F480E090E0A0E1B0E0E82AF6
:10082000F92A0A2B1B2BA5C0843009F49FC0823003
:1008300021F4EE24FF24870105C0E114F104010531
:10084000110519F4E0E0F0E096C0628173819FEF3A
:10085000623879070CF05BC022E83FEF261B370BAC
:100860002A3131052CF020E030E040E050E02AC091
:10087000B801A701022E04C0769567955795479554
:100880000A94D2F781E090E0A0E0B0E004C0880FC5
:10089000991FAA1FBB1F2A95D2F70197A109B10979
:1008A0008E219F21A023B1230097A105B10521F03E
:1008B00081E090E0A0E0B0E09A01AB01282B392B59
:1008C0004A2B5B2BDA01C9018F779070A070B07052
:1008D00080349105A105B10539F427FF09C0205CDA
:1008E0003F4F4F4F5F4F04C0215C3F4F4F4F5F4F13
:1008F000E0E0F0E02030A0E03A07A0E04A07A0E402
:100900005A0710F0E1E0F0E079018A0127C0603871
:10091000710564F5FB01E158FF4FD801C7018F77DE
:100920009070A070B07080349105A105B10539F4C4
:10093000E7FE0DC080E490E0A0E0B0E004C08FE3EB
:1009400090E0A0E0B0E0E80EF91E0A1F1B1F17FFA1
:1009500005C016950795F794E794319687E01695AC
:100960000795F794E7948A95D1F705C0EE24FF2404
:100970008701EFEFF0E06E2F679566276795902F60
:100980009F77D794DD24D7948E2F8695492F462BB9
:10099000582F5D29B701CA011F910F91FF90EF9069
:1009A000DF900895FC01DB01408151812281622F9B
:1009B0006F7770E0221F2227221F9381892F880FD3
:1009C000822B282F30E0991F9927991F11969C930D
:1009D000119721153105A9F54115510561057105DD
:1009E00011F482E037C082E89FEF13969C938E93B8
:1009F00012979A01AB0167E0220F331F441F551F66
:100A00006A95D1F783E08C930DC0220F331F441FEA
:100A1000551F12968D919C911397019713969C9355
:100A20008E931297203080E0380780E0480780E4FA
:100A3000580758F314962D933D934D935C93179755
:100A400008952F3F310579F4411551056105710570
:100A500019F484E08C93089564FF03C081E08C93C3
:100A600012C01C9210C02F57304013963C932E9307
:100A7000129783E08C9387E0440F551F661F771F02
:100A80008A95D1F7706414964D935D936D937C9322
:100A9000179708951F93DC01FB019C91923008F495
:100AA00047C08081823008F443C0943051F41196DD
:100AB0001C91843099F58181682F70E0611B710968
:100AC0003FC0843021F0923031F48230B9F181811D
:100AD000882389F12DC011961C9111978230F1F075
:100AE00081811817D9F412962D913C911397828128
:100AF00093818217930794F028173907BCF0149656
:100B00008D919D910D90BC91A02D248135814681C0
:100B10005781281739074A075B0718F4112341F05A
:100B20000AC082179307A407B50740F4112319F0F0
:100B300061E070E005C06FEF7FEF02C060E070E041
:100B4000CB011F910895DF93CF9300D0CDB7DEB7CF
:100B500089836A838981803208F0CDC08A818823A5
:100B600021F08A81813009F0C6C08981883070F512
:100B7000AAE3B0E0EAE3F0E08081482F8981882F82
:100B800090E09C012770307081E090E002C0880FF7
:100B9000991F2A95E2F7809584238C93AAE3B0E00D
:100BA000EAE3F0E08081482F8A81282F30E08981B4
:100BB000882F90E087709070B90102C0660F771F90
:100BC0008A95E2F7CB01842B8C9395C0898188505C
:100BD000883070F5A7E3B0E0E7E3F0E08081482FCC
:100BE0008981882F90E09C012770307081E090E02F
:100BF00002C0880F991F2A95E2F7809584238C9371
:100C0000A7E3B0E0E7E3F0E08081482F8A81282F56
:100C100030E08981882F90E087709070B90102C020
:100C2000660F771F8A95E2F7CB01842B8C9363C004
:100C300089818051883070F5A4E3B0E0E4E3F0E00E
:100C40008081482F8981882F90E09C012770307027
:100C500081E090E002C0880F991F2A95E2F7809505
:100C600084238C93A4E3B0E0E4E3F0E08081482F98
:100C70008A81282F30E08981882F90E087709070DA
:100C8000B90102C0660F771F8A95E2F7CB01842B6A
:100C90008C9331C089818851883068F5A1E3B0E038
:100CA000E1E3F0E08081482F8981882F90E09C016A
:100CB0002770307081E090E002C0880F991F2A955C
:100CC000E2F7809584238C93A1E3B0E0E1E3F0E0C8
:100CD0008081482F8A81282F30E08981882F90E0F9
:100CE00087709070B90102C0660F771F8A95E2F78E
:100CF000CB01842B8C930F900F90CF91DF910895AF
:100D0000DF93CF9300D0CDB7DEB789836A83898123
:100D1000882329F4EAE3F0E08A81808317C089817F
:100D2000813029F4E7E3F0E08A8180830FC0898174
:100D3000823029F4E4E3F0E08A81808307C089816E
:100D4000833021F4E1E3F0E08A8180830F900F90FB
:100D5000CF91DF910895DF93CF9300D0CDB7DEB769
:100D600089836A838981803208F0CDC08A81882393
:100D700021F08A81813009F0C6C08981883070F500
:100D8000ABE3B0E0EBE3F0E08081482F8981882F6E
:100D900090E09C012770307081E090E002C0880FE5
:100DA000991F2A95E2F7809584238C93ABE3B0E0FA
:100DB000EBE3F0E08081482F8A81282F30E08981A1
:100DC000882F90E087709070B90102C0660F771F7E
:100DD0008A95E2F7CB01842B8C9395C0898188504A
:100DE000883070F5A8E3B0E0E8E3F0E08081482FB8
:100DF0008981882F90E09C012770307081E090E01D
:100E000002C0880F991F2A95E2F7809584238C935E
:100E1000A8E3B0E0E8E3F0E08081482F8A81282F42
:100E200030E08981882F90E087709070B90102C00E
:100E3000660F771F8A95E2F7CB01842B8C9363C0F2
:100E400089818051883070F5A5E3B0E0E5E3F0E0FA
:100E50008081482F8981882F90E09C012770307015
:100E600081E090E002C0880F991F2A95E2F78095F3
:100E700084238C93A5E3B0E0E5E3F0E08081482F84
:100E80008A81282F30E08981882F90E087709070C8
:100E9000B90102C0660F771F8A95E2F7CB01842B58
:100EA0008C9331C089818851883068F5A2E3B0E025
:100EB000E2E3F0E08081482F8981882F90E09C0157
:100EC0002770307081E090E002C0880F991F2A954A
:100ED000E2F7809584238C93A2E3B0E0E2E3F0E0B4
:100EE0008081482F8A81282F30E08981882F90E0E7
:100EF00087709070B90102C0660F771F8A95E2F77C
:100F0000CB01842B8C930F900F90CF91DF9108959C
:100F1000DF93CF9300D0CDB7DEB789836A83898111
:100F2000882329F4EBE3F0E08A81808317C089816C
:100F3000813029F4E8E3F0E08A8180830FC0898161
:100F4000823029F4E5E3F0E08A81808307C089815B
:100F5000833021F4E2E3F0E08A8180830F900F90E8
:100F6000CF91DF910895DF93CF9300D0CDB7DEB757
:100F70008A838A81803208F09AC08A81883018F585
:100F8000E9E3F0E08081482F50E08A81882F90E0EB
:100F90009C012770307081E090E002C0880F991F9B
:100FA0002A95E2F79A01282339238A81882F90E035
:100FB00087709070A90102C0559547958A95E2F710
:100FC000CA01898374C08A818850883018F5E6E3A5
:100FD000F0E08081482F50E08A81882F90E09C01CA
:100FE0002770307081E090E002C0880F991F2A9529
:100FF000E2F79A01282339238A81882F90E08770AD
:101000009070A90102C0559547958A95E2F7CA01EB
:1010100089834DC08A818051883018F5E3E3F0E080
:101020008081482F50E08A81882F90E09C012770B2
:10103000307081E090E002C0880F991F2A95E2F796
:101040009A01282339238A81882F90E08770907035
:10105000A90102C0559547958A95E2F7CA0189838F
:1010600026C08A818851883010F5E0E3F0E0808165
:10107000482F50E08A81882F90E09C0127703070C3
:1010800081E090E002C0880F991F2A95E2F79A014B
:10109000282339238A81882F90E087709070A901D6
:1010A00002C0559547958A95E2F7CA0189838981DF
:1010B0000F900F90CF91DF910895DF93CF9300D0E1
:1010C000CDB7DEB789838981882329F4E9E3F0E08D
:1010D00080818A831AC08981813029F4E6E3F0E0B7
:1010E00080818A8312C08981823029F4E3E3F0E0B1
:1010F00080818A830AC08981833029F4E0E3F0E0AB
:1011000080818A8302C08FEF8A838A810F900F903B
:10111000CF91DF910895DF93CF93CDB7DEB7E897F6
:101120000FB6F894DEBF0FBECDBF80E061E00E9435
:10113000A30581E061E00E94A30582E061E00E94D6
:10114000A30582E06FEF0E94800680E090E0A8E4B3
:10115000B2E48DAB9EABAFABB8AF6DA97EA98FA942
:1011600098AD20E030E84BE355E40E941F02DC011B
:10117000CB0189AB9AABABABBCAB69A97AA98BA904
:101180009CA920E030E040E85FE30E9479038823D7
:101190002CF481E090E098AB8FA73FC069A97AA9B1
:1011A0008BA99CA920E03FEF4FE757E40E94190369
:1011B00018164CF56DA97EA98FA998AD20E030E0F6
:1011C00040E251E40E941F02DC01CB01BC01CD01D1
:1011D0000E944900DC01CB0198AB8FA70FC08CE2C5
:1011E00091E09EA78DA78DA59EA50197F1F79EA7DB
:1011F0008DA78FA598A9019798AB8FA78FA598A9C0
:10120000009769F714C069A97AA98BA99CA90E94C3
:101210004900DC01CB0198AB8FA78FA598A99CA7AB
:101220008BA78BA59CA50197F1F79CA78BA788E3BB
:101230000E947F0A80E090E0A0E8BFE38FA398A718
:10124000A9A7BAA76FA178A589A59AA520E030E83B
:101250004BE355E40E941F02DC01CB018BA39CA34E
:10126000ADA3BEA36BA17CA18DA19EA120E030E027
:1012700040E85FE30E94790388232CF481E090E04A
:101280009AA389A33FC06BA17CA18DA19EA120E060
:101290003FEF4FE757E40E94190318164CF56FA172
:1012A00078A589A59AA520E030E040E251E40E94AB
:1012B0001F02DC01CB01BC01CD010E944900DC0111
:1012C000CB019AA389A30FC08CE291E098A38F8FE2
:1012D0008F8D98A10197F1F798A38F8F89A19AA17B
:1012E00001979AA389A389A19AA1009769F714C0CD
:1012F0006BA17CA18DA19EA10E944900DC01CB01C4
:101300009AA389A389A19AA19E8F8D8F8D8D9E8D81
:101310000197F1F79E8F8D8F8EE00E947F0A80E00B
:1013200090E0A0E8BFE3898F9A8FAB8FBC8F698D67
:101330007A8D8B8D9C8D20E030E84BE355E40E9444
:101340001F02DC01CB018D8B9E8BAF8BB88F6D891B
:101350007E898F89988D20E030E040E85FE30E942D
:10136000790388232CF481E090E09C8B8B8B3FC029
:101370006D897E898F89988D20E03FEF4FE757E494
:101380000E94190318164CF5698D7A8D8B8D9C8DF2
:1013900020E030E040E251E40E941F02DC01CB017A
:1013A000BC01CD010E944900DC01CB019C8B8B8BE1
:1013B0000FC08CE291E09A8B898B89899A89019779
:1013C000F1F79A8B898B8B899C8901979C8B8B8BEE
:1013D0008B899C89009769F714C06D897E898F89F4
:1013E000988D0E944900DC01CB019C8B8B8B8B89F3
:1013F0009C89988B8F878F8598890197F1F7988BB7
:101400008F8781E00E947F0A80E090E0A0E0B0E456
:101410008B879C87AD87BE876B857C858D859E85F8
:1014200020E030E84BE355E40E941F02DC01CB01D1
:101430008F839887A987BA876F81788589859A85F0
:1014400020E030E040E85FE30E94790388232CF439
:1014500081E090E09E838D833FC06F817885898590
:101460009A8520E03FEF4FE757E40E9419031816D2
:101470004CF56B857C858D859E8520E030E040E2D3
:1014800051E40E941F02DC01CB01BC01CD010E948E
:101490004900DC01CB019E838D830FC08CE291E07B
:1014A0009C838B838B819C810197F1F79C838B8339
:1014B0008D819E8101979E838D838D819E81009772
:1014C00069F714C06F81788589859A850E944900E3
:1014D000DC01CB019E838D838D819E819A838983DC
:1014E00089819A810197F1F79A838983E8960FB6EB
:1014F000F894DEBF0FBECDBFCF91DF910895DF938B
:10150000CF93CDB7DEB72F970FB6F894DEBF0FBEDF
:10151000CDBF8F8780E060E00E94AB0681E060E095
:101520000E94AB0682E06F850E94880782E061E03E
:101530000E94AB0680E090E0A0E0B0E48B879C873F
:10154000AD87BE876B857C858D859E8520E030E8E4
:101550004BE355E40E941F02DC01CB018F83988787
:10156000A987BA876F81788589859A8520E030E0E0
:1015700040E85FE30E94790388232CF481E090E047
:101580009E838D833FC06F81788589859A8520E011
:101590003FEF4FE757E40E94190318164CF56B858F
:1015A0007C858D859E8520E030E040E251E40E94FC
:1015B0001F02DC01CB01BC01CD010E944900DC010E
:1015C000CB019E838D830FC08CE291E09C838B8343
:1015D0008B819C810197F1F79C838B838D819E8108
:1015E00001979E838D838D819E81009769F714C03A
:1015F0006F81788589859A850E944900DC01CB013D
:101600009E838D838D819E819A83898389819A812E
:101610000197F1F79A83898382E060E00E94AB062C
:101620002F960FB6F894DEBF0FBECDBFCF91DF91DE
:101630000895DF93CF930F92CDB7DEB7898380E013
:1016400061E00E94AB0681E060E00E94AB0682E0B0
:1016500069810E94880782E061E00E94AB0682E017
:1016600090E00E94F61A82E060E00E94AB060F90C4
:10167000CF91DF910895DF93CF9300D0CDB7DEB740
:1016800089836A8380E80E947F0A8981813059F4C6
:101690008A818823A9F08A81813190F48A818158D6
:1016A0000E947F0A0DC08981823051F48A8188238B
:1016B00039F08A81813120F48A8181540E947F0A25
:1016C0000F900F90CF91DF910895DF93CF9300D0CB
:1016D0000F92CDB7DEB789836A834B8389816A8194
:1016E0000E943B0B8B810E94190B0F900F900F9063
:1016F000CF91DF910895DF93CF930F92CDB7DEB7EF
:10170000898389810E94190B0F90CF91DF910895F1
:10171000DF93CF9300D000D00F92CDB7DEB78A838E
:101720006B835D834C838A816B810E943B0B1982A2
:101730000EC08981282F30E08C819D81FC01E20F51
:10174000F31F80810E94190B89818F5F89838981B2
:10175000282F30E08C819D81FC01E20FF31F8081F6
:10176000882339F70F900F900F900F900F90CF9123
:10177000DF910895DF93CF9300D00F92CDB7DEB7FE
:101780009B838A8319820EC08981282F30E08A8149
:101790009B81FC01E20FF31F80810E94190B89815C
:1017A0008F5F89838981282F30E08A819B81FC01AA
:1017B000E20FF31F8081882339F70F900F900F906D
:1017C000CF91DF910895EF92FF920F931F93DF93D4
:1017D000CF93CDB7DEB728970FB6F894DEBF0FBE14
:1017E000CDBF6D837E838F83988781E090E0A0E0FA
:1017F000B0E089839A83AB83BC838D819E81AF8166
:10180000B8850097A105B105D1F580E30E94190BB9
:1018100036C089819A81AB81BC812AE030E040E00A
:1018200050E0BC01CD010E941D207B018C018D8107
:101830009E81AF81B8852AE030E040E050E0BC01F5
:10184000CD010E943C20DC01CB018E0D9F1DA01F0D
:10185000B11F89839A83AB83BC838D819E81AF81C5
:10186000B8852AE030E040E050E0BC01CD010E94A4
:101870003C20DA01C9018D839E83AF83B8878D81B7
:101880009E81AF81B8850097A105B10511F623C0EF
:1018900089819A81AB81BC812AE030E040E050E050
:1018A000BC01CD010E943C20DC01CB01805D0E9487
:1018B000190B89819A81AB81BC812AE030E040E03C
:1018C00050E0BC01CD010E943C20DA01C9018983AE
:1018D0009A83AB83BC8389819A81AB81BC8181303F
:1018E0009105A105B105A1F628960FB6F894DEBFC3
:1018F0000FBECDBFCF91DF911F910F91FF90EF9061
:101900000895DF93CF9300D000D0CDB7DEB79C838E
:101910008B830E94041C9A83898387E50E94190B9C
:10192000CE01019664EF71E00E94821AF6CFDF9338
:10193000CF9300D0CDB7DEB79A838983AAE3B0E016
:10194000EAE3F0E0808181608C93ABE3B0E0EBE30D
:10195000F0E0908181E089278C9384EF91E00E94F0
:10196000F61AF3CFDF93CF9300D0CDB7DEB79A83CB
:101970008983A7E3B0E0E7E3F0E0808181608C93A6
:10198000A8E3B0E0E8E3F0E0908181E089278C9360
:1019900088EE93E00E94F61AF3CFDF93CF9300D046
:1019A000CDB7DEB79A838983A4E3B0E0E4E3F0E047
:1019B000808181608C93A5E3B0E0E5E3F0E0908165
:1019C00081E089278C938CED95E00E94F61AF3CF85
:1019D000DF93CF9300D0CDB7DEB79A838983A1E39D
:1019E000B0E0E1E3F0E0808181608C93A2E3B0E0BD
:1019F000E2E3F0E0908181E089278C9380ED97E02D
:101A00000E94F61AF3CFAF92BF92CF92DF92EF927D
:101A1000FF920F93DF93CF93CDB7DEB787E99CE0BA
:101A200060E070E045E550E020E030E002E0EE24C8
:101A3000FF24CC24DD24AA24BB240E94321982EB8B
:101A40009CE060E070E045E550E020E030E002E03E
:101A5000EE24FF24CC24DD24AA24BB240E943219C6
:101A60008DEC9CE060E070E045E550E020E030E087
:101A700002E0EE24FF24CC24DD24AA24BB240E940F
:101A8000321988EE9CE060E070E045E550E020E02F
:101A900030E002E0EE24FF24CC24DD24AA24BB2481
:101AA0000E9432190E942B1B80E090E0CF91DF91C1
:101AB0000F91FF90EF90DF90CF90BF90AF9008957F
:101AC000DF93CF93CDB7DEB727970FB6F894DEBF7D
:101AD0000FBECDBF9D838C836E834F838AE190E0E0
:101AE0000E9438109A83898389819A81009709F42A
:101AF0006FC08091700090917100009741F48981CE
:101B00009A8190937100809370000E94C70F8E811C
:101B1000823010F081E08E83E981FA81118E108E7F
:101B2000E981FA818E81868BE981FA818F81878BA9
:101B3000E981FA818C819D819183808389819A8159
:101B400002960E94CE1089819A810C960E94CE1036
:101B5000E981FA8189819A8191878087E981FA8177
:101B600089819A81938B828B8E81282F30E083E04C
:101B700090E0821B930BE981FA8195878487E98144
:101B8000FA81968980917200891728F4E981FA8197
:101B9000868980937200E981FA818689282F30E056
:101BA000C901880F991F880F991F880F991F820FED
:101BB000931FAC0147585F4F89819A819C012E5F2A
:101BC0003F4FCA01B9010E94DE1081E08B8302C041
:101BD0008FEF8B838B8127960FB6F894DEBF0FBEF5
:101BE000CDBFCF91DF910895DF93CF9300D000D088
:101BF00000D0CDB7DEB79C838B837E836D8320912D
:101C00007300309174008B819C81820F931F9A83A3
:101C10008983809170009091710002960E949611C4
:101C2000E0917000F091710089819A8193838283A1
:101C3000209173003091740089819A8182179307F3
:101C400070F480919F009091A000209170003091DD
:101C500071002E5F3F4FB9010E942A110DC0809183
:101C60009D0090919E0020917000309171002E5F38
:101C70003F4FB9010E942A118D819E81009761F02A
:101C800080917000909171009C01245F3F4F8D8185
:101C90009E81B9010E942A1126960FB6F894DEBFE4
:101CA0000FBECDBFCF91DF910895DF93CF9300D0CA
:101CB000CDB7DEB73AC0F894E091A600F091A70046
:101CC000868197819A83898389819A810C960E9463
:101CD0009611789489819A8102960E949611E981E1
:101CE000FA81968980917200891728F4E981FA8136
:101CF000868980937200E981FA818689282F30E0F5
:101D0000C901880F991F880F991F880F991F820F8B
:101D1000931FAC0147585F4F89819A819C012E5FC8
:101D20003F4FCA01B9010E94DE108091A1008823B3
:101D300009F0C1CF0F900F90CF91DF910895DF93FD
:101D4000CF9300D000D0CDB7DEB70E94041C209105
:101D5000750030917600821B930B909378008093EE
:101D6000770085C0809173009091740001969093E4
:101D700074008093730080917700909178000197B0
:101D80009093780080937700809173009091740015
:101D9000009709F064C080919D0090919E009A8305
:101DA000898380919F009091A00090939E008093E2
:101DB0009D0089819A819093A00080939F004FC0DD
:101DC000E0919D00F0919E000580F681E02D8681D6
:101DD00097819C838B83EB81FC812281338180916D
:101DE0007300909174008217930708F440C0F89430
:101DF0008B819C8102960E949611EB81FC818489E3
:101E00009589009729F08B819C810C960E949611F0
:101E10007894EB81FC81968980917200891728F46F
:101E2000EB81FC81868980937200EB81FC8186893D
:101E3000282F30E0C901880F991F880F991F880F3C
:101E4000991F820F931FAC0147585F4F8B819C8174
:101E50009C012E5F3F4FCA01B9010E94DE10E09144
:101E60009D00F0919E008081882309F0A9CF809188
:101E7000770090917800009709F074CF80917300FB
:101E80009091740090937600809375000F900F905E
:101E90000F900F90CF91DF910895DF93CF9300D0F3
:101EA000CDB7DEB70E94550E0E949F0E0AC08091EA
:101EB0007200882309F466C080917200815080937B
:101EC000720080917200282F30E0C901880F991F9D
:101ED000880F991F880F991F820F931FFC01E758E5
:101EE000FF4F8081882319F380917200282F30E002
:101EF000C901880F991F880F991F880F991F820F9A
:101F0000931F87589F4F9A838983E981FA810180C3
:101F1000F281E02D82819381E981FA81928381832C
:101F2000E981FA812181328189819A81039628177A
:101F3000390759F4E981FA810180F281E02D82812B
:101F40009381E981FA8192838183E981FA81018019
:101F5000F281E02D868197819093710080937000CB
:101F6000E0917000F091710040815181809170008A
:101F700090917100E0917000F09171002789622FBB
:101F8000FA0109950F900F90CF91DF910895DF939B
:101F9000CF930F92CDB7DEB7198213C08981282F56
:101FA00030E0C901880F991F880F991F880F991F6A
:101FB000820F931F87589F4F0E94A41089818F5FC3
:101FC00089838981823050F38BE890E00E94A410CD
:101FD00084E990E00E94A41081EA90E00E94A4109D
:101FE0008BE890E090939E0080939D0084E990E0C0
:101FF0009093A00080939F000F90CF91DF91089560
:10200000DF93CF9300D000D00F92CDB7DEB79D8382
:102010008C83EC81FD810580F681E02D868197819E
:102020009B838A838A819B810C960E9496118A8168
:102030009B819C01245F3F4F81EA90E0B9010E949F
:10204000DE10EA81FB819689E0917000F0917100C9
:102050008689981718F081E0898301C019828981E7
:102060000F900F900F900F900F90CF91DF910895E8
:10207000DF93CF9300D000D0CDB7DEB79C838B83A6
:102080001A8219820E946E1B8091AA009091AB0067
:102090002B813C81820F931F22E08835920718F52F
:1020A0002091AA003091AB008B819C81280F391FB1
:1020B0008091AA009091AB0082179307A0F48091C1
:1020C000AA009091AB0084559F4F9A8389832091F9
:1020D000AA003091AB008B819C81820F931F90935B
:1020E000AB008093AA000E947A1B89819A810F908D
:1020F0000F900F900F90CF91DF910895DF93CF93C2
:1021000000D0CDB7DEB79A8389830F900F90CF911F
:10211000DF910895DF93CF93CDB7DEB71092AB0078
:102120001092AA00CF91DF910895DF93CF93CDB79E
:10213000DEB72091AA003091AB0088E592E0821BC7
:10214000930BCF91DF910895DF93CF9300D0CDB75C
:10215000DEB79A83898389819A810396E981FA811E
:1021600092838183E981FA818FEF9FEF9483838348
:1021700089819A810396E981FA8196838583898191
:102180009A810396E981FA8190878783E981FA81B0
:1021900010820F900F90CF91DF910895DF93CF932E
:1021A00000D0CDB7DEB79A838983E981FA811186A1
:1021B00010860F900F90CF91DF910895DF93CF930A
:1021C00000D000D000D0CDB7DEB79C838B837E8358
:1021D0006D83EB81FC81818192819A838983E9817E
:1021E000FA8182819381ED81FE8193838283EB81E9
:1021F000FC8181819281ED81FE8195838483E981D7
:10220000FA810280F381E02D8D819E819583848304
:102210008D819E81E981FA81938382838D819E8164
:10222000EB81FC8192838183ED81FE818B819C8196
:1022300091878087EB81FC8180818F5FEB81FC81BE
:10224000808326960FB6F894DEBF0FBECDBFCF9128
:10225000DF910895DF93CF93CDB7DEB728970FB600
:10226000F894DEBF0FBECDBF9E838D8378876F83CA
:10227000EF81F885808191819A83898389819A8110
:102280002FEF8F3F920739F4ED81FE818781908592
:102290009C838B8318C08D819E8103969C838B8346
:1022A00006C0EB81FC81828193819C838B83EB81CF
:1022B000FC810280F381E02D2081318189819A8126
:1022C0008217930770F7EB81FC8182819381EF8104
:1022D000F88593838283EF81F8850280F381E02D76
:1022E0008F81988595838483EF81F8858B819C818C
:1022F000958384838F819885EB81FC81938382838E
:10230000EF81F8858D819E8191878087ED81FE81A7
:1023100080818F5FED81FE81808328960FB6F894CF
:10232000DEBF0FBECDBFCF91DF910895DF93CF9376
:1023300000D000D0CDB7DEB79C838B83EB81FC81CE
:10234000A281B381EB81FC818481958115969C9358
:102350008E931497EB81FC81A481B581EB81FC8184
:102360008281938113969C938E931297EB81FC81CB
:10237000808591859A838983E981FA8121813281DF
:102380008B819C812817390741F4EB81FC81848182
:102390009581E981FA8192838183EB81FC811186A9
:1023A0001086E981FA8180818150E981FA818083F8
:1023B0000F900F900F900F90CF91DF910895DF93C2
:1023C000CF93CDB7DEB728970FB6F894DEBF0FBE18
:1023D000CDBF9C838B837E836D8358874F83EB8136
:1023E000FC8181E180838B819C8101979C838B831D
:1023F000EB81FC8182E280838B819C8101979C83AD
:102400008B83EB81FC8183E380838B819C810197AB
:102410009C838B838D819E819A8389838981EB81C3
:10242000FC8180838B819C8101979C838B83898134
:102430009A81892F99279A8389838981EB81FC81ED
:1024400080838B819C8101979C838B83EB81FC81B2
:1024500010828B819C8101979C838B83EB81FC8113
:1024600080E880838B819C8101979C838B83EB81A7
:10247000FC8110828B819C8101979C838B83EB81F3
:10248000FC8182E080838B819C8101979C838B837C
:10249000EB81FC8183E080838B819C8101979C830D
:1024A0008B83EB81FC8184E080838B819C8101970D
:1024B0009C838B83EB81FC8185E080838B819C8175
:1024C00001979C838B83EB81FC8186E080838B81E9
:1024D0009C8101979C838B83EB81FC8187E08083C7
:1024E0008B819C8101979C838B83EB81FC8188E0AD
:1024F00080838B819C8101979C838B83EB81FC8102
:1025000089E080838B819C8101979C838B83EB8105
:10251000FC8180E180838B819C8101979C838B83EC
:10252000EB81FC8181E180838B819C8101979C837D
:102530008B83EB81FC8182E180838B819C8101977D
:102540009C838B83EB81FC8183E180838B819C81E5
:1025500001979C838B83EB81FC8184E180838B8159
:102560009C8101979C838B83EB81FC8185E1808337
:102570008B819C8101979C838B83EB81FC8186E11D
:1025800080838B819C8101979C838B83EB81FC8171
:1025900087E180838B819C8101979C838B83EB8176
:1025A000FC8188E180838B819C8101979C838B8354
:1025B000EB81FC8189E180838B819C8101979C83E5
:1025C0008B83EB81FC8180E280838B819C810197EE
:1025D0009C838B83EB81FC8181E280838B819C8156
:1025E00001979C838B83EB81FC8182E280838B81CA
:1025F0009C8101979C838B83EB81FC8183E28083A8
:102600008B819C8101979C838B838F8198859A8392
:1026100089838981EB81FC8180838B819C810197F7
:102620009C838B8389819A81892F99279A838983B7
:102630008981EB81FC8180838B819C8101979C83C4
:102640008B83EB81FC8186E280838B819C81019767
:102650009C838B83EB81FC8187E280838B819C81CF
:1026600001979C838B83EB81FC8188E280838B8143
:102670009C8101979C838B83EB81FC8189E2808321
:102680008B819C8101979C838B83EB81FC8180E310
:1026900080838B819C8101979C838B83EB81FC8160
:1026A00081E380838B819C8101979C838B838B81C9
:1026B0009C8128960FB6F894DEBF0FBECDBFCF9198
:1026C000DF910895DF93CF93CDB7DEB70E94521408
:1026D000A0910403B0910503CD91CDBFDD91DEBF84
:1026E000FF91EF91DF91CF91BF91AF919F918F912A
:1026F0007F916F915F914F913F912F911F910F911A
:10270000FF90EF90DF90CF90BF90AF909F908F9011
:102710007F906F905F904F903F902F901F900F9001
:102720000FBE0F90089581E0CF91DF910895DF9360
:10273000CF93CDB7DEB7CF91DF9108950F920FB64B
:10274000F8940F921F9211242F923F924F925F9212
:102750006F927F928F929F92AF92BF92CF92DF92B1
:10276000EF92FF920F931F932F933F934F935F939B
:102770006F937F938F939F93AF93BF93CF93DF9389
:10278000EF93FF93A0910403B09105030DB60D9252
:102790000EB60D920E940E1DA0910403B091050388
:1027A000CD91CDBFDD91DEBFFF91EF91DF91CF9154
:1027B000BF91AF919F918F917F916F915F914F9159
:1027C0003F912F911F910F91FF90EF90DF90CF904D
:1027D000BF90AF909F908F907F906F905F904F9041
:1027E0003F902F901F900F900FBE0F9008950F9263
:1027F0000FB6F8940F921F9211242F923F924F928E
:102800005F926F927F928F929F92AF92BF92CF9280
:10281000DF92EF92FF920F931F932F933F934F936B
:102820005F936F937F938F939F93AF93BF93CF9358
:10283000DF93EF93FF93A0910403B09105030DB6CE
:102840000D920EB60D920E94391C0E940E1DA09191
:102850000403B0910503CD91CDBFDD91DEBFFF91A3
:10286000EF91DF91CF91BF91AF919F918F917F9128
:102870006F915F914F913F912F911F910F91FF9019
:10288000EF90DF90CF90BF90AF909F908F907F9010
:102890006F905F904F903F902F901F900F900FBEC2
:1028A0000F900895DF93CF9300D000D000D0CDB724
:1028B000DEB780EE9EE2A0E0B0E08B839C83AD8328
:1028C000BE838B819C81AD81BE81689415F8B695DD
:1028D000A795979587951694D1F78B839C83AD83A5
:1028E000BE838B819C81AD81BE810197A109B10915
:1028F0008B839C83AD83BE838B8189838B819C81F9
:10290000AD81BE81892F9A2FAB2FBB278B839C83F0
:10291000AD83BE838B818A83EBE4F0E08A81808380
:10292000EAE4F0E0898180838BE08983EEE4F0E0E3
:1029300089818083E9E5F0E08081898389818061F4
:102940008983E9E5F0E08981808326960FB6F894C3
:10295000DEBF0FBECDBFCF91DF9108950E94F71368
:102960001895DF93CF93CDB7DEB728970FB6F894BD
:10297000DEBF0FBECDBF8F8368871A8219828F8119
:10298000882309F48CC08FE190E00E9438109E8368
:102990008D838D819E81009709F481C08F81282FBE
:1029A00030E08885882F90E0AC01249FC001259FEE
:1029B000900D349F900D112401969C838B838B8105
:1029C0009C810E943810ED81FE8191838083ED818E
:1029D000FE8180819181009709F45DC0ED81FE81C7
:1029E000408151818F81282F30E08885882F90E0A9
:1029F000BC01269FC001279F900D369F900D11248A
:102A0000840F951FED81FE8193838283ED81FE818A
:102A1000128EED81FE8180819181ED81FE81958311
:102A20008483ED81FE81408151818F81882F90E0E8
:102A30009C01215030408885882F90E0BC01269F62
:102A4000C001279F900D369F900D1124840F951F74
:102A5000ED81FE8197838683ED81FE818F81838F57
:102A6000ED81FE818885848FED81FE818FEF858FDA
:102A7000ED81FE818FEF868F8D819E8108960E9469
:102A8000A4108D819E8141960E94A4108D819E810B
:102A90009A83898304C08D819E810E947E108981E2
:102AA0009A8128960FB6F894DEBF0FBECDBFCF91A6
:102AB000DF910895DF93CF93CDB7DEB72C970FB694
:102AC000F894DEBF0FBECDBF9E838D8378876F8362
:102AD0005A8749872B8719820FB6F8940F92ED8198
:102AE000FE81928DED81FE81838D9817D8F48D81C2
:102AF0009E812F813885B9014B850E949517ED8104
:102B0000FE818189882349F08D819E8141960E94B2
:102B1000AA1D813011F40E949E130F900FBE81E018
:102B20008C875CC089859A85009721F40F900FBE31
:102B30001C8654C08981882331F4CE0102960E94FC
:102B4000121E81E089830F900FBE0E946E1B0FB68C
:102B5000F8940F92ED81FE81858D8F3F19F4ED8100
:102B6000FE81158EED81FE81868D8F3F19F4ED81FA
:102B7000FE81168E0F900FBECE0102969E01275F3A
:102B80003F4FB9010E942B1E882309F58D819E813C
:102B90000E94F9188823A1F08D819E8108962985CD
:102BA0003A85B9010E94741D8D819E810E94721820
:102BB0000E947A1B882309F08FCF0E949E138CCF2E
:102BC0008D819E810E9472180E947A1B85CF8D8113
:102BD0009E810E9472180E947A1B1C868C852C96FE
:102BE0000FB6F894DEBF0FBECDBFCF91DF91089531
:102BF000DF93CF93CDB7DEB729970FB6F894DEBF3A
:102C00000FBECDBF9C838B837E836D8358874F839C
:102C100029871982EB81FC81928DEB81FC81838D68
:102C2000981740F58B819C812D813E81B9014985A2
:102C30000E949517EB81FC81868D8F3F89F4EB8193
:102C4000FC818189882399F08B819C8141960E9427
:102C5000AA1D882361F0EF81F88581E0808307C099
:102C6000EB81FC81868D8F5FEB81FC81868F81E01B
:102C70008A8301C01A828A8129960FB6F894DEBF32
:102C80000FBECDBFCF91DF910895DF93CF93CDB726
:102C9000DEB72E970FB6F894DEBF0FBECDBF988774
:102CA0008F837A8769875C874B872D871B820FB656
:102CB000F8940F92EF81F885828D882309F43FC044
:102CC000EF81F885868197819A8389838F819885A2
:102CD00029853A85B9010E942A188D858823B1F487
:102CE000EF81F885828D8150EF81F885828FEF81A9
:102CF000F88580858823F1F08F81988508960E9459
:102D0000AA1D8130B9F40E949E1314C0EF81F8858A
:102D100089819A8197838683EF81F88581898823C9
:102D200049F08F81988541960E94AA1D882311F051
:102D30000E949E130F900FBE81E08E875CC08B8532
:102D40009C85009721F40F900FBE1E8654C08B8186
:102D5000882331F4CE0104960E94121E81E08B83F9
:102D60000F900FBE0E946E1B0FB6F8940F92EF816A
:102D7000F885858D8F3F19F4EF81F885158EEF81E9
:102D8000F885868D8F3F19F4EF81F885168E0F90A8
:102D90000FBECE0104969E01255F3F4FB9010E94F0
:102DA0002B1E882309F58F8198850E94C6188823D9
:102DB000A1F08F81988541962B853C85B9010E94B1
:102DC000741D8F8198850E9472180E947A1B882337
:102DD00009F06DCF0E949E136ACF8F8198850E9463
:102DE00072180E947A1B63CF8F8198850E94721897
:102DF0000E947A1B1E868E852E960FB6F894DEBF33
:102E00000FBECDBFCF91DF910895DF93CF93CDB7A4
:102E1000DEB728970FB6F894DEBF0FBECDBF9C83F8
:102E20008B837E836D8358874F831982EB81FC816E
:102E3000828D882371F18B819C812D813E81B90126
:102E40000E942A18EB81FC81828D8150EB81FC81EC
:102E5000828FEB81FC81858D8F3F89F4EB81FC8132
:102E60008085882399F08B819C8108960E94AA1DF9
:102E7000882361F0EF81F88581E0808307C0EB81D2
:102E8000FC81858D8F5FEB81FC81858F81E08A835A
:102E900001C01A828A8128960FB6F894DEBF0FBE51
:102EA000CDBFCF91DF910895DF93CF9300D00F92E4
:102EB000CDB7DEB79B838A830FB6F8940F92EA8171
:102EC000FB81828D89830F900FBE89810F900F90B7
:102ED0000F90CF91DF910895DF93CF9300D00F92A1
:102EE000CDB7DEB79B838A83EA81FB81828D89839C
:102EF00089810F900F900F90CF91DF910895DF930C
:102F0000CF9300D0CDB7DEB79A838983E981FA8168
:102F1000808191810E947E1089819A810E947E1019
:102F20000F900F90CF91DF910895DF93CF9300D052
:102F300000D00F92CDB7DEB79A8389837C836B83F1
:102F40004D83E981FA81848D882309F474C08D81D1
:102F5000882399F5E981FA8164817581E981FA8193
:102F6000848D482F50E02B813C81CB01B9010E9418
:102F70009520E981FA8124813581E981FA81848D66
:102F8000882F90E0820F931FE981FA8195838483D3
:102F9000E981FA8124813581E981FA8182819381F5
:102FA0002817390708F447C0E981FA8180819181A7
:102FB000E981FA81958384833EC0E981FA81668143
:102FC0007781E981FA81848D482F50E02B813C8103
:102FD000CB01B9010E949520E981FA8126813781D0
:102FE000E981FA81848D882F90E0909581959F4F9B
:102FF000820F931FE981FA8197838683E981FA81A1
:1030000026813781E981FA818081918128173907EA
:1030100090F4E981FA8122813381E981FA81848DFA
:10302000882F90E0909581959F4F820F931FE981A3
:10303000FA8197838683E981FA81828D8F5FE981A6
:10304000FA81828F0F900F900F900F900F90CF9179
:10305000DF910895DF93CF9300D000D0CDB7DEB7D6
:103060009A8389837C836B83E981FA818081918152
:10307000009789F1E981FA8126813781E981FA8116
:10308000848D882F90E0820F931FE981FA819783C6
:103090008683E981FA8126813781E981FA818281FB
:1030A00093812817390740F0E981FA818081918165
:1030B000E981FA8197838683E981FA814681578184
:1030C000E981FA81848D282F30E08B819C81BA01BF
:1030D000A9010E9495200F900F900F900F90CF9113
:1030E000DF910895DF93CF9300D0CDB7DEB79A83F9
:1030F00089830FB6F8940F9215C0E981FA8181890E
:103100008823A9F089819A8141960E94AA1D88236B
:1031100011F00E94881EE981FA81868D8150E98133
:10312000FA81868FE981FA81868D181634F3E98158
:10313000FA818FEF868F0F900FBE0FB6F8940F9223
:1031400015C0E981FA8180858823A9F089819A8157
:1031500008960E94AA1D882311F00E94881EE9810A
:10316000FA81858D8150E981FA81858FE981FA8123
:10317000858D181634F3E981FA818FEF858F0F90D2
:103180000FBE0F900F90CF91DF910895DF93CF93F3
:1031900000D00F92CDB7DEB79B838A830FB6F89429
:1031A0000F92EA81FB81828D1982882311F481E0DC
:1031B00089830F900FBE89810F900F900F90CF9150
:1031C000DF910895DF93CF9300D00F92CDB7DEB794
:1031D0009B838A83EA81FB81828D1982882311F483
:1031E00081E0898389810F900F900F90CF91DF91BB
:1031F0000895DF93CF9300D00F92CDB7DEB79B83B6
:103200008A830FB6F8940F92EA81FB81928DEA814E
:10321000FB81838D1982981711F481E089830F90C7
:103220000FBE89810F900F900F90CF91DF9108957D
:10323000DF93CF9300D00F92CDB7DEB79B838A8305
:10324000EA81FB81928DEA81FB81838D1982981737
:1032500011F481E0898389810F900F900F90CF91B5
:10326000DF910895AF92BF92CF92DF92EF92FF92DB
:103270000F931F93DF93CF93CDB7DEB764970FB64D
:10328000F894DEBF0FBECDBF9F838E83798768879A
:103290005B874A873D872C870E87F88AEF86DA8A14
:1032A000C98ABC8AAB8A8A859B8529893A89B901F2
:1032B0000E94B71F9C838B838B819C81009709F4AC
:1032C00099C0EB81FC812789308D8A859B85019788
:1032D000820F931F9A8389838B819C8128853985EE
:1032E000EB89FC89AA85BB85B9014E859F018D01BB
:1032F0000E949C1E89819A812E813F814C855D852B
:10330000B9010E94DF11EB81FC81918380838F855D
:103310009889009731F0EF85F8898B819C819183A2
:1033200080830FB6F8940F92809107038F5F80938C
:1033300007038091040390910503009769F48B8142
:103340009C8190930503809304038091070381304F
:10335000A9F40E94F31E12C080910C03882371F41B
:10336000E0910403F091050396898E85891730F06A
:103370008B819C819093050380930403EB81FC81F6
:10338000968980910A03891728F4EB81FC8186894C
:1033900080930A03809111038F5F80931103EB8167
:1033A000FC81968980910B03891728F4EB81FC81BD
:1033B000868980930B03EB81FC818689282F30E07E
:1033C000C901880F991F880F991F880F991F820FB5
:1033D000931FAC014E5E5C4F8B819C819C012E5FE4
:1033E0003F4FCA01B9010E94DE1081E08D830F902A
:1033F0000FBE02C08FEF8D838D81813071F480917B
:103400000C03882351F0E0910403F09105039689A1
:103410008E85981710F40E949E138D8164960FB6C6
:10342000F894DEBF0FBECDBFCF91DF911F910F91FA
:10343000FF90EF90DF90CF90BF90AF900895DF9313
:10344000CF9300D000D000D0CDB7DEB79C838B8364
:103450000FB6F8940F9220910403309105038B81ED
:103460009C818217930711F41C821B828B819C81A3
:10347000009739F480910403909105039E838D8316
:1034800004C08B819C819E838D838D819E819A83D4
:10349000898389819A8102960E949611E981FA8135
:1034A00084899589009729F089819A810C960E94D8
:1034B000961189819A819C012E5F3F4F8CE493E0A5
:1034C000B9010E94DE10809106038F5F809306038E
:1034D000809111038F5F809311030F900FBE809135
:1034E0000C03882331F08B819C81009711F40E949A
:1034F0009E1326960FB6F894DEBF0FBECDBFCF91B8
:10350000DF910895DF93CF93CDB7DEB728970FB63D
:10351000F894DEBF0FBECDBF9E838D8378876F8307
:1035200019820E946E1BED81FE81208131818F8185
:103530009885820F931F9C838B83ED81FE81208170
:103540003181809108039091090382179307A8F4B1
:10355000ED81FE81208131818B819C8182179307CF
:1035600000F520910803309109038B819C81281775
:103570003907B8F481E0898314C0ED81FE81208190
:1035800031818B819C818217930748F02091080339
:10359000309109038B819C812817390710F481E051
:1035A0008983ED81FE818B819C81918380838981D8
:1035B000882359F0809104039091050302960E949C
:1035C00096118B819C810E946E1F0E947A1B8A83B8
:1035D0008A81882311F40E949E1328960FB6F894CE
:1035E000DEBF0FBECDBFCF91DF910895DF93CF93A4
:1035F00000D000D00F92CDB7DEB79D838C831982A7
:103600008C819D810097D1F00E946E1B2091080350
:10361000309109038C819D81820F931F9B838A8344
:10362000809104039091050302960E9496118A816D
:103630009B810E946E1F0E947A1B89838981882347
:1036400011F40E949E130F900F900F900F900F9007
:10365000CF91DF910895AF92BF92CF92DF92EF9218
:10366000FF920F93DF93CF930F92CDB7DEB720E693
:1036700030E082E99EE1B90145E550E020E030E02C
:1036800000E0EE24FF24CC24DD24AA24BB240E94E5
:10369000321989838981813051F4F89481E08093D3
:1036A0000C0310920903109208030E9462130F90FA
:1036B000CF91DF910F91FF90EF90DF90CF90BF906F
:1036C000AF900895DF93CF93CDB7DEB7F894109203
:1036D0000C030E949713CF91DF910895DF93CF934E
:1036E000CDB7DEB780910D038F5F80930D03CF912F
:1036F000DF910895DF93CF9300D000D0CDB7DEB730
:103700001A820FB6F8940F9280910D038150809326
:103710000D0380910D03882309F06CC0809107038D
:10372000882309F467C0198241C0E0914803F091F1
:103730004903868197819C838B838B819C810C9626
:103740000E9496118B819C8102960E949611EB81BA
:10375000FC81968980910B03891728F4EB81FC8109
:10376000868980930B03EB81FC818689282F30E0CA
:10377000C901880F991F880F991F880F991F820F01
:10378000931F8E5E9C4F2B813C812E5F3F4FB90172
:103790000E94DE10EB81FC819689E0910403F09198
:1037A00005038689981710F081E08983809143038F
:1037B000882309F0BACF80910E03882371F007C0E7
:1037C0000E94391C80910E03815080930E038091DA
:1037D0000E038823A9F781E089838981813021F054
:1037E00080910F03813031F481E08A8310920F03BE
:1037F0000E949E130F900FBE8A810F900F900F9022
:103800000F90CF91DF910895DF93CF9300D0CDB784
:10381000DEB70FB6F8940F928091080390910903D8
:103820009A8389830F900FBE89819A810F900F90A0
:10383000CF91DF910895DF93CF9300D00F92CDB752
:10384000DEB7198280910803909109039B838A83D4
:103850008A819B810F900F900F90CF91DF910895F7
:10386000DF93CF93CDB7DEB780910703CF91DF9180
:103870000895DF93CF9300D000D000D0CDB7DEB74E
:1038800080910D03882309F0BBC0809108039091BB
:10389000090301969093090380930803809108031C
:1038A000909109030097D1F580913F0390914003D7
:1038B0009C838B83809141039091420390934003BA
:1038C00080933F038B819C819093420380934103BB
:1038D000809110038F5F80931003E0913F03F0917C
:1038E00040038081882339F48FEF9FEF90936E001F
:1038F00080936D0013C0E0913F03F0914003058079
:10390000F681E02D868197819E838D83ED81FE81F6
:103910008281938190936E0080936D0020910803C3
:103920003091090380916D0090916E00281739073E
:1039300008F46BC0E0913F03F0914003808188233D
:1039400039F48FEF9FEF90936E0080936D005DC010
:10395000E0913F03F09140030580F681E02D8681E0
:1039600097819E838D83ED81FE81828193819A83ED
:103970008983209108033091090389819A8128174E
:10398000390738F489819A8190936E0080936D0095
:103990003CC08D819E8102960E949611ED81FE8130
:1039A00084899589009729F08D819E810C960E94CB
:1039B0009611ED81FE81968980910B03891728F479
:1039C000ED81FE81868980930B03ED81FE818689DE
:1039D000282F30E0C901880F991F880F991F880F81
:1039E000991F820F931FAC014E5E5C4F8D819E81AB
:1039F0009C012E5F3F4FCA01B9010E94DE109ACF91
:103A000080910E038F5F80930E0326960FB6F89475
:103A1000DEBF0FBECDBFCF91DF910895DF93CF936F
:103A200000D0CDB7DEB780910D03882349F081E047
:103A300080930F0354C080910B03815080930B033C
:103A400080910B03282F30E0C901880F991F880F40
:103A5000991F880F991F820F931FFC01EE5EFC4F88
:103A60008081882341F380910B03282F30E0C90126
:103A7000880F991F880F991F880F991F820F931F16
:103A80008E5E9C4F9A838983E981FA810180F2815D
:103A9000E02D82819381E981FA8192838183E9819A
:103AA000FA812181328189819A8103962817390709
:103AB00059F4E981FA810180F281E02D82819381BC
:103AC000E981FA8192838183E981FA810180F2811F
:103AD000E02D8681978190930503809304030F90D6
:103AE0000F90CF91DF910895DF93CF9300D000D056
:103AF00000D0CDB7DEB79C838B837E836D834B81F3
:103B00005C8180910403909105039C01245F3F4FE9
:103B1000CA01B9010E942A11809104039091050302
:103B200002960E94961120910803309109038D811D
:103B30009E81820F931F9A83898389819A810E9433
:103B40006E1F26960FB6F894DEBF0FBECDBFCF9185
:103B5000DF910895DF93CF9300D000D00F92CDB7BF
:103B6000DEB79D838C83EC81FD810580F681E02D9D
:103B7000868197819B838A838A819B810C960E9490
:103B8000961180910D03882361F58A819B810296AD
:103B90000E949611EA81FB81968980910B03891717
:103BA00028F4EA81FB81868980930B03EA81FB81FB
:103BB0008689282F30E0C901880F991F880F991F27
:103BC000880F991F820F931FAC014E5E5C4F8A8154
:103BD0009B819C012E5F3F4FCA01B9010E94DE10FC
:103BE0000AC08A819B819C01245F3F4F83E493E05C
:103BF000B9010E94DE10EA81FB819689E0910403FD
:103C0000F09105038689981718F081E0898301C037
:103C1000198289810F900F900F900F900F90CF9184
:103C2000DF910895DF93CF9300D0CDB7DEB79A83AD
:103C3000898380911003E981FA8180838091080350
:103C400090910903E981FA81928381830F900F900B
:103C5000CF91DF910895DF93CF9300D000D00F92E2
:103C6000CDB7DEB79B838A837D836C830FB6F894D0
:103C70000F92EA81FB81908180911003981771F077
:103C8000EA81FB81218132818091080390910903AF
:103C90008217930718F081E089832FC020910803D1
:103CA00030910903EA81FB8181819281281B390BC4
:103CB000EC81FD818081918128173907E0F4EC8146
:103CC000FD8140815181EA81FB8121813281809196
:103CD000080390910903B901681B790BCB01840F8C
:103CE000951FEC81FD81918380838A819B810E9455
:103CF000121E198202C081E089830F900FBE898154
:103D00000F900F900F900F900F90CF91DF9108952B
:103D1000DF93CF93CDB7DEB781E080930F03CF91D0
:103D2000DF910895DF93CF9300D0CDB7DEB79A83AC
:103D300089830E94301FFDCF0F931F93DF93CF9392
:103D4000CDB7DEB729970FB6F894DEBF0FBECDBF53
:103D50009A8389837C836B834D833F832E8319876A
:103D6000088789819A8149962B813C81B90148E075
:103D700050E00E94A520E981FA8110A28D81833054
:103D800010F082E08D83E981FA818D81868B8981B3
:103D90009A8102960E94CE1089819A810C960E9487
:103DA000CE10E981FA8189819A81918780878D81FE
:103DB000282F30E083E090E0821B930BE981FA81A9
:103DC00095878487E981FA8189819A81938B828B97
:103DD00029960FB6F894DEBF0FBECDBFCF91DF910D
:103DE0001F910F910895DF93CF930F92CDB7DEB758
:103DF000198213C08981282F30E0C901880F991FCB
:103E0000880F991F880F991F820F931F8E5E9C4FFA
:103E10000E94A41089818F5F89838981833050F348
:103E20008DE293E00E94A41086E393E00E94A41028
:103E300083E493E00E94A4108CE493E00E94A41019
:103E40008DE293E09093400380933F0386E393E0F9
:103E500090934203809341030F90CF91DF91089597
:103E6000DF93CF9300D00F92CDB7DEB780910603DA
:103E7000882371F10E946E1B80914C031B82882362
:103E800011F481E08B830E947A1B8B81882301F5DA
:103E90000FB6F8940F92E0915103F091520386818E
:103EA00097819A83898389819A8102960E949611CB
:103EB000809107038150809307038091060381500E
:103EC000809306030F900FBE89819A810E9407207C
:103ED0000F900F900F90CF91DF910895DF93CF93C4
:103EE00000D0CDB7DEB79A838983E0910403F091C7
:103EF000050389819A8193838283209108033091FD
:103F0000090389819A818217930770F48091410394
:103F10009091420320910403309105032E5F3F4F9F
:103F2000B9010E942A111EC040913F0350914003E5
:103F300080910403909105039C012E5F3F4FCA01BD
:103F4000B9010E942A1120916D0030916E00898183
:103F50009A818217930730F489819A8190936E0039
:103F600080936D000F900F90CF91DF910895DF93B4
:103F7000CF93CDB7DEB728970FB6F894DEBF0FBE4C
:103F8000CDBF9C838B837E836D8381E290E00E9412
:103F900038109A83898389819A81009769F18D818C
:103FA0009E81009739F48B819C810E9438109887FC
:103FB0008F8304C08D819E8198878F83E981FA81E8
:103FC0008F819885908F878BE981FA818789908D81
:103FD000009739F489819A810E947E101A82198291
:103FE0000BC0E981FA818789908D2B813C8165EA3C
:103FF00070E0A9010E949E2089819A8128960FB6BF
:10400000F894DEBF0FBECDBFCF91DF910895DF934F
:10401000CF9300D0CDB7DEB79A838983E981FA8147
:104020008789908D0E947E1089819A810E947E10DE
:104030000F900F90CF91DF910895629FD001739FF1
:10404000F001829FE00DF11D649FE00DF11D929F34
:10405000F00D839FF00D749FF00D659FF00D992773
:10406000729FB00DE11DF91F639FB00DE11DF91F97
:10407000BD01CF0111240895A1E21A2EAA1BBB1B7A
:10408000FD010DC0AA1FBB1FEE1FFF1FA217B30724
:10409000E407F50720F0A21BB30BE40BF50B661F3A
:1040A000771F881F991F1A9469F7609570958095FE
:1040B00090959B01AC01BD01CF0108952F923F92D5
:1040C0004F925F926F927F928F929F92AF92BF9228
:1040D000CF92DF92EF92FF920F931F93CF93DF93D4
:1040E000CDB7DEB7CA1BDB0B0FB6F894DEBF0FBE31
:1040F000CDBF09942A88398848885F846E847D847E
:104100008C849B84AA84B984C884DF80EE80FD807F
:104110000C811B81AA81B981CE0FD11D0FB6F894F5
:10412000DEBF0FBECDBFED010895FB01DC0102C073
:1041300001900D9241505040D8F70895DC0101C024
:104140006D9341505040E0F70895FB01DC01415070
:10415000504048F001900D920020C9F701C01D9217
:0C41600041505040E0F70895F894FFCF64
:10416C0049444C45000000000000000000FFFF0027
:00000001FF
