:100000000C942A000C9434000C9434000C943400AA
:100010000C9434000C9434000C9434000C94340090
:100020000C9434000C9434000C9434000C94340080
:100030000C9434000C9434000C9434000C94340070
:100040000C9434000C9434000C9434000C94340060
:100050000C94340011241FBECFE5D8E0DEBFCDBF25
:100060000E94ED000C9409010C9400000C94C10056
:100070001F93CF93DF93EC01162F0E94CC000E94B8
:10008000EA00883011F0D89A11C09E0122273770FB
:10009000C901880F892F881F990B9195806A0E944A
:1000A000D5000E94EA00883119F0D99A80E013C087
:1000B0008C2F0E94D5000E94EA00883211F0DA9A53
:1000C000F5CF812F0E94D5000E94EA00883269F79F
:1000D0000E94D20081E0DF91CF911F910895EF92AD
:1000E000FF920F931F93CF93DF938C017B010E94AC
:1000F000CC000E94EA008830A1F5E801CC27D77037
:10010000CC0FCD2FCC1FDD0BD1958C2F806A0E9498
:10011000D5000E94EA00883131F5802F0E94D50079
:100120000E94EA00883209F50E94CC000E94EA0091
:100130008031E9F48C2F816A0E94D5000E94EA0088
:100140008034B9F40E94DC00F70180830E94EA0049
:10015000803519F0DA9A86E00DC00E94D20081E065
:1001600009C080E007C082E005C083E003C084E0EE
:1001700001C085E0DF91CF911F910F91FF90EF902B
:10018000089588E480B982E082B984E486BF11B81A
:1001900081B18C7F81B9089584EA86BF06B607FED7
:1001A000FDCF089584E986BF089583B984E886BFAA
:1001B00006B607FEFDCF089584EC86BF06B607FE9F
:1001C000FDCF83B1089584E886BF06B607FEFDCF54
:1001D00083B1089581B1887F08958FEF8ABB0E9413
:1001E000360063E082E090E00E9438002FEF80E765
:1001F00092E0215080409040E1F700C00000C0E054
:10020000D0E0BE0182E090E00E946F0088818BBB4D
:06021000FFCFF894FFCFC0
:00000001FF
