:100000000C94A7000C94C4000C94C4000C94C4007D
:100010000C94C4000C94C4000C94C4000C94C40050
:100020000C94C4000C94C4000C94C4000C94C40040
:100030000C94C4000C94C4000C94C4000C94C40030
:100040000C94C4000C94C4000C94C4000C94C40020
:100050000C94C40000407A10F35A00A0724E1809A4
:100060000010A5D4E80000E87648170000E40B541F
:10007000020000CA9A3B000000E1F50500008096EE
:100080009800000040420F000000A0860100000020
:10009000102700000000E8030000000064000000DA
:1000A00000000A00000000000100000000002C76A3
:1000B000D888DC674F0823DFC1DFAE59E1B1B796BE
:1000C000E5E3E453C63AE651997696E8E6C284261B
:1000D000EB898C9B62ED407C6FFCEFBC9C9F40F2F7
:1000E000BAA56FA5F490055A2AF75C936B6CF96773
:1000F0006DC11BFCE0E40D47FEF520E6B500D0ED38
:10010000902E0300943577050080841E080000209F
:100110004E0A000000C80C333333330F986E12833D
:100120001141EF8D2114893BE65516CFFEE6DB1811
:10013000D1844B381BF77C1D901DA4BBE4242032D6
:1001400084725E228100C9F124ECA1E53D271124CF
:100150001FBECFE5D8E0DEBFCDBF10E0A0E6B0E027
:10016000E4E1FDE002C005900D92AC36B107D9F78D
:1001700020E0ACE6B0E001C01D92A439B207E1F77F
:100180000E9402010C9488060C940000899A8898B9
:1001900083E389B910BC86E880BD88E18AB90895F7
:1001A0005D9BFECF8CB908955F9BFECF8CB1089507
:1001B000CF93DF93EC018991882319F00E94D0003E
:1001C000FACFDF91CF91089587B38F7187BBBC9A27
:1001D0006C986E9A089587B38C6287BBBC986C9AB2
:1001E0008DB183608DB96E9A08958FB9779BFECFDC
:1001F0008FB10895779BFECF8FB108958FB9779B0C
:10020000FECF08950E94C6000E94E40080E6E82E1A
:1002100080E0F82EC0E8D0E00CE610E022E045E0F7
:1002200060E070E08AEF92E40E942A01C8019F9387
:100230000F93FF92EF92DF93CF930E944A0180E8E1
:1002400090E00E94D8000F900F900F900F900F90A9
:100250000F90E2CFEF920F931F93CF93DF93E801BC
:1002600047FD02C034E001C034E1E42F440FFF0B2E
:10027000F7FF03C0F195E195F109E32E022F2E2F30
:10028000AE010E943F03CE01DF91CF911F910F91EC
:10029000EF900895AEE0B0E0E0E5F1E00C945F0689
:1002A0000D891E8986E08C831A8309838FEF9FE76F
:1002B0009E838D83AE01475E5F4F6F89788DCE013F
:1002C00001960E946D012F813885F801E20FF31F1E
:1002D00010822E96E4E00C947B06ACE0B0E0E3E7FD
:1002E000F1E00C9451067C016B018A01FC0117823C
:1002F0001682838181FFBDC1CE0101964C01F701B9
:100300009381F60193FD859193FF81916F0188237D
:1003100009F4ABC1853239F493FD859193FF819146
:100320006F01853229F4B70190E00E94BB05E7CF49
:10033000512C312C20E02032A0F48B3269F030F4C3
:10034000803259F0833269F420612CC08D3239F04B
:10035000803339F4216026C02260246023C02860E5
:1003600021C027FD27C030ED380F3A3078F426FF42
:1003700006C0FAE05F9E300D1124532E13C08AE0B0
:10038000389E300D1124332E20620CC08E3221F4A1
:1003900026FD6BC1206406C08C3611F4206802C0B3
:1003A000883641F4F60193FD859193FF81916F01A9
:1003B0008111C1CF982F9F7D9554933028F40C5F05
:1003C0001F4FFFE3F9830DC0833631F0833771F09F
:1003D000833509F05BC022C0F801808189830E5FFC
:1003E0001F4F44244394512C540115C03801F2E0AE
:1003F0006F0E711CF801A080B18026FF03C0652D2F
:1004000070E002C06FEF7FEFC5012C870E94B0053E
:100410002C0183012C852F77222E17C03801F2E0A2
:100420006F0E711CF801A080B18026FF03C0652DFE
:1004300070E002C06FEF7FEFC5012C870E94A50519
:100440002C012C852068222E830123FC1BC0832DC8
:1004500090E048165906B0F4B70180E290E00E949F
:10046000BB053A94F4CFF50127FC859127FE8191D5
:100470005F01B70190E00E94BB0531103A94F1E0B2
:100480004F1A51084114510471F7E5C0843611F038
:10049000893639F5F80127FF07C0608171818281B3
:1004A00093810C5F1F4F08C060817181072E000C83
:1004B000880B990B0E5F1F4F2F76722E97FF09C086
:1004C00090958095709561957F4F8F4F9F4F2068D5
:1004D000722E2AE030E0A4010E94F305A82EA8188D
:1004E00044C0853729F42F7EB22E2AE030E025C0A3
:1004F000F22FF97FBF2E8F36C1F018F4883579F0CE
:10050000B4C0803719F0883721F0AFC02F2F206199
:10051000B22EB4FE0DC08B2D8460B82E09C024FF0E
:100520000AC09F2F9660B92E06C028E030E005C0B3
:1005300020E130E002C020E132E0F801B7FE07C060
:1005400060817181828193810C5F1F4F06C0608141
:10055000718180E090E00E5F1F4FA4010E94F305BF
:10056000A82EA818FB2DFF777F2E76FE0BC0372D07
:100570003E7FA51450F474FE0AC072FC08C0372DEB
:100580003E7E05C0BA2C372D03C0BA2C01C0B52C55
:1005900034FF0DC0FE01EA0DF11D8081803311F49E
:1005A000397E09C032FF06C0B394B39404C0832FD0
:1005B000867809F0B39433FD13C030FF06C05A2C7F
:1005C000B31418F4530C5B18B32CB31468F4B701CC
:1005D00080E290E03C870E94BB05B3943C85F5CF58
:1005E000B31410F43B1801C0312C34FF12C0B70112
:1005F00080E390E03C870E94BB053C8532FF17C03A
:1006000031FD03C088E790E002C088E590E0B701C3
:100610000CC0832F867859F031FF02C08BE201C0F5
:1006200080E237FD8DE2B70190E00E94BB05A51482
:1006300038F4B70180E390E00E94BB055A94F7CFED
:10064000AA94F401EA0DF11D8081B70190E00E94A7
:10065000BB05A110F5CF332009F451CEB70180E2DC
:1006600090E00E94BB053A94F6CFF701868197810E
:1006700002C08FEF9FEF2C96E2E10C946D064F9233
:100680005F926F927F929F92AF92BF92CF92DF92D2
:10069000EF92FF920F931F93CF93DF93CDB7DEB707
:1006A00029970FB6F894DEBF0FBECDBF6A01122F97
:1006B000B02E2BE3201720F0FF24F394F00E02C09D
:1006C000BCE3FB2E0F2D27E0AE014F5F5F4F0E9472
:1006D000CD04AC018981982F9970913031F0E1FC03
:1006E00006C0E0FE06C090E205C09DE203C09BE2AA
:1006F00001C090E0EE2DE07183FF3CC0911102C07B
:1007000083E001C084E0811718F4212F281B01C069
:1007100020E0E1110BC0F601822F30E2882319F0AE
:1007200031938150FBCFC20ED11C20E0992329F0D8
:10073000D6019C93F60131966F01C6010396E2FE45
:100740000AC03EE4D6013C9341E411964C931197C4
:1007500012963C9306C03EE6F601308341E64183A3
:100760003283FC01322F40E2332309F442C041932B
:100770003150FACF82FF44C0911102C083E001C022
:1007800084E0811718F4212F281B01C020E0E1111B
:100790000BC0F601822F30E2882319F0319381508B
:1007A000FBCFC20ED11C20E0992329F0D6019C93E7
:1007B000F60131966F01C6010396E2FE0BC039E4E3
:1007C000D6013C933EE411963C93119736E4129681
:1007D0003C9307C039E6F60130833EE6318336E6C6
:1007E0003283FC01322F40E2332319F04193315020
:1007F000FBCFFC01E20FF11D10828EEF9FEFB7C01F
:10080000F1E0911101C0F0E06F2F70E014161506B1
:1008100024F49A012F5F3F4F02C021E030E0260F01
:10082000371FBB2029F06B2D70E06F5F7F4F02C038
:1008300060E070E0260F371F612F70E02617370742
:100840001CF4121B212F01C020E03E2D387159F4F9
:10085000D601322F60E2332319F06D933150FBCF74
:10086000C20ED11C20E0FF2331F0D6019C93B601CB
:100870006F5F7F4F6B01E1110BC0F601922F30E3E8
:10088000992319F031939150FBCFC20ED11C20E077
:100890009F2D940F3A81782F7071A72E84FF03C08B
:1008A000313309F49150191624F4993018F098E076
:1008B00001C091E0E42F852F57FF02C0E0E080E007
:1008C0006E2F782FE0E0F0E0AEE29A2E3A01691A3E
:1008D00071082A01461A570A0B2D10E0119501954F
:1008E00011096F3F8FEF780729F4D6019C92C6015A
:1008F00001966C014617570784F0661677066CF46C
:100900007F01E40CF51CA1E0B0E0AC0FBD1FEA0EC6
:10091000FB1ED7011196BC9002C090E3B92E615026
:1009200071093196C60101967C016017710724F0A8
:10093000D601BC926C01D5CF6417750741F43633EC
:1009400020F4353321F4A11002C081E3B82EF60162
:10095000B082F701822F90E2882319F091938150A1
:10096000FBCFF701E20FF11D108280E090E02996A5
:100970000FB6F894DEBF0FBECDBFDF91CF911F91B0
:100980000F91FF90EF90DF90CF90BF90AF909F902E
:100990007F906F905F904F900895283008F027E087
:1009A0003327DA01990F311D87FD916000966105AB
:1009B000710539F432602E5F3D9330E32A95E1F7FB
:1009C00008959F3F30F080387105610509F03C5F64
:1009D0003C5F3D93913008F08068911DDF93CF9389
:1009E0001F930F93FF92EF92192F987F9695E92FFF
:1009F00096959695E90FFF27E255FF4F99273327E4
:100A0000EE24FF24A701E70105900894079428F439
:100A1000360FE71EF81E491F511D660F771F881FEE
:100A2000991F0694A1F70590079428F4E70EF81E85
:100A3000491F561FC11D770F881F991F661F0694F7
:100A4000A1F70590079428F4F80E491F561FC71FF9
:100A5000D11D880F991F661F771F0694A1F7059077
:100A6000079420F4490F561FC71FD81F990F661F00
:100A7000771F881F0694A9F784911095177041F08D
:100A8000D695C79557954795F794E7941A95C1F76A
:100A9000E4E5F0E068941590159135916591959194
:100AA00005907FE27395E118F10A430B560BC90BD1
:100AB000D009C0F7E10CF11E431F561FC91FD01DFE
:100AC0007EF4703311F48A95E6CFE894015030F04B
:100AD000080F0AF40027021708F4202F2395022F8D
:100AE0007A3328F079E37D932A95E9F710C07D9356
:100AF0002A9589F6069497956795379517951794D3
:100B0000E118F10A430B560BC90BD00998F0239555
:100B10007E9173957A3308F070E37C932013B8F7D5
:100B20007E9170617D9330F0839571E37D9370E3E6
:100B30002A95E1F71124EF90FF900F911F91CF912B
:100B4000DF91992787FD90950895FC0105906150EC
:100B500070400110D8F7809590958E0F9F1F0895D3
:100B6000FC016150704001900110D8F7809590957C
:100B70008E0F9F1F08950F931F93CF93DF93FB0159
:100B8000238121FD03C08FEF9FEF28C022FF16C0F5
:100B900046815781248135814217530744F4A0814F
:100BA000B1819D012F5F3F4F318320838C9326813C
:100BB00037812F5F3F4F3783268310C0EB01092F0A
:100BC000182F0084F185E02D0995892BE1F68E819F
:100BD0009F8101969F838E83812F902FDF91CF91EC
:100BE0001F910F910895FA01AA27283051F1203161
:100BF00081F1E8946F936E7F6E5F7F4F8F4F9F4FB1
:100C0000AF4FB1E03ED0B4E03CD0670F781F891FF2
:100C10009A1FA11D680F791F8A1F911DA11D6A0FC0
:100C2000711D811D911DA11D20D009F468943F9173
:100C30002AE0269F11243019305D3193DEF6CF0172
:100C40000895462F4770405D4193B3E00FD0C9F738
:100C5000F6CF462F4F70405D4A3318F0495D31FDA5
:100C60004052419302D0A9F7EACFB4E0A6959795F8
:100C7000879577956795BA95C9F7009761057105CE
:100C800008959B01AC010A2E069457954795379518
:100C90002795BA95C9F7620F731F841F951FA01D72
:100CA00008952F923F924F925F926F927F928F9210
:100CB0009F92AF92BF92CF92DF92EF92FF920F93EB
:100CC0001F93CF93DF93CDB7DEB7CA1BDB0B0FB6F5
:100CD000F894DEBF0FBECDBF09942A8839884888B2
:100CE0005F846E847D848C849B84AA84B984C88448
:100CF000DF80EE80FD800C811B81AA81B981CE0F3F
:100D0000D11D0FB6F894DEBF0FBECDBFED01089523
:040D1000F894FFCF85
:0C0D1400204178203D20257320670A0054
:00000001FF
