:100000000C942A000C9434000C9434000C943400AA
:100010000C9434000C9434000C9434000C94340090
:100020000C9434000C9434000C9434000C94340080
:100030000C9434000C9434000C9434000C94340070
:100040000C9434000C9434000C9434000C94340060
:100050000C94340011241FBECFE5D8E0DEBFCDBF25
:100060000E9448000C9452000C940000899A8898D1
:1000700083E389B910BC86E880BD88E18AB9089518
:100080005D9BFECF8CB908955F9BFECF8CB1089528
:100090000E9436008FEF84BB0E94440085BB0E9403
:0800A0004000FACFF894FFCFF5
:00000001FF
