:100000000C942A000C9447000C9447000C94470071
:100010000C9447000C9447000C9447000C94470044
:100020000C9447000C9447000C9447000C94470034
:100030000C9447000C9447000C9447000C94470024
:100040000C9447000C9447000C9447000C94470014
:100050000C94470011241FBECFE5D8E0DEBFCDBF12
:1000600010E0A0E6B0E0E2EDFBE002C005900D92EA
:10007000AE37B107D9F720E0AEE7B0E001C01D927E
:10008000A238B207E1F70E9477020C94E7050C94BE
:100090000000BB9A93B7996693BF8CBF08958F9267
:1000A0009F92AF92BF92EF92FF920F931F93CF93C5
:1000B000DF93EC011FBC1DBC1CBC80E288BF8EB569
:1000C00081648EBD08B605FEFDCFE6B4F7B498B7DF
:1000D000906298BF9EB59F7B9EBD08B605FEFDCF82
:1000E00066B577B598B7906298BF9EB590649EBD8F
:1000F00008B605FEFDCF06B517B598B7906298BF54
:100100001EBCE616F70618F56017710700F56E19A4
:100110007F0980E090E00E945D034B015C01C80113
:100120008E199F09BC0180E090E00E945D039B0155
:10013000AC01C501B4010E94B50220E030E048ECFA
:1001400052E40E944D040E942E0379836883DF915C
:10015000CF911F910F91FF90EF90BF90AF909F9024
:100160008F900895379A329A319A309A3F983E9AF2
:100170003D98089597B1907E97B997B18770982B65
:1001800097B9369A349BFECF349A84B195B10895CD
:10019000682F82E00E94670261E080E00E946702AF
:1001A0008FEC97E00197F1F700C0000060E080E07D
:1001B0000E9467029FE728E381E091502040804041
:1001C000E1F700C0000008956FEF82E00E9457023F
:1001D00067E080E00E94570288E30E94C8008FEC2D
:1001E00097E00197F1F700C0000081E00E94C8008D
:1001F0008FEC97E00197F1F700C000008EE00E94BD
:10020000C8008FEC97E00197F1F700C0000080E88C
:100210000E94C8008FEC97E00197F1F700C0000042
:100220000895682F82E00E94670265E080E00E94E6
:1002300067028FEC97E00197F1F700C0000064E0DF
:1002400080E00E9467029FE728E381E09150204010
:100250008040E1F700C000000895CF93DF93EC01E8
:100260008991882319F00E941101FACFDF91CF9173
:100270000895EF92FF920F931F93CF93DF93182F60
:10028000092F682F792FC0E0D0E0EAE0F0E0CE013E
:1002900001961616170634F4EC01CB01BF010E943B
:1002A000A102F5CF0E94BA04FC019E018AE0E82E6B
:1002B000F12C2150310937FD0DC0812F902FB7014E
:1002C0000E948D02162F072FDF01A20FB31F805D42
:1002D0008C93EFCFCE0FDF1F1882CF01DF91CF912C
:1002E0001F910F91FF90EF900C942D01CF92DF9210
:1002F000EF92FF926B017C010E942703CB010E94C9
:1003000039018EE20E94110120E030E040E85FE315
:10031000C701B6010E94A50320E030E048EC52E49A
:100320000E944D040E942703CB01FF90EF90DF90C5
:10033000CF900C9439010F931F93CF93DF938830A4
:1003400080F48B01880F880F880F805C0E94C800A2
:10035000E801085F1F4F89910E941101C017D10762
:10036000D1F7DF91CF911F910F910895803148F41B
:10037000611102C0805803C0613019F481540C949B
:10038000C80008950F931F93CF93DF9300D000D040
:1003900000D0CDB7DEB710E02AE030E0009771F072
:1003A000E1E0F0E0EC0FFD1FE10FF11DB9010E944B
:1003B0008D02805D8083CB011F5FF0CF0FEF010FB7
:1003C000011788F4E1E0F0E0EC0FFD1FE00FF11DF4
:1003D00080810E9411018FE99FE00197F1F700C031
:1003E00000000150EDCF26960FB6F894DEBF0FBE89
:1003F000CDBFDF91CF911F910F9108958430D8F434
:100400006830C8F490E0880F991FFC01E05AFF4F54
:100410000190F081E02D208181E090E001C0880F03
:100420006A95EAF7413011F4822B02C0809582234D
:10043000808380E008958FEF08958430B8F46830A9
:10044000A8F4E82FF0E0EE0FFF1FE859FF4F0190EE
:10045000F081E02D808190E002C0959587956A95A6
:10046000E2F78170FA01808380E008958FEF0895AC
:100470008430D8F46830C8F490E0880F991FFC01EC
:10048000E059FF4F0190F081E02D208181E090E064
:1004900001C0880F6A95EAF7413011F4822B02C03F
:1004A00080958223808380E008958FEF08958430C3
:1004B00060F4E82FF0E0EE0FFF1FE059FF4F0190CE
:1004C000F081E02D608380E008958FEF08958430FF
:1004D00060F4E82FF0E0EE0FFF1FE05AFF4F0190AD
:1004E000F081E02D608380E008958FEF0895889A71
:1004F0000E94E40080E80E9449000E94B20083E06C
:100500000E94BA008CBFC0E0D0E0CE010E944F0034
:10051000888199810E943901F2CFAA1BBB1B51E14E
:1005200007C0AA1FBB1FA617B70710F0A61BB70B63
:10053000881F991F5A95A9F780959095BC01CD0108
:10054000089597FB072E16F4009407D077FD09D085
:100550000E948D0207FC05D03EF4909581959F4F37
:100560000895709561957F4F08950E94C9020C947B
:1005700013040E940C0458F00E94050440F029F472
:100580005F3F29F00C94EE0351110C9447040C9436
:1005900002040E94240468F39923B1F3552391F3D4
:1005A000951B550BBB27AA2762177307840738F0E2
:1005B0009F5F5F4F220F331F441FAA1FA9F335D03F
:1005C0000E2E3AF0E0E832D091505040E695001CF3
:1005D000CAF72BD0FE2F29D0660F771F881FBB1FAD
:1005E000261737074807AB07B0E809F0BB0B802D8B
:1005F000BF01FF2793585F4F3AF09E3F510578F0B7
:100600000C94EE030C9447045F3FE4F3983ED4F35C
:10061000869577956795B795F7959F5FC9F7880F8A
:10062000911D9695879597F90895E1E0660F771FDC
:10063000881FBB1F621773078407BA0720F0621B6D
:10064000730B840BBA0BEE1F88F7E09508950E9498
:100650002E036894B1110C94470408950E942C0451
:1006600088F09F5798F0B92F9927B751B0F0E1F073
:10067000660F771F881F991F1AF0BA95C9F714C023
:10068000B13091F00E944604B1E008950C94460404
:10069000672F782F8827B85F39F0B93FCCF386955C
:1006A00077956795B395D9F73EF4909580957095B9
:1006B00061957F4F8F4F9F4F0895E89409C097FB36
:1006C0003EF490958095709561957F4F8F4F9F4F29
:1006D0009923A9F0F92F96E9BB279395F69587956D
:1006E00077956795B795F111F8CFFAF4BB0F11F430
:1006F00060FF1BC06F5F7F4F8F4F9F4F16C08823D7
:1007000011F096E911C0772321F09EE8872F762F0C
:1007100005C0662371F096E8862F70E060E02AF04D
:100720009A95660F771F881FDAF7880F9695879539
:1007300097F908950E94050420F019F00E940C0416
:1007400050F40C9402040C944704E92F0E942404F2
:1007500088F35523B1F3E7FB621773078407950706
:10076000A8F189F3E92FFF2788232AF03197660F34
:10077000771F881FDAF7952F5527442332F09150C1
:100780005040220F331F441FD2F7BB27E91BF50B44
:10079000621B730B840BB109B1F222F4620F731F59
:1007A000841FB11D31972AF0660F771F881FBB1F6A
:1007B000EFCF9150504062F041F0882332F0660F45
:1007C000771F881F91505040C1F793950C94F40304
:1007D0008695779567959F5FD9F7F7CF97F99F67CC
:1007E00080E870E060E008959F3F31F0915020F480
:1007F000879577956795B795880F911D96958795FD
:1008000097F908959FEF80EC089500240A94161636
:10081000170618060906089500240A9412161306EE
:10082000140605060895092E0394000C11F488237C
:1008300052F0BB0F40F4BF2B11F460FF04C06F5F98
:100840007F4F8F4F9F4F089557FD9058440F551F6E
:1008500059F05F3F71F04795880F97FB991F61F042
:100860009F3F79F087950895121613061406551FB9
:10087000F2CF4695F1DF08C0161617061806991F25
:10088000F1CF86957105610508940895E894BB271A
:1008900066277727CB0197F908950E9460040C948E
:1008A00013040E94050438F00E940C0420F09523E4
:1008B00011F00C94EE030C94020411240C944704E0
:1008C0000E94240470F3959FC1F3950F50E0551FCB
:1008D000629FF001729FBB27F00DB11D639FAA2795
:1008E000F00DB11DAA1F649F6627B00DA11D661FE4
:1008F000829F2227B00DA11D621F739FB00DA11D05
:10090000621F839FA00D611D221F749F3327A00DBE
:10091000611D231F849F600D211D822F762F6A2F5A
:1009200011249F5750409AF0F1F088234AF0EE0FBF
:10093000FF1FBB1F661F771F881F91505040A9F7EC
:100940009E3F510580F00C94EE030C9447045F3FEA
:10095000E4F3983ED4F3869577956795B795F79528
:10096000E7959F5FC1F7FE2B880F911D96958795A0
:1009700097F90895CF93DF938230910510F482E0C8
:1009800090E0E0918000F091810020E030E0C0E054
:10099000D0E0309711F14081518148175907C0F0DC
:1009A0004817590761F482819381209719F09B833E
:1009B0008A832BC0909381008093800026C02115EC
:1009C000310519F04217530718F49A01BE01DF01EF
:1009D000EF010280F381E02DDCCF2115310509F113
:1009E000281B390B2430310590F412968D919C917F
:1009F00013976115710521F0FB019383828304C075
:100A00009093810080938000FD01329644C0FD01E7
:100A1000E20FF31F81939193225031092D933C9360
:100A20003AC020917E0030917F00232B41F4209129
:100A30007A0030917B0030937F0020937E002091DC
:100A40007800309179002115310541F42DB73EB77A
:100A500040917C0050917D00241B350BE0917E007D
:100A6000F0917F00E217F307A0F42E1B3F0B28172D
:100A7000390778F0AC014E5F5F4F2417350748F017
:100A80004E0F5F1F50937F0040937E0081939193A0
:100A900002C0E0E0F0E0CF01DF91CF9108950F9325
:100AA0001F93CF93DF93009709F48CC0FC0132971A
:100AB00013821282009180001091810001151105AE
:100AC00081F420813181820F931F20917E0030912B
:100AD0007F002817390779F5F0937F00E0937E00B7
:100AE00071C0D80140E050E0AE17BF0750F4129635
:100AF0002D913C911397AD012115310509F1D901D3
:100B0000F3CF9D01DA013383228360817181860FE7
:100B1000971F8217930769F4EC0128813981260F0A
:100B2000371F2E5F3F4F318320838A819B819383C0
:100B30008283452B29F4F0938100E093800042C02A
:100B40001396FC93EE931297ED01499159919E01F2
:100B5000240F351FE217F30771F480819181840F10
:100B6000951F029611969C938E9382819381139682
:100B70009C938E931297E0E0F0E0D80112968D914D
:100B80009C911397009719F0F8018C01F6CF8D9185
:100B90009C9198012E5F3F4F820F931F20917E0002
:100BA00030917F002817390769F4309729F41092A3
:100BB00081001092800002C01382128210937F0085
:100BC00000937E00DF91CF911F910F910895F894CB
:020BD000FFCF55
:100BD2003B00380035003200390036003300300067
:0E0BE2003A003700340031000000820020008D
:00000001FF
