:100000000C942A000C9447000C9447000C94470071
:100010000C9447000C9447000C9447000C94660421
:100020000C9447000C9447000C9447000C94470034
:100030000C9447000C9447000C9447000C94470024
:100040000C9447000C9447000C9447000C94470014
:100050000C94470011241FBECFE5D8E0DEBFCDBF12
:1000600010E0A0E6B0E0ECE7F7E102C005900D92E9
:10007000A836B107D9F723E0A8E6B0E001C01D9289
:10008000A135B207E1F70E94550B0C94BC0B0C9400
:100090000000CF93DF931F92CDB7DEB7D09A11E067
:1000A00020E042E350E0BE016F5F7F4F80914F033D
:1000B000909150030E940806898190E00E944D0BA8
:1000C0008BB381278BBB8CED95E00E940F0AE8CFA4
:1000D000CF93DF931F92CDB7DEB781E68983D09AA5
:1000E00011E020E040E050E0BE016F5F7F4F809163
:1000F0004F03909150030E944C058BB381278BBB1B
:1001000080ED97E00E940F0AECCFCF92DF92EF9242
:10011000FF921F93CF93DF936C01162FF42E8AE189
:1001200090E00E944B02EC01892B09F457C08091AA
:10013000680090916900892B21F5D0936900C093E4
:10014000680080E990E00E94800289E990E00E94C6
:10015000800287E890E00E9480028EE790E00E9493
:10016000800281E790E00E94800287E890E090930F
:100170007D0080937C008EE790E090937B008093DD
:100180007A00111111E0198E188E1E8BFF8AFE0164
:10019000C192D1927F01CF010E948E02CE010C96B6
:1001A0000E948E02D987C887DB8BCA8B83E090E0E0
:1001B000811B91099D878C879E898091700089178A
:1001C00010F490937000F9E09F9FC0011124B701D3
:1001D00080579F4F0E94920281E001C08FEFDF9114
:1001E000CF911F91FF90EF90DF90CF9008950F93E4
:1001F0001F93CF93DF938B01C0916E00D0916F005E
:10020000C80FD91F809168009091690002960E94E2
:10021000EC02E0916800F0916900D383C283809181
:100220006E0090916F00BF016E5F7F4FC817D907B6
:1002300028F480917A0090917B0004C080917C002A
:1002400090917D000E94B5020115110569F0609141
:10025000680070916900645F7F4FC801DF91CF91A2
:100260001F910F910C94B502DF91CF911F910F91C7
:100270000895FF920F931F93CF93DF9399E0F92E88
:1002800080917100882311F1F894E0917600F0914B
:100290007700C681D781CE010C960E94EC0278943B
:1002A0008E010E5F1F4FC8010E94EC029E89809153
:1002B0007000891710F490937000F99EC00111240A
:1002C000B80180579F4F0E949202DACF0E94AF0878
:1002D00020916C0030916D00821B930B90936B000A
:1002E00080936A0089E0F82E20916A0030916B00BB
:1002F00080916E0090916F002115310509F454C072
:10030000019690936F0080936E00215031093093D5
:100310006B0020936A00892B09F03EC080917C001D
:1003200090917D0020917A0030917B0030937D0088
:1003300020937C0090937B0080937A002DC00580F1
:10034000F681E02DC681D78120916E0030916F003B
:100350008A819B812817390738F2F8948E010E5F45
:100360001F4FC8010E94EC028C899D89892B21F0C6
:10037000CE010C960E94EC0278949E8980917000C8
:10038000891710F490937000F99EC0011124B801F0
:1003900080579F4F0E949202E0917C00F0917D0077
:1003A00080818111CCCFA0CF90936D0080936C00A1
:1003B0008091700069E0482F50E0649F9001659F34
:1003C000300D1124F901E057FF4F908191110CC0BD
:1003D000811108C010927000DF91CF911F910F9191
:1003E000FF9008958150E7CF80937000A181B28182
:1003F00012960D90BC91A02DB283A1832D563F4F34
:10040000A217B30731F412968D919C9113979283A2
:10041000818389E0849FF001859FF00D1124E057CE
:10042000FF4F0180F281E02D8681978190936900D2
:1004300080936800DC01ED91FC91119757966C91C7
:10044000DF91CF911F910F91FF9009940F931F930C
:10045000CF93DF93DC011596ED91FC911697C68141
:10046000D7818E01045F1F4FC8010E94EC02B801C2
:1004700081E790E00E949202E0916800F0916900AB
:1004800081E02E899689291708F480E0DF91CF91C9
:100490001F910F9108950F931F93CF93DF938C01BA
:1004A0000E94A908C091A200D091A300C8018C0F9E
:1004B0009D1F883522E0920750F4C817D90738F4F9
:1004C000CC55DF4F9093A3008093A20002C0C0E000
:1004D000D0E00E946009CE01DF91CF911F910F9172
:1004E000089508951092A3001092A20008952091FB
:1004F000A2003091A30088E592E0821B930B08953F
:10050000FC010396928381832FEF3FEF3483238393
:10051000968385839087878310820895FC011186D6
:1005200010860895CF93DF93DC01FB0111962D9186
:100530003C911297E9018A819B8193838283358361
:1005400024838A819B81EC017D836C83E9017B8319
:100550006A8312967C936E931197B187A0878C91D2
:100560008F5F8C93DF91CF910895CF93DF93AC0190
:10057000DB018D919C9111978F3F2FEF920721F412
:10058000EA01EF81F8850EC0FA01339622813381AA
:10059000E901288139818217930720F00280F381D5
:1005A000E02DF4CF8281938113969C938E931297C2
:1005B000EC01BD83AC831596FC93EE931497B38343
:1005C000A28319965C934E931897FA0180818F5FEE
:1005D0008083DF91CF910895CF93DF93FC01A281B7
:1005E000B3818481958115969C938E931497C481D1
:1005F000D581BB83AA83A085B18511968D919C91ED
:1006000012978E179F0721F41296DC93CE931197C1
:10061000118610868C9181508C93DF91CF91089533
:1006200031E1FC013083319722E220833197A3E34B
:10063000A08331976083319770833197108231970F
:1006400060E8608331971082319762E06083319770
:1006500063E06083319764E06083319765E0608395
:10066000319766E06083319767E06083319768E097
:100670006083319769E06083319760E160833197EF
:100680003083319732E13083319733E130833197D2
:1006900034E13083319735E13083319736E130836F
:1006A000319737E13083319738E13083319739E141
:1006B0003083319730E23083319731E230833197A4
:1006C0002083319723E220833197408331975083F1
:1006D000319726E22083319727E22083319728E261
:1006E0002083319729E22083319720E320833197BB
:1006F00021E32083869708951BBC8AEB8ABD8BE09B
:100700008EBD89B7806189BFA091FC02B091FD02C6
:10071000CD91CDBFDD91DEBFFF91EF91DF91CF9104
:10072000BF91AF919F918F917F916F915F914F9109
:100730003F912F911F910F91FF90EF90DF90CF90FD
:10074000BF90AF909F908F907F906F905F904F90F1
:100750003F902F901F900F900FBE0F90089581E053
:10076000089508950F920FB6F8940F921F921124D6
:100770002F923F924F925F926F927F928F929F92B1
:10078000AF92BF92CF92DF92EF92FF920F931F939F
:100790002F933F934F935F936F937F938F939F9389
:1007A000AF93BF93CF93DF93EF93FF93A091FC029E
:1007B000B091FD020DB60D920EB60D920E945D0A2B
:1007C000A091FC02B091FD02CD91CDBFDD91DEBFC5
:1007D000FF91EF91DF91CF91BF91AF919F918F9159
:1007E0007F916F915F914F913F912F911F910F9149
:1007F000FF90EF90DF90CF90BF90AF909F908F9041
:100800007F906F905F904F903F902F901F900F9030
:100810000FBE0F9008950F920FB6F8940F921F928B
:1008200011242F923F924F925F926F927F928F92FC
:100830009F92AF92BF92CF92DF92EF92FF920F936F
:100840001F932F933F934F935F936F937F938F9358
:100850009F93AF93BF93CF93DF93EF93FF93A091B9
:10086000FC02B091FD020DB60D920EB60D920E94E3
:10087000C1080E945D0AA091FC02B091FD02CD91D9
:10088000CDBFDD91DEBFFF91EF91DF91CF91BF91A1
:10089000AF919F918F917F916F915F914F913F9118
:1008A0002F911F910F91FF90EF90DF90CF90BF900D
:1008B000AF909F908F907F906F905F904F903F9000
:1008C0002F901F900F900FBE0F9008950E940B0461
:1008D0001895CF93DF93EC01942F8C8D882399F199
:1008E000482F50E0911115C08C819D810E949D0B75
:1008F0002C8D8C819D81820F911D9D838C832A81FB
:100900003B8182179307F8F0888199819D838C83BE
:100910001AC08E819F810E949D0B8C8D90E09195D5
:10092000819591092E813F81280F391F3F832E83A6
:10093000488159812417350730F42A813B81820F81
:10094000931F9F838E838A8D8F5F8A8FDF91CF91D4
:100950000895FC01CB01A081B181109799F0448DDD
:1009600050E026813781240F351F3783268362812B
:1009700073812617370710F0B783A68366817781C6
:100980000C949D0B08950F931F93CF93DF93EC016D
:100990000FB6F8940F928C010F5E1F4F9E8D1916A3
:1009A0006CF48989882351F0C8010E94C40A81111E
:1009B0000E943F0B9E8D91509E8FF0CF8FEF8E8FB8
:1009C0000F900FBE0FB6F8940F928E01085F1F4F65
:1009D0009D8D19166CF48885882351F0C8010E94FA
:1009E000C40A81110E943F0B9D8D91509D8FF0CFC5
:1009F0008FEF8D8F0F900FBEDF91CF911F910F91D1
:100A00000895CF92DF92EF92FF920F931F93CF93AF
:100A1000DF938823A9F1F62EE82E8FE190E00E9463
:100A20004B02EC01892B61F1CF2CD12CEF9C800182
:100A30001124C80101960E944B0299838883009774
:100A4000E1F09C01200F311F3B832A831A8E9D8386
:100A50008C830C191D09080F191F1F830E83EB8E41
:100A6000FC8E8FEF8D8F8E8FCE0108960E948002B4
:100A7000CE0141960E94800205C0CE010E94710203
:100A8000C0E0D0E0CE01DF91CF911F910F91FF9098
:100A9000EF90DF90CF900895AF92BF92DF92EF92E8
:100AA000FF920F931F93CF93DF9300D000D01F923C
:100AB000CDB7DEB78C017B015D834C83D22E90E0F5
:100AC000580188E0A80EB11C0FB6F8940F92F801F7
:100AD000228D838D2817A8F44D2DB701C8010E94DF
:100AE0006904F8018189882341F0C80141960E9478
:100AF000C40A813011F40E94B2030F900FBE81E04E
:100B000050C02C813D81232B19F40F900FBE48C09B
:100B1000911104C0CE0101960E94010B0F900FBEEF
:100B20000E94A9080FB6F8940F92F801858D8F3FA7
:100B300009F4158EF801868D8F3F09F4168E0F90FB
:100B40000FBEBE016C5F7F4FCE0101960E940C0B61
:100B5000811121C00FB6F8940F92F801928D0F9079
:100B60000FBE838D981311C06C817D81C5010E94D9
:100B7000A70AC8010E94C3040E946009882311F0DB
:100B800091E0A2CF0E94B203FBCFC8010E94C30430
:100B90000E946009F5CFC8010E94C3040E94600949
:100BA00080E00F900F900F900F900F90DF91CF91FA
:100BB0001F910F91FF90EF90DF90BF90AF9008953D
:100BC0000F931F93CF93DF93EC019A8D8B8D981722
:100BD000C8F48A01422FCE010E9469048E8D8F3F96
:100BE00069F48989882361F0CE0141960E94C40A84
:100BF000882331F081E0F801808305C08F5F8E8FFC
:100C000081E001C080E0DF91CF911F910F910895A5
:100C1000AF92BF92DF92EF92FF920F931F93CF9309
:100C2000DF9300D000D01F92CDB7DEB78C017B01DF
:100C30005D834C83D22E90E0580181E1A80EB11C57
:100C40000FB6F8940F92F801828D882339F1A680AF
:100C5000B780B701C8010E94A904F801D1100FC0E4
:100C6000828D8150828F80858823A1F0C8010896EB
:100C70000E94C40A813071F40E94B2030BC0B78293
:100C8000A6828189882331F0C80141960E94C40A56
:100C90008111F2CF0F900FBE81E04FC02C813D81BA
:100CA000232B19F40F900FBE47C0911104C0CE0141
:100CB00001960E94010B0F900FBE0E94A9080FB66B
:100CC000F8940F92F801858D8F3F09F4158EF80185
:100CD000868D8F3F09F4168E0F900FBEBE016C5F9C
:100CE0007F4FCE0101960E940C0B811120C00FB6E0
:100CF000F8940F92F801828D0F900FBE811111C0F0
:100D00006C817D81C5010E94A70AC8010E94C304AD
:100D10000E946009882311F091E092CF0E94B203F3
:100D2000FBCFC8010E94C3040E946009F5CFC8012F
:100D30000E94C3040E94600980E00F900F900F9002
:100D40000F900F90DF91CF911F910F91FF90EF9037
:100D5000DF90BF90AF9008950F931F93CF93DF93D1
:100D6000FC01228D2223D9F08A01EC010E94A90402
:100D70008A8D81508A8F8D8D8F3F69F48885882375
:100D800061F0CE0108960E94C40A882331F081E008
:100D9000F801808305C08F5F8D8F81E001C080E006
:100DA000DF91CF911F910F9108950FB6F8940F9294
:100DB000FC01828D0F900FBE0895FC01828D089575
:100DC000CF93DF93EC01888199810E947102CE015B
:100DD000DF91CF910C947102FC01928D81E0911111
:100DE00080E00895FC01228D81E0938D291380E03D
:100DF0000895CF93DF93E091FC02F091FD0293837D
:100E0000828320910603309107038217930770F4C1
:100E10006091FC027091FD0280911C0390911D0372
:100E20006E5F7F4FDF91CF910C94B502EC01609122
:100E3000FC027091FD0280911E0390911F036E5F72
:100E40007F4F0E94B5028091600090916100C817A9
:100E5000D90720F4D0936100C0936000DF91CF9157
:100E600008954F925F926F927F928F929F92AF926E
:100E7000BF92CF92DF92EF92FF920F931F93CF9387
:100E8000DF935C013B01EA01490181E290E00E94AD
:100E90004B022C01892B09F4C8C0C114D10421F4E0
:100EA000CE010E944B0201C0C601F201908F878BD8
:100EB000009721F4C2010E947102B7C0AE0165EA39
:100EC00070E00E94A60B2197F201C788D08CCC0E4F
:100ED000DD1E48E050E0B301C20149960E94AD0B0F
:100EE000F20110A2102F033008F012E0F201168B6D
:100EF000E2012296CE010E948E02C2010C960E944F
:100F00008E02F2015186408683E090E0811B9109B8
:100F100095878487538A428AA401B501C6010E943D
:100F20001003F20191838083E114F10419F0F701B9
:100F3000518240820FB6F8940F92809108038F5F20
:100F4000809308038091FC029091FD02892B89F522
:100F50005092FD024092FC02809108038130C1F55D
:100F600082E393E00E9480028BE393E00E94800280
:100F700084E493E00E94800289E293E00E94800270
:100F800080E293E00E94800283E193E00E9480026D
:100F90008AE093E00E94800289E293E090931F032D
:100FA00080931E0380E293E090931D0380931C03C3
:100FB0000FC08091030381110BC0E091FC02F091FE
:100FC000FD028689081720F05092FD024092FC0233
:100FD000F201868990910503981710F48093050318
:100FE0009091FE029F5F9093FE02909104039817E8
:100FF00010F480930403F9E08F9FC0011124BE0117
:101000008E5C9C4F0E9492020F900FBE8091030352
:10101000882349F0E091FC02F091FD028689801757
:1010200010F40E94B20381E001C08FEFDF91CF91F5
:101030001F910F91FF90EF90DF90CF90BF90AF90F6
:101040009F908F907F906F905F904F900895EF9258
:10105000FF920F931F93CF93DF93EC010FB6F89499
:101060000F928091FC029091FD02C817D90711F0F0
:10107000209739F40091FC021091FD02C0E0D0E00D
:1010800001C08E01780182E0E80EF11CC7010E94C8
:10109000EC02F80184899589892B21F0C8010C960E
:1010A0000E94EC02B7018AE093E00E9492028091D4
:1010B00009038F5F809309038091FE028F5F809305
:1010C000FE020F900FBE80910303882321F0CD2BE9
:1010D00011F40E94B203DF91CF911F910F91FF9005
:1010E000EF900895AF92BF92CF92DF92EF92FF926E
:1010F0000F93A12CB12CC12CD12CE12CF12C00E0B0
:1011000020E030E045E550E062E670E080E39AE000
:101110000E943107813081F4F89480930303109288
:101120000703109206030F91FF90EF90DF90CF908E
:10113000BF90AF900C947C030F91FF90EF90DF90E5
:10114000CF90BF90AF900895F894109203030C9441
:10115000B103809102038F5F8093020308950FB65D
:10116000F8940F9280910603909107030F900FBEA1
:1011700008958091060390910703089580910803D4
:101180000895FF920F931F93CF93DF9380910203F3
:1011900081118BC080910603909107030196909373
:1011A0000703809306038091060390910703892B20
:1011B00079F580911E0390911F0320911C033091BB
:1011C0001D0330931F0320931E0390931D038093F0
:1011D0001C038091FF028F5F8093FF02E0911E034A
:1011E000F0911F038081811103C08FEF9FEF0CC02E
:1011F000E0911E03F0911F030580F681E02D06802B
:10120000F781E02D8281938190936100809360004B
:101210002091060330910703809160009091610056
:101220002817390708F446C089E0F82EE0911E031C
:10123000F0911F038081811103C08FEF9FEF12C0D7
:10124000E0911E03F0911F030580F681E02DC68119
:10125000D7818A819B81209106033091070328174B
:10126000390728F4909361008093600023C08E01B9
:101270000E5F1F4FC8010E94EC028C899D89892B4B
:1012800021F0CE010C960E94EC029E89809104030D
:10129000891710F490930403F99EC0011124B8013A
:1012A0008E5C9C4F0E949202C1CF809101038F5FA0
:1012B00080930103DF91CF911F910F91FF900895CB
:1012C000EF92FF920F931F93CF93DF930FB6F89493
:1012D0000F92809102038150809302038091020358
:1012E000882311F080E052C0809108038823D1F355
:1012F00010E009E080911303882351F1E091180375
:10130000F0911903C681D781CE010C960E94EC02A0
:101310007E0182E0E80EF11CC7010E94EC029E896A
:1013200080910403891710F490930403099FC0016E
:101330001124B7018E5C9C4F0E949202E091FC0246
:10134000F091FD029E8986899817A0F211E0D2CF14
:1013500080910103882361F080910103882351F07B
:101360000E94C10880910103815080930103F4CF52
:10137000113031F4109200030E94B20381E006C0E4
:1013800080910003813009F0ADCFF4CF0F900FBEF4
:10139000DF91CF911F910F91FF90EF9008950F93E0
:1013A0001F93CF93DF938C01EB010E94A908F801F2
:1013B00020813181C20FD31F8091060390910703D2
:1013C0008217930720F4C217D30760F403C0C21733
:1013D000D30750F0209106033091070391E02C17BA
:1013E0003D0718F090E001C091E0F801D183C0837F
:1013F000992351F08091FC029091FD0202960E9487
:10140000EC02CE010E94F9060E946009811102C01F
:101410000E94B203DF91CF911F910F910895CF9356
:10142000DF93EC01892B19F40E94B20316C00E94CD
:10143000A9082091060330910703C20FD31F8091A2
:10144000FC029091FD0202960E94EC02CE010E94E5
:10145000F9060E946009882339F3DF91CF9108953E
:10146000809109038823E1F30E94A908C0910A032F
:101470000E946009CC23A1F30FB6F8940F92E0917B
:101480000F03F0911003C681D781CE0102960E940E
:10149000EC02809108038150809308038091090336
:1014A0008150809309030F900FBE8F89988D0E9401
:1014B0007102CE010E947102D3CF80910203882372
:1014C00021F081E080930003089599E0E091040306
:1014D0009E9FF0011124EE5CFC4F8081811106C0BB
:1014E00080910403815080930403F0CF8091040322
:1014F00090E049E0489F9001499F300D1124F90187
:10150000EE5CFC4FA181B28112960D90BC91A02D92
:10151000B283A1832B5C3C4FA217B30731F4129620
:101520002D913C9113973283218329E0289FF0016C
:10153000299FF00D1124EE5CFC4F0180F281E02D1B
:10154000868197819093FD028093FC020895CF934A
:10155000DF93EB012091FC023091FD02B901645F41
:101560007F4F0E94B5028091FC029091FD0202968D
:101570000E94EC0280910603909107038C0F9D1F3F
:10158000DF91CF910C94F9060F931F93CF93DF93C4
:10159000DC011596ED91FC911697C681D7818E01DD
:1015A000045F1F4FC8010E94EC0280910203811169
:1015B00014C00A501109C8010E94EC029E89809152
:1015C0000403891710F490930403B9E09B9FC001B2
:1015D0001124B8018E5C9C4F03C0B80183E193E0F5
:1015E0000E949202E091FC02F091FD0281E02E89BE
:1015F0009689291708F480E0DF91CF911F910F9110
:1016000008952091FF02FC01208320910603309170
:1016100007033283218308950FB6F8940F92309117
:10162000FF02DC012C911196ED91FC91129732177B
:1016300039F020910603309107032E173F07D8F4A5
:101640004091060350910703DB012D913C911197C6
:101650004E1B5F0B4217530770F4409106035091E5
:1016600007034E1B5F0B241B350B2D933C930E94ED
:10167000010B80E001C081E00F900FBE089581E072
:10168000809300030895899A889883E389B910BCF0
:1016900086E880BD88E18AB908955D9BFECF8CB94C
:1016A00008955F9BFECF8CB10895AF92BF92CF9209
:1016B000DF92EF92FF920F930E94430B61E085E06F
:1016C0000E9401059093500380934F03A12CB12CED
:1016D000C12CD12CE12CF12C02E020E030E045E5DA
:1016E00050E060E070E089E490E00E94310703E0A0
:1016F00020E030E045E550E060E070E088E690E012
:101700000E94310760E081E00E94010590934E0342
:1017100080934D03009739F020E040E050E060E016
:1017200070E00E944C050E9472080F91FF90EF90AC
:10173000DF90CF90BF90AF900895FB01DC0102C015
:1017400001900D9241505040D8F70895DC0101C03E
:101750006D9341505040E0F70895FB01DC0141508A
:10176000504048F001900D920020C9F701C01D9231
:0C17700041505040E0F70895F894FFCF7E
:08177C00FFFF49444C45000049
:00000001FF
