:100000000C94A7000C94E3000C94C4000C94C4005E
:100010000C94C4000C94C4000C94C4000C94C40050
:100020000C94C4000C94C4000C94C4000C94C40040
:100030000C94C4000C94C4000C94C4000C94C40030
:100040000C94C4000C94C4000C94C4000C94C40020
:100050000C94C40000407A10F35A00A0724E1809A4
:100060000010A5D4E80000E87648170000E40B541F
:10007000020000CA9A3B000000E1F50500008096EE
:100080009800000040420F000000A0860100000020
:10009000102700000000E8030000000064000000DA
:1000A00000000A00000000000100000000002C76A3
:1000B000D888DC674F0823DFC1DFAE59E1B1B796BE
:1000C000E5E3E453C63AE651997696E8E6C284261B
:1000D000EB898C9B62ED407C6FFCEFBC9C9F40F2F7
:1000E000BAA56FA5F490055A2AF75C936B6CF96773
:1000F0006DC11BFCE0E40D47FEF520E6B500D0ED38
:10010000902E0300943577050080841E080000209F
:100110004E0A000000C80C333333330F986E12833D
:100120001141EF8D2114893BE65516CFFEE6DB1811
:10013000D1844B381BF77C1D901DA4BBE4242032D6
:1001400084725E228100C9F124ECA1E53D271124CF
:100150001FBECFE5D8E0DEBFCDBF10E0A0E6B0E027
:10016000E8EEF6E102C005900D92AA38B107D9F782
:1001700020E0AAE8B0E001C01D92AC3BB207E1F775
:100180000E94E9020C94720B0C940000BB9A93B786
:10019000996693BF8CBF0895882319F0813039F098
:1001A000089584B7826084BF84B78E7F02C084B70D
:1001B000836084BF08958BB780648BBF08958EB52C
:1001C00081608EBD08951F920F920FB60F92112479
:1001D0008F939F9380918F00811104C01DBC1CBC24
:1001E00081E00BC080918F00813049F48CB59DB5C2
:1001F00090938C0080938B0082E080938F009F917E
:100200008F910F900FBE0F901F901895379A329ACA
:10021000319A309A3F983E9A3D98089597B1907ED2
:1002200097B997B18770982B97B9369A349BFECFC0
:10023000349A84B195B10895682F82E00E94BB0280
:1002400061E080E00E94BB028FEC97E00197F1F73C
:1002500000C0000060E080E00E94BB029FE728E34E
:1002600081E0915020408040E1F700C000000895F7
:100270006FEF82E00E94AB0267E080E00E94AB0279
:1002800088E30E941C018FEC97E00197F1F700C012
:10029000000081E00E941C018FEC97E00197F1F7CC
:1002A00000C000008EE00E941C018FEC97E00197D7
:1002B000F1F700C0000080E80E941C018FEC97E07D
:1002C0000197F1F700C000000895682F82E00E94B6
:1002D000BB0265E080E00E94BB028FEC97E00197D3
:1002E000F1F700C0000064E080E00E94BB029FE7DD
:1002F00028E381E0915020408040E1F700C00000F9
:100300000895CF93DF93EC018991882319F00E941F
:100310006501FACFDF91CF910895EF92FF920F938D
:100320001F93CF93DF93182F092F682F792FC0E0E9
:10033000D0E0EAE0F0E0CE0101961616170634F49C
:10034000EC01CB01BF010E944003F5CF0E940705DD
:10035000FC019E018AE0E82EF12C2150310937FD85
:100360000DC0812F902FB7010E942C03162F072F4D
:10037000DF01A20FB31F805D8C93EFCFCE0FDF1F85
:100380001882CF01DF91CF911F910F91FF90EF90D5
:100390000C948101CF92DF92EF92FF926B017C016E
:1003A0000E945403CB010E948D018EE20E946501E0
:1003B00020E030E040E85FE3C701B6010E94D203CD
:1003C00020E030E048EC52E40E9463040E945403B1
:1003D000CB01FF90EF90DF90CF900C948D010F93A5
:1003E0001F93CF93DF93883080F48B01880F880FA1
:1003F000880F805C0E941C01E801085F1F4F8991F3
:100400000E946501C017D107D1F7DF91CF911F91ED
:100410000F910895803148F4611102C0805803C0E3
:10042000613019F481540C941C0108950F931F93AB
:10043000CF93DF9300D000D000D0CDB7DEB710E06F
:100440002AE030E0009771F0E1E0F0E0EC0FFD1FF2
:10045000E10FF11DB9010E942C03805D8083CB0167
:100460001F5FF0CF0FEF010F011788F4E1E0F0E01C
:10047000EC0FFD1FE00FF11D80810E9465018FE9E7
:100480009FE00197F1F700C000000150EDCF2696E4
:100490000FB6F894DEBF0FBECDBFDF91CF911F9195
:1004A0000F9108958430D8F46830C8F490E0880F34
:1004B000991FFC01E05AFF4F0190F081E02D20814F
:1004C00081E090E001C0880F6A95EAF7413011F4AD
:1004D000822B02C080958223808380E008958FEF75
:1004E00008958430B8F46830A8F4E82FF0E0EE0FF7
:1004F000FF1FE859FF4F0190F081E02D808190E0CF
:1005000002C0959587956A95E2F78170FA0180831C
:1005100080E008958FEF08958430D8F46830C8F4EF
:1005200090E0880F991FFC01E059FF4F0190F08186
:10053000E02D208181E090E001C0880F6A95EAF704
:10054000413011F4822B02C080958223808380E0A9
:1005500008958FEF0895843060F4E82FF0E0EE0FF7
:10056000FF1FE059FF4F0190F081E02D608380E094
:1005700008958FEF0895843060F4E82FF0E0EE0FD7
:10058000FF1FE05AFF4F0190F081E02D608380E073
:1005900008958FEF0895899A889883E389B910BCEC
:1005A00086E880BD88E18AB908955D9BFECF8CB94D
:1005B00008955F9BFECF8CB10895CF93DF93EC013C
:1005C0008991882319F00E94D502FACFDF91CF914B
:1005D0000895889A8A980E94CB020E9406010E9480
:1005E000DB0081E00E94CC0082E30E94C6000E94F2
:1005F000DF0078948EE7E82E80E0F82EC4EAD0E0A1
:1006000080918F008230E1F7F89410928E00609113
:100610008B0070918C0080E090E00E948A0300E9DA
:1006200010E022E030E045E050E00E94E704C8011D
:100630009F930F93FF92EF92DF93CF930E94340624
:1006400084EA90E00E94DD0278940F900F900F9062
:100650000F900F900F90D4CFAA1BBB1B51E107C086
:10066000AA1FBB1FA617B70710F0A61BB70B881F42
:10067000991F5A95A9F780959095BC01CD010895D1
:1006800097FB072E16F4009407D077FD09D00E943F
:100690002C0307FC05D03EF4909581959F4F08955B
:1006A000709561957F4F08950E945B036894B11126
:1006B0000C945D0408950E94420488F09F5798F0BE
:1006C000B92F9927B751B0F0E1F0660F771F881F57
:1006D000991F1AF0BA95C9F714C0B13091F00E9471
:1006E0005C04B1E008950C945C04672F782F882790
:1006F000B85F39F0B93FCCF3869577956795B39598
:10070000D9F73EF490958095709561957F4F8F4F06
:100710009F4F0895E89409C097FB3EF4909580950B
:10072000709561957F4F8F4F9F4F9923A9F0F92FB7
:1007300096E9BB279395F695879577956795B79535
:10074000F111F8CFFAF4BB0F11F460FF1BC06F5F1B
:100750007F4F8F4F9F4F16C0882311F096E911C02D
:10076000772321F09EE8872F762F05C0662371F04E
:1007700096E8862F70E060E02AF09A95660F771F62
:10078000881FDAF7880F9695879597F908950E9444
:100790002C0420F019F00E94330450F40C94290426
:1007A0000C945D04E92F0E943A0488F35523B1F3B9
:1007B000E7FB6217730784079507A8F189F3E92F10
:1007C000FF2788232AF03197660F771F881FDAF7F3
:1007D000952F5527442332F091505040220F331F5C
:1007E000441FD2F7BB27E91BF50B621B730B840B6D
:1007F000B109B1F222F4620F731F841FB11D31974A
:100800002AF0660F771F881FBB1FEFCF9150504013
:1008100062F041F0882332F0660F771F881F9150F5
:100820005040C1F793950C941B0486957795679576
:100830009F5FD9F7F7CF9F3F31F0915020F4879514
:1008400077956795B795880F911D9695879597F938
:1008500008959FEF80EC089500240A941616170659
:1008600018060906089500240A94121613061406A1
:100870000506089557FD9058440F551F59F05F3FE6
:1008800071F04795880F97FB991F61F09F3F79F0B2
:1008900087950895121613061406551FF2CF469534
:1008A000F1DF08C0161617061806991FF1CF8695B6
:1008B0007105610508940895E894BB27662777279A
:1008C000CB0197F908950E9476040C94D6040E94F7
:1008D0002C0438F00E94330420F0952311F00C947E
:1008E000D0040C94290411240C945D040E943A0451
:1008F00070F3959FC1F3950F50E0551F629FF00173
:10090000729FBB27F00DB11D639FAA27F00DB11D8B
:10091000AA1F649F6627B00DA11D661F829F222714
:10092000B00DA11D621F739FB00DA11D621F839F9B
:10093000A00D611D221F749F3327A00D611D231F71
:10094000849F600D211D822F762F6A2F11249F57BF
:1009500050409AF0F1F088234AF0EE0FFF1FBB1FC2
:10096000661F771F881F91505040A9F79E3F510581
:1009700080F00C94D0040C945D045F3FE4F3983E47
:10098000D4F3869577956795B795F795E7959F5F2B
:10099000C1F7FE2B880F911D9695879597F90895BD
:1009A00097F99F6780E870E060E00895092E03944E
:1009B000000C11F4882352F0BB0F40F4BF2B11F44C
:1009C00060FF04C06F5F7F4F8F4F9F4F0895EF927E
:1009D0000F931F93CF93DF93E80147FD02C034E0EC
:1009E00001C034E1E42F440FFF0BF7FF03C0F19582
:1009F000E195F109E32E022F2E2FAE010E94290866
:100A0000CE01DF91CF911F910F91EF900895CF9379
:100A1000DF938230910510F482E090E0E091BA001B
:100A2000F091BB0020E030E0C0E0D0E0309711F161
:100A30004081518148175907C0F04817590761F4A0
:100A400082819381209719F09B838A832BC0909396
:100A5000BB008093BA0026C02115310519F042175A
:100A6000530718F49A01BE01DF01EF010280F38100
:100A7000E02DDCCF2115310509F1281B390B24307D
:100A8000310590F412968D919C9113976115710523
:100A900021F0FB019383828304C09093BB00809379
:100AA000BA00FD01329644C0FD01E20FF31F8193AD
:100AB0009193225031092D933C933AC02091B80074
:100AC0003091B900232B41F420917A0030917B00C2
:100AD0003093B9002093B8002091780030917900CC
:100AE0002115310541F42DB73EB740917C0050915E
:100AF0007D00241B350BE091B800F091B900E2179E
:100B0000F307A0F42E1B3F0B2817390778F0AC0130
:100B10004E5F5F4F2417350748F04E0F5F1F50930D
:100B2000B9004093B8008193919302C0E0E0F0E0F7
:100B3000CF01DF91CF9108950F931F93CF93DF9350
:100B4000009709F48CC0FC01329713821282009145
:100B5000BA001091BB000115110581F4208131818B
:100B6000820F931F2091B8003091B90028173907E0
:100B700079F5F093B900E093B80071C0D80140E076
:100B800050E0AE17BF0750F412962D913C91139789
:100B9000AD012115310509F1D901F3CF9D01DA012C
:100BA0003383228360817181860F971F8217930799
:100BB00069F4EC0128813981260F371F2E5F3F4FE2
:100BC000318320838A819B8193838283452B29F4FF
:100BD000F093BB00E093BA0042C01396FC93EE93EF
:100BE0001297ED01499159919E01240F351FE2178B
:100BF000F30771F480819181840F951F02961196FD
:100C00009C938E938281938113969C938E931297DB
:100C1000E0E0F0E0D80112968D919C911397009737
:100C200019F0F8018C01F6CF8D919C9198012E5FFF
:100C30003F4F820F931F2091B8003091B9002817C1
:100C4000390769F4309729F41092BB001092BA006A
:100C500002C0138212821093B9000093B800DF9192
:100C6000CF911F910F910895AEE0B0E0EAE3F6E076
:100C70000C94490B0D891E8986E08C831A830983A5
:100C80008FEF9FE79E838D83AE01475E5F4F6F8935
:100C9000788DCE0101960E9457062F813885F80184
:100CA000E20FF31F10822E96E4E00C94650BACE08B
:100CB000B0E0EDE5F6E00C943B0B7C016B018A01A2
:100CC000FC0117821682838181FFBDC1CE0101968E
:100CD0004C01F7019381F60193FD859193FF81917A
:100CE0006F01882309F4ABC1853239F493FD8591F6
:100CF00093FF81916F01853229F4B70190E00E9442
:100D0000A50AE7CF512C312C20E02032A0F48B3201
:100D100069F030F4803259F0833269F420612CC0DC
:100D20008D3239F0803339F4216026C0226024608E
:100D300023C0286021C027FD27C030ED380F3A308E
:100D400078F426FF06C0FAE05F9E300D1124532E82
:100D500013C08AE0389E300D1124332E20620CC05F
:100D60008E3221F426FD6BC1206406C08C3611F44E
:100D7000206802C0883641F4F60193FD859193FF07
:100D800081916F018111C1CF982F9F7D9554933030
:100D900028F40C5F1F4FFFE3F9830DC0833631F059
:100DA000833771F0833509F05BC022C0F801808180
:100DB00089830E5F1F4F44244394512C540115C066
:100DC0003801F2E06F0E711CF801A080B18026FF9F
:100DD00003C0652D70E002C06FEF7FEFC5012C8767
:100DE0000E949A0A2C0183012C852F77222E17C08E
:100DF0003801F2E06F0E711CF801A080B18026FF6F
:100E000003C0652D70E002C06FEF7FEFC5012C8736
:100E10000E948F0A2C012C852068222E830123FC3E
:100E20001BC0832D90E048165906B0F4B70180E24C
:100E300090E00E94A50A3A94F4CFF50127FC859131
:100E400027FE81915F01B70190E00E94A50A311051
:100E50003A94F1E04F1A51084114510471F7E5C07A
:100E6000843611F0893639F5F80127FF07C0608113
:100E70007181828193810C5F1F4F08C060817181F5
:100E8000072E000C880B990B0E5F1F4F2F76722ECA
:100E900097FF09C090958095709561957F4F8F4F12
:100EA0009F4F2068722E2AE030E0A4010E94DD0AE4
:100EB000A82EA81844C0853729F42F7EB22E2AE028
:100EC00030E025C0F22FF97FBF2E8F36C1F018F425
:100ED000883579F0B4C0803719F0883721F0AFC079
:100EE0002F2F2061B22EB4FE0DC08B2D8460B82E42
:100EF00009C024FF0AC09F2F9660B92E06C028E0C3
:100F000030E005C020E130E002C020E132E0F8012D
:100F1000B7FE07C060817181828193810C5F1F4F92
:100F200006C06081718180E090E00E5F1F4FA401D8
:100F30000E94DD0AA82EA818FB2DFF777F2E76FED3
:100F40000BC0372D3E7FA51450F474FE0AC072FC0E
:100F500008C0372D3E7E05C0BA2C372D03C0BA2CF1
:100F600001C0B52C34FF0DC0FE01EA0DF11D8081DA
:100F7000803311F4397E09C032FF06C0B394B394B4
:100F800004C0832F867809F0B39433FD13C030FF7B
:100F900006C05A2CB31418F4530C5B18B32CB314BA
:100FA00068F4B70180E290E03C870E94A50AB39400
:100FB0003C85F5CFB31410F43B1801C0312C34FF3D
:100FC00012C0B70180E390E03C870E94A50A3C85EF
:100FD00032FF17C031FD03C088E790E002C088E50A
:100FE00090E0B7010CC0832F867859F031FF02C022
:100FF0008BE201C080E237FD8DE2B70190E00E94F4
:10100000A50AA51438F4B70180E390E00E94A50A70
:101010005A94F7CFAA94F401EA0DF11D8081B7012B
:1010200090E00E94A50AA110F5CF332009F451CE1B
:10103000B70180E290E00E94A50A3A94F6CFF7014A
:101040008681978102C08FEF9FEF2C96E2E10C948E
:10105000570B4F925F926F927F929F92AF92BF9287
:10106000CF92DF92EF92FF920F931F93CF93DF9374
:10107000CDB7DEB729970FB6F894DEBF0FBECDBF50
:101080006A01122FB02E2BE3201720F0FF24F394D7
:10109000F00E02C0BCE3FB2E0F2D27E0AE014F5F28
:1010A0005F4F0E94B709AC018981982F99709130E8
:1010B00031F0E1FC06C0E0FE06C090E205C09DE212
:1010C00003C09BE201C090E0EE2DE07183FF3CC0C5
:1010D000911102C083E001C084E0811718F4212F30
:1010E000281B01C020E0E1110BC0F601822F30E285
:1010F000882319F031938150FBCFC20ED11C20E020
:10110000992329F0D6019C93F60131966F01C6010F
:101110000396E2FE0AC03EE4D6013C9341E41196F8
:101120004C93119712963C9306C03EE6F60130832D
:1011300041E641833283FC01322F40E2332309F43C
:1011400042C041933150FACF82FF44C0911102C096
:1011500083E001C084E0811718F4212F281B01C00F
:1011600020E0E1110BC0F601822F30E2882319F054
:1011700031938150FBCFC20ED11C20E0992329F07E
:10118000D6019C93F60131966F01C6010396E2FEEB
:101190000BC039E4D6013C933EE411963C93119781
:1011A00036E412963C9307C039E6F60130833EE6FA
:1011B000318336E63283FC01322F40E2332319F0CB
:1011C00041933150FBCFFC01E20FF11D10828EEFF5
:1011D0009FEFB7C0F1E0911101C0F0E06F2F70E018
:1011E0001416150624F49A012F5F3F4F02C021E028
:1011F00030E0260F371FBB2029F06B2D70E06F5FAA
:101200007F4F02C060E070E0260F371F612F70E053
:10121000261737071CF4121B212F01C020E03E2D9A
:10122000387159F4D601322F60E2332319F06D93EF
:101230003150FBCFC20ED11C20E0FF2331F0D6018C
:101240009C93B6016F5F7F4F6B01E1110BC0F601FC
:10125000922F30E3992319F031939150FBCFC20EB6
:10126000D11C20E09F2D940F3A81782F7071A72E0A
:1012700084FF03C0313309F49150191624F49930D6
:1012800018F098E001C091E0E42F852F57FF02C0CD
:10129000E0E080E06E2F782FE0E0F0E0AEE29A2E02
:1012A0003A01691A71082A01461A570A0B2D10E0F3
:1012B0001195019511096F3F8FEF780729F4D60139
:1012C0009C92C60101966C014617570784F066167A
:1012D00077066CF47F01E40CF51CA1E0B0E0AC0FE4
:1012E000BD1FEA0EFB1ED7011196BC9002C090E311
:1012F000B92E615071093196C60101967C016017C3
:10130000710724F0D601BC926C01D5CF6417750724
:1013100041F4363320F4353321F4A11002C081E3C7
:10132000B82EF601B082F701822F90E2882319F0DF
:1013300091938150FBCFF701E20FF11D108280E005
:1013400090E029960FB6F894DEBF0FBECDBFDF91B7
:10135000CF911F910F91FF90EF90DF90CF90BF90B2
:10136000AF909F907F906F905F904F90089528303E
:1013700008F027E03327DA01990F311D87FD9160CE
:1013800000966105710539F432602E5F3D9330E3BC
:101390002A95E1F708959F3F30F080387105610587
:1013A00009F03C5F3C5F3D93913008F08068911DEF
:1013B000DF93CF931F930F93FF92EF92192F987F94
:1013C0009695E92F96959695E90FFF27E255FF4FE1
:1013D00099273327EE24FF24A701E70105900894FD
:1013E000079428F4360FE71EF81E491F511D660F9B
:1013F000771F881F991F0694A1F70590079428F47A
:10140000E70EF81E491F561FC11D770F881F991F31
:10141000661F0694A1F70590079428F4F80E491F5B
:10142000561FC71FD11D880F991F661F771F06946F
:10143000A1F70590079420F4490F561FC71FD81F26
:10144000990F661F771F881F0694A9F7849110953E
:10145000177041F0D695C79557954795F794E7943F
:101460001A95C1F7E4E5F0E068941590159135916F
:101470006591959105907FE27395E118F10A430B10
:10148000560BC90BD009C0F7E10CF11E431F561FC4
:10149000C91FD01D7EF4703311F48A95E6CFE8940D
:1014A000015030F0080F0AF40027021708F4202F2B
:1014B0002395022F7A3328F079E37D932A95E9F773
:1014C00010C07D932A9589F6069497956795379570
:1014D00017951794E118F10A430B560BC90BD00965
:1014E00098F023957E9173957A3308F070E37C939E
:1014F0002013B8F77E9170617D9330F0839571E38E
:101500007D9370E32A95E1F71124EF90FF900F91FE
:101510001F91CF91DF91992787FD90950895FC0148
:101520000590615070400110D8F7809590958E0F0E
:101530009F1F0895FC016150704001900110D8F781
:10154000809590958E0F9F1F08950F931F93CF93B3
:10155000DF93FB01238121FD03C08FEF9FEF28C0A4
:1015600022FF16C0468157812481358142175307D7
:1015700044F4A081B1819D012F5F3F4F31832083CF
:101580008C93268137812F5F3F4F3783268310C08E
:10159000EB01092F182F0084F185E02D0995892B87
:1015A000E1F68E819F8101969F838E83812F902FFC
:1015B000DF91CF911F910F910895FA01AA2728304A
:1015C00051F1203181F1E8946F936E7F6E5F7F4F10
:1015D0008F4F9F4FAF4FB1E03ED0B4E03CD0670F8C
:1015E000781F891F9A1FA11D680F791F8A1F911DDF
:1015F000A11D6A0F711D811D911DA11D20D009F42F
:1016000068943F912AE0269F11243019305D319370
:10161000DEF6CF010895462F4770405D4193B3E059
:101620000FD0C9F7F6CF462F4F70405D4A3318F000
:10163000495D31FD4052419302D0A9F7EACFB4E0B1
:10164000A6959795879577956795BA95C9F7009769
:101650006105710508959B01AC010A2E069457950A
:10166000479537952795BA95C9F7620F731F841F61
:10167000951FA01D08952F923F924F925F926F92F7
:101680007F928F929F92AF92BF92CF92DF92EF9212
:10169000FF920F931F93CF93DF93CDB7DEB7CA1B93
:1016A000DB0B0FB6F894DEBF0FBECDBF09942A88BE
:1016B000398848885F846E847D848C849B84AA8466
:1016C000B984C884DF80EE80FD800C811B81AA81F3
:1016D000B981CE0FD11D0FB6F894DEBF0FBECDBFBE
:0816E000ED010895F894FFCF1D
:1016E8003B00380035003200390036003300300046
:1016F8003A003700340031000000BC00200070655B
:0A17080072696F643D25730D0A003D
:00000001FF
