:100000000C942A000C9447000C9447000C94470071
:100010000C9447000C9447000C9447000C94470044
:100020000C9447000C9447000C9447000C94470034
:100030000C9447000C9447000C9447000C94470024
:100040000C9447000C9447000C9447000C94470014
:100050000C94470011241FBECFE5D8E0DEBFCDBF12
:1000600010E0A0E6B0E0EEECF8E002C005900D92E2
:10007000A838B107D9F720E0A8E8B0E001C01D9288
:10008000AC38B207E1F70E94A2010C9465040C940D
:100090000000843058F5683048F5413091F4E82F7D
:1000A000F0E0EE0FFF1FE658FF4F0190F081E02DCA
:1000B000208181E090E001C0880F6A95EAF7822BE9
:1000C00014C0411113C0E82FF0E0EE0FFF1FE658F7
:1000D000FF4F0190F081E02D208181E090E001C090
:1000E000880F6A95EAF7809582238083089584308B
:1000F000A0F4683090F4E82FF0E0EE0FFF1FEE5808
:10010000FF4F0190F081E02D808190E002C0959535
:1001100087956A95E2F7817008958FEF089584308E
:1001200058F5683048F5413091F4E82FF0E0EE0FD3
:10013000FF1FE659FF4F0190F081E02D208181E003
:1001400090E001C0880F6A95EAF7822B14C0411134
:1001500013C0E82FF0E0EE0FFF1FE659FF4F0190AC
:10016000F081E02D208181E090E001C0880F6A9548
:10017000EAF78095822380830895843050F4E82F35
:10018000F0E0EE0FFF1FE659FF4F0190F081E02DE8
:1001900060830895843050F4E82FF0E0EE0FFF1FE5
:1001A000E658FF4F0190F081E02D60830895682F9D
:1001B00080E00E94CA0064E081E00E94CA008FECE7
:1001C00097E00197F1F700C0000060E081E00E9435
:1001D000CA009FE728E381E0915020408040E1F78A
:1001E00000C00000089588E30E94D7008FEC97E0DC
:1001F0000197F1F700C0000081E00E94D7008FEC6A
:1002000097E00197F1F700C000008EE00E94D70050
:100210008FEC97E00197F1F700C0000080E80E94A2
:10022000D7008FEC97E00197F1F700C00000089528
:10023000682F80E00E94CA0065E081E00E94CA0049
:100240008FEC97E00197F1F700C0000061E081E0DA
:100250000E94CA009FE728E381E09150204080403F
:10026000E1F700C000000895CF93DF93EC0189917E
:10027000882319F00E941801FACFDF91CF910895D9
:10028000EF92FF920F931F93CF93DF93182F092FB5
:10029000682F792FC0E0D0E0EAE0F0E0CE010196CF
:1002A0001616170634F4EC01CB01BF010E94BA0107
:1002B000F5CF0E943803FC019E018AE0E82EF12C64
:1002C0002150310937FD0DC0812F902FB7010E94B9
:1002D000BA01162F072FDF01A20FB31F805D8C9389
:1002E000EFCFCE0FDF1F1882CF01DF91CF911F918B
:1002F0000F91FF90EF900C943401CF92DF92EF9228
:10030000FF926B017C010E94E201CB010E9440013F
:100310008EE20E94180120E030E040E85FE3C70170
:10032000B6010E94230220E030E048EC52E40E9433
:10033000B4020E94E201CB01FF90EF90DF90CF90DA
:100340000C9440016FEF80E00E94BD0067E081E007
:100350000E94BD000E94F3002FE788E391E0215046
:1003600080409040E1F700C0000081E490E00E94EE
:100370001801FFCF97FB072E16F4009407D077FDE6
:1003800009D00E94CE0107FC05D03EF490958195DE
:100390009F4F0895709561957F4F0895AA1BBB1BD1
:1003A00051E107C0AA1FBB1FA617B70710F0A61B75
:1003B000B70B881F991F5A95A9F780959095BC0196
:1003C000CD0108950E94E9016894B1110C94AE0228
:1003D00008950E94930288F09F5798F0B92F9927AB
:1003E000B751B0F0E1F0660F771F881F991F1AF020
:1003F000BA95C9F714C0B13091F00E94AD02B1E0D6
:1004000008950C94AD02672F782F8827B85F39F0D4
:10041000B93FCCF3869577956795B395D9F73EF4B8
:1004200090958095709561957F4F8F4F9F4F089560
:100430000E947D0220F019F00E94840250F40C9476
:100440007A020C94AE02E92F0E948B0288F35523A6
:10045000B1F3E7FB6217730784079507A8F189F3E7
:10046000E92FFF2788232AF03197660F771F881F0F
:10047000DAF7952F5527442332F091505040220F40
:10048000331F441FD2F7BB27E91BF50B621B730B0D
:10049000840BB109B1F222F4620F731F841FB11DE6
:1004A00031972AF0660F771F881FBB1FEFCF91503F
:1004B000504062F041F0882332F0660F771F881FAA
:1004C00091505040C1F793950C946C0286957795A6
:1004D00067959F5FD9F7F7CF9F3F31F0915020F498
:1004E000879577956795B795880F911D9695879510
:1004F00097F908959FEF80EC089500240A9416164A
:10050000170618060906089500240A941216130601
:1005100014060506089557FD9058440F551F59F0CD
:100520005F3F71F04795880F97FB991F61F09F3FE0
:1005300079F087950895121613061406551FF2CF09
:100540004695F1DF08C0161617061806991FF1CF59
:1005500086957105610508940895E894BB27662780
:100560007727CB0197F908950E94C7020C942703BF
:100570000E947D0238F00E94840220F0952311F041
:100580000C9421030C947A0211240C94AE020E9464
:100590008B0270F3959FC1F3950F50E0551F629F3A
:1005A000F001729FBB27F00DB11D639FAA27F00DCC
:1005B000B11DAA1F649F6627B00DA11D661F829FF3
:1005C0002227B00DA11D621F739FB00DA11D621FD8
:1005D000839FA00D611D221F749F3327A00D611DF5
:1005E000231F849F600D211D822F762F6A2F1124D7
:1005F0009F5750409AF0F1F088234AF0EE0FFF1F0A
:10060000BB1F661F771F881F91505040A9F79E3F60
:10061000510580F00C9421030C94AE025F3FE4F38B
:10062000983ED4F3869577956795B795F795E795B6
:100630009F5FC1F7FE2B880F911D9695879597F9BF
:10064000089597F99F6780E870E060E00895092EAB
:100650000394000C11F4882352F0BB0F40F4BF2B1D
:1006600011F460FF04C06F5F7F4F8F4F9F4F08955D
:10067000CF93DF938230910510F482E090E0E09117
:100680008A00F0918B0020E030E0C0E0D0E03097AD
:1006900011F14081518148175907C0F04817590797
:1006A00061F482819381209719F09B838A832BC008
:1006B00090938B0080938A0026C02115310519F094
:1006C0004217530718F49A01BE01DF01EF010280BF
:1006D000F381E02DDCCF2115310509F1281B390B01
:1006E0002430310590F412968D919C9113976115E9
:1006F000710521F0FB019383828304C090938B00EA
:1007000080938A00FD01329644C0FD01E20FF31F81
:1007100081939193225031092D933C933AC02091BB
:10072000880030918900232B41F42091840030917E
:1007300085003093890020938800209182003091B9
:1007400083002115310541F42DB73EB74091860055
:1007500050918700241B350BE0918800F0918900AF
:10076000E217F307A0F42E1B3F0B2817390778F088
:10077000AC014E5F5F4F2417350748F04E0F5F1FE7
:1007800050938900409388008193919302C0E0E0E8
:10079000F0E0CF01DF91CF9108950F931F93CF9396
:1007A000DF93009709F48CC0FC0132971382128208
:1007B00000918A0010918B000115110581F42081B0
:1007C0003181820F931F2091880030918900281772
:1007D000390779F5F0938900E093880071C0D8015A
:1007E00040E050E0AE17BF0750F412962D913C91B7
:1007F0001397AD012115310509F1D901F3CF9D0101
:10080000DA013383228360817181860F971F8217FB
:10081000930769F4EC0128813981260F371F2E5F79
:100820003F4F318320838A819B8193838283452B31
:1008300029F4F0938B00E0938A0042C01396FC9356
:10084000EE931297ED01499159919E01240F351FA6
:10085000E217F30771F480819181840F951F02964E
:1008600011969C938E938281938113969C938E9381
:100870001297E0E0F0E0D80112968D919C911397C9
:10088000009719F0F8018C01F6CF8D919C91980199
:100890002E5F3F4F820F931F209188003091890077
:1008A0002817390769F4309729F410928B001092B9
:1008B0008A0002C01382128210938900009388007C
:0E08C000DF91CF911F910F910895F894FFCF13
:1008CE003F065B4F666D7C077F6F3A003700340042
:1008DE00310039003600330030003B00380035005F
:0808EE00320000008C00200024
:00000001FF
