:100000000C946B000C9488000C9488000C9488006D
:100010000C9488000C9488000C9488000C94880040
:100020000C9488000C9488000C9488000C94880030
:100030000C9488000C9488000C9488000C94880020
:100040000C9488000C9488000C9488000C94880010
:100050000C94880007634236B79BD8A71A396856B4
:1000600018AEBAAB558C1D3CB7CC5763BD6DEDFDDA
:10007000753EF6177231BF000000803F0800000097
:10008000BE922449123EABAAAA2ABECDCCCC4C3E8D
:1000900000000080BEABAAAAAA3E00000000BF007C
:1000A0000000803F0000000000084178D3BB438778
:1000B000D1133D190E3CC3BD4282AD2B3E68EC828C
:1000C00076BED98FE1A93E4C80EFFFBE01C4FF7F11
:1000D0003F000000000011241FBECFE5D8E0DEBFC6
:1000E000CDBF10E0A0E6B0E0ECE3F2E102C0059085
:1000F0000D92AE38B107D9F720E0AEE8B0E001C00C
:100100001D92A239B207E1F70E94B2030C941C09B8
:100110000C940000DF92EF92FF920F931F93CF9306
:10012000DF939EE7E92E90E0F92EDEE4C0E040E0A8
:100130006C2F83E00E94A50100E010E084E0D82E3F
:10014000D00E6D2D83E00E94D301811110C0F70104
:10015000E00FF11FD0816D2D83E00E94D301882331
:10016000D1F38FE19EE40197F1F700C000000F5F2B
:100170001F4F0430110511F741E06C2F83E00E94FE
:10018000A501CF5F94E0E90EF11CC43081F6DE34A6
:1001900041F28D2FDF91CF911F910F91FF90EF9042
:1001A000DF900895682F80E00E94260264E081E0DD
:1001B0000E9426028FEC97E00197F1F700C0000043
:1001C00060E081E00E9426029FE728E381E09150F1
:1001D00020408040E1F700C0000008956FEF80E00C
:1001E0000E94190267E081E00E94190288E30E94E0
:1001F000D2008FEC97E00197F1F700C0000081E09A
:100200000E94D2008FEC97E00197F1F700C0000048
:100210008EE00E94D2008FEC97E00197F1F700C0CA
:10022000000080E80E94D2008FEC97E00197F1F780
:1002300000C000000895682F80E00E94260265E05B
:1002400081E00E9426028FEC97E00197F1F700C051
:10025000000061E081E00E9426029FE728E381E040
:10026000915020408040E1F700C000000895CF93F6
:10027000DF93EC018991882319F00E941B01FACFCA
:10028000DF91CF910895EF92FF920F931F93CF9339
:10029000DF93182F092F682F792FC0E0D0E0EAE014
:1002A000F0E0CE0101961616170634F4EC01CB01EE
:1002B000BF010E94B503F5CF0E94EF07FC019E012C
:1002C0008AE0E82EF12C2150310937FD0DC0812F35
:1002D000902FB7010E94B503162F072FDF01A20F41
:1002E000B31F805D8C93EFCFCE0FDF1F1882CF013D
:1002F000DF91CF911F910F91FF90EF900C943701F8
:10030000CF92DF92EF92FF926B017C010E94C104B9
:10031000CB010E9443018EE20E941B0120E030E0ED
:1003200040E85FE3C701B6010E943F0520E030E0EE
:1003300048EC52E40E940B060E94C104CB01FF90DE
:10034000EF90DF90CF900C944301843058F56830E3
:1003500048F5413091F4E82FF0E0EE0FFF1FE0592F
:10036000FF4F0190F081E02D208181E090E001C0FD
:10037000880F6A95EAF7822B14C0411113C0E82F49
:10038000F0E0EE0FFF1FE059FF4F0190F081E02DEC
:10039000208181E090E001C0880F6A95EAF780959E
:1003A0008223808308958430A0F4683090F4E82F8D
:1003B000F0E0EE0FFF1FE859FF4F0190F081E02DB4
:1003C000808190E002C0959587956A95E2F78170EB
:1003D00008958FEF0895843058F5683048F541301E
:1003E00091F4E82FF0E0EE0FFF1FE05AFF4F01906D
:1003F000F081E02D208181E090E001C0880F6A95B6
:10040000EAF7822B14C0411113C0E82FF0E0EE0F81
:10041000FF1FE05AFF4F0190F081E02D208181E025
:1004200090E001C0880F6A95EAF780958223808367
:100430000895843050F4E82FF0E0EE0FFF1FE05AEB
:10044000FF4F0190F081E02D60830895843050F4D7
:10045000E82FF0E0EE0FFF1FE059FF4F0190F08111
:10046000E02D608308958F929F92AF92BF92DF92AA
:10047000EF92FF920F931F93CF93DF9300D000D0A2
:10048000CDB7DEB77C01FC018F010E191F098191E8
:100490008111FACFA12CB12CF701D1907F01DD2081
:1004A000C9F101501109B801012E000C880B990BFC
:1004B0000E94F9049B01AC0160E070E080E291E4ED
:1004C0000E9478069B01AC01B501BB0C880B990B0F
:1004D00029833A834B835C830E94F9044B015C01BE
:1004E0006D2D70E060537109072E000C880B990B7D
:1004F0000E94F90429813A814B815C810E940B069C
:100500009B01AC01C501B4010E94DE030E94C1043D
:100510005B01C2CFC5010F900F900F900F90DF913C
:10052000CF911F910F91FF90EF90DF90BF90AF9010
:100530009F908F900895AF92BF92CF92DF92EF92EB
:10054000FF920F931F93CF93DF931F92CDB7DEB728
:100550007B0149830E9433028C01C7010E94330250
:100560005C0149814D3201F130F44B32E1F5B801C3
:10057000680F791F1CC04F3209F14837A1F5B80147
:10058000110F880B990B0E94F9046B017C01B501D6
:10059000BB0C880B990B0E94F9049B01AC01C701AD
:1005A000B6010E940B0623C0B801681B790B072E09
:1005B000000C880B990B0E94F90419C0B801110FA7
:1005C000880B990B0E94F9046B017C01B501BB0CEF
:1005D000880B990B0E94F9049B01AC01C701B6017D
:1005E0000E944F0404C060E070E080EA90EC0F903D
:1005F000DF91CF911F910F91FF90EF90DF90CF90FF
:10060000BF90AF9008950E94EE002FE788E391E03D
:10061000215080409040E1F700C000008AE090E067
:100620000E94EF076C018AE090E00E94EF075C01F6
:100630006FE083E00E9419026FEF83E00E942602C0
:10064000C0E0D0E0E12CF12C00E010E00E948A0034
:10065000982F8B7F8B3201F1892F8F7E8D32E1F0C5
:100660009837D1F09336C1F0209751F4F8010F5F1D
:100670001F4FEC0DFD1D9083F601E00FF11F0AC026
:10068000F7012FEFE21AF20AEA0DFB1D9083F50144
:10069000EE0DFF1D10824CC086ED890F823008F4EC
:1006A0005DC09D32E1F19837E9F19F32F1F19D3360
:1006B00081F5492DB501C6010E949B022B013C0129
:1006C0008DE30E941B0184E10E94D20020E030E013
:1006D000A901C301B2010E944A0487FF0AC08DE24A
:1006E0000E941B0184E10E94D20077FA709477F88F
:1006F0007094C301B2010E9480018FEF93ED20E35B
:10070000815090402040E1F700C00000C0E0D0E000
:100710009DCF933669F481E00E94D20093CF3DE2F1
:10072000932E1DC028E7922E1AC08FE2982E17C074
:100730009D3309F48BCF892F0E941B0184E10E9415
:10074000D20080E10E94D2008FEF93ED20E3815030
:1007500090402040E1F700C0000078CF992EC1E022
:10076000D0E0E9CF0E940303FFCF97FB072E16F4DA
:10077000009407D077FD09D00E94C90307FC05D07B
:100780003EF4909581959F4F0895709561957F4FA8
:100790000895AA1BBB1B51E107C0AA1FBB1FA617C8
:1007A000B70710F0A61BB70B881F991F5A95A9F71A
:1007B00080959095BC01CD0108955058BB27AA277C
:1007C0000E94F5030C94D1050E94C30538F00E94E5
:1007D000CA0520F039F49F3F19F426F40C94C005A3
:1007E0000EF4E095E7FB0C94AC05E92F0E94E205BE
:1007F00058F3BA17620773078407950720F079F456
:10080000A6F50C9404060EF4E0950B2EBA2FA02D3D
:100810000B01B90190010C01CA01A0011124FF27AD
:10082000591B99F0593F50F4503E68F11A16F040A8
:10083000A22F232F342F4427585FF3CF46953795A7
:100840002795A795F0405395C9F77EF41F16BA0B6C
:10085000620B730B840BBAF09150A1F0FF0FBB1F1A
:10086000661F771F881FC2F70EC0BA0F621F731F63
:10087000841F48F4879577956795B795F7959E3FC0
:1008800008F0B0CF9395880F08F09927EE0F979551
:10089000879508950E94880508F481E008950E94D4
:1008A00063040C94D1050E94CA0558F00E94C30548
:1008B00040F029F45F3F29F00C94AC0551110C94E1
:1008C00005060C94C0050E94E20568F39923B1F374
:1008D000552391F3951B550BBB27AA276217730766
:1008E000840738F09F5F5F4F220F331F441FAA1FFA
:1008F000A9F335D00E2E3AF0E0E832D091505040B6
:10090000E695001CCAF72BD0FE2F29D0660F771F63
:10091000881FBB1F261737074807AB07B0E809F049
:10092000BB0B802DBF01FF2793585F4F3AF09E3FCE
:10093000510578F00C94AC050C9405065F3FE4F388
:10094000983ED4F3869577956795B795F7959F5F11
:10095000C9F7880F911D9695879597F90895E1E05D
:10096000660F771F881FBB1F621773078407BA07BC
:1009700020F0621B730B840BBA0BEE1F88F7E09517
:1009800008950E94C8046894B1110C940506089556
:100990000E94EA0588F09F5798F0B92F9927B75120
:1009A000B0F0E1F0660F771F881F991F1AF0BA9513
:1009B000C9F714C0B13091F00E940406B1E0089567
:1009C0000C940406672F782F8827B85F39F0B93F59
:1009D000CCF3869577956795B395D9F73EF49095C6
:1009E0008095709561957F4F8F4F9F4F0895E89444
:1009F00009C097FB3EF490958095709561957F4F67
:100A00008F4F9F4F9923A9F0F92F96E9BB27939514
:100A1000F695879577956795B795F111F8CFFAF424
:100A2000BB0F11F460FF1BC06F5F7F4F8F4F9F4F55
:100A300016C0882311F096E911C0772321F09EE8B3
:100A4000872F762F05C0662371F096E8862F70E019
:100A500060E02AF09A95660F771F881FDAF7880FF3
:100A60009695879597F908950E94C30520F019F08F
:100A70000E94CA0550F40C94C0050C940506E92F99
:100A80000E94E20588F35523B1F3E7FB6217730771
:100A900084079507A8F189F3E92FFF2788232AF017
:100AA0003197660F771F881FDAF7952F5527442354
:100AB00032F091505040220F331F441FD2F7BB2712
:100AC000E91BF50B621B730B840BB109B1F222F425
:100AD000620F731F841FB11D31972AF0660F771FB5
:100AE000881FBB1FEFCF9150504062F041F0882328
:100AF00032F0660F771F881F91505040C1F79395D1
:100B00000C94B2058695779567959F5FD9F7F7CFD7
:100B1000990F0008550FAA0BE0E8FEEF161617060E
:100B2000E807F907C0F012161306E407F50798F076
:100B3000621B730B840B950B39F40A2661F0232B8F
:100B4000242B252B21F408950A2609F4A140A6950B
:100B50008FEF811D811D089597F99F6780E870E0F0
:100B600060E008959F3F31F0915020F4879577958C
:100B70006795B795880F911D9695879597F9089574
:100B80009FEF80EC089500240A94161617061806A5
:100B90000906089500240A94121613061406050681
:100BA0000895092E0394000C11F4882352F0BB0F12
:100BB00040F4BF2B11F460FF04C06F5F7F4F8F4F75
:100BC0009F4F089557FD9058440F551F59F05F3FB0
:100BD00071F04795880F97FB991F61F09F3F79F05F
:100BE00087950895121613061406551FF2CF4695E1
:100BF000F1DF08C0161617061806991FF1CF869563
:100C00007105610508940895E894BB276627772746
:100C1000CB0197F908950E941E060C94D1050E94FD
:100C2000C30538F00E94CA0520F0952311F00C94FA
:100C3000AC050C94C00511240C9405060E94E20535
:100C400070F3959FC1F3950F50E0551F629FF0011F
:100C5000729FBB27F00DB11D639FAA27F00DB11D38
:100C6000AA1F649F6627B00DA11D661F829F2227C1
:100C7000B00DA11D621F739FB00DA11D621F839F48
:100C8000A00D611D221F749F3327A00D611D231F1E
:100C9000849F600D211D822F762F6A2F11249F576C
:100CA00050409AF0F1F088234AF0EE0FFF1FBB1F6F
:100CB000661F771F881F91505040A9F79E3F51052E
:100CC00080F00C94AC050C9405065F3FE4F3983E6D
:100CD000D4F3869577956795B795F795E7959F5FD8
:100CE000C1F7FE2B880F911D9695879597F908956A
:100CF000FA01EE0FFF1F309621053105A1F16115B4
:100D0000710561F48038BFE39B0749F1689490381E
:100D1000810561F08038BFEF9B0741F099234AF5C8
:100D2000FF3FE1053105210519F1E8940894E795A5
:100D3000D901AA2329F4AB2FBE2FF85FD0F310C03E
:100D4000FF5F70F4A695E0F7F73950F019F0FF3A1D
:100D500038F49F779F930DD00F9007FC905808951B
:100D600046F00C94C00560E070E080E89FE30895D1
:100D70004FE79F775F934F933F932F930E947307A3
:100D80002F913F914F915F910E940B060C94D006DA
:100D900029F416F00C94AC050C9404060C94C005D0
:100DA0000E94EA05A8F39638A0F707F80F92E89496
:100DB0002BE33AEA48EB5FE70E9421060F920F927D
:100DC0000F924DB75EB70F920E94BB07E4E5F0E0CB
:100DD0000E9402074F915F91EF91FF91E595EE1F01
:100DE000FF1F49F0FE57E0684427EE0F441FFA95B5
:100DF000E1F74195550B0E9435070F9007FE0C94C3
:100E000029070895DF93CF931F930F93FF92EF92DB
:100E1000DF927B018C01689406C0DA2EEF010E94FC
:100E20001E06FE01E894A5912591359145915591B5
:100E3000A6F3EF010E94F503FE019701A801DA94E1
:100E400069F7DF90EF90FF900F911F91CF91DF91A5
:100E500008959B01AC0160E070E080E89FE30C9492
:100E60004F040C94AC050C94B2050E94EA05D8F32B
:100E70009923C9F3940F511DA3F39150504094F05E
:100E800059F0882332F0660F771F881F9150504029
:100E9000C1F79E3F51052CF7880F911D96958795B8
:100EA00097F908955F3FACF0983E9CF0BB2786957C
:100EB00077956795B79508F4B1609395C1F7BB0F27
:100EC00058F711F460FFE8CF6F5F7F4F8F4F9F4F50
:100ED000E3CF0C94050616F00C94B2050C94C005F3
:100EE00068940C94AC050E94EA05A8F39923C1F319
:100EF000AEF3DF93CF931F930F93FF92C92FDD279C
:100F000088232AF02197660F771F881FDAF720E0E1
:100F100030E040E85FEB9FE3883920F0803E38F016
:100F200021968F770E94DE03ECE7F0E004C00E9478
:100F3000DE03E9EAF0E00E9402078B01BE01EC014A
:100F4000FB2E6F5771097595771F880B990B0E94BF
:100F5000F90428E132E741E35FE30E941E06AF2D6A
:100F60009801AE01FF900F911F91CF91DF910E94E8
:100F7000F5030C94D105FA01DC01AA0FBB1F9B01FC
:100F8000AC01BF5728F4222733274427507820C0CC
:100F9000B75190F4AB2F0024469537952795011C47
:100FA000A395D2F3002071F0220F331F441FB39595
:100FB000DAF30ED00C94DD0361307105A0E88A07E6
:100FC000B94630F49B01AC016627772788279078D3
:100FD000309621F020833183428353830895CF9349
:100FE000DF938230910510F482E090E0E091900070
:100FF000F091910020E030E0C0E0D0E0309711F1B6
:101000004081518148175907C0F04817590761F4CA
:1010100082819381209719F09B838A832BC09093C0
:1010200091008093900026C02115310519F04217D8
:10103000530718F49A01BE01DF01EF010280F3812A
:10104000E02DDCCF2115310509F1281B390B2430A7
:10105000310590F412968D919C911397611571054D
:1010600021F0FB019383828304C0909391008093CD
:101070009000FD01329644C0FD01E20FF31F819301
:101080009193225031092D933C933AC020918E00C8
:1010900030918F00232B41F420917A0030917B0016
:1010A00030938F0020938E0020917800309179004A
:1010B0002115310541F42DB73EB740917C00509188
:1010C0007D00241B350BE0918E00F0918F00E2171C
:1010D000F307A0F42E1B3F0B2817390778F0AC015B
:1010E0004E5F5F4F2417350748F04E0F5F1F509338
:1010F0008F0040938E008193919302C0E0E0F0E076
:10110000CF01DF91CF9108950F931F93CF93DF937A
:10111000009709F48CC0FC0132971382128200916F
:101120009000109191000115110581F42081318109
:10113000820F931F20918E0030918F00281739075E
:1011400079F5F0938F00E0938E0071C0D80140E0F4
:1011500050E0AE17BF0750F412962D913C911397B3
:10116000AD012115310509F1D901F3CF9D01DA0156
:101170003383228360817181860F971F82179307C3
:1011800069F4EC0128813981260F371F2E5F3F4F0C
:10119000318320838A819B8193838283452B29F429
:1011A000F0939100E093900042C01396FC93EE936D
:1011B0001297ED01499159919E01240F351FE217B5
:1011C000F30771F480819181840F951F0296119627
:1011D0009C938E938281938113969C938E93129706
:1011E000E0E0F0E0D80112968D919C911397009762
:1011F00019F0F8018C01F6CF8D919C9198012E5F2A
:101200003F4F820F931F20918E0030918F0028173F
:10121000390769F4309729F41092910010929000E8
:1012200002C01382128210938F0000938E00DF9110
:0C123000CF911F910F910895F894FFCF0B
:10123C003A003700340031003900360033003000FA
:10124C003B0038003500320000009200200037349B
:0E125C0031303835322E3936333D2F782D2B78
:00000001FF
