:100000000C942A000C9447000C9447000C94470071
:100010000C9447000C9447000C9447000C94470044
:100020000C9447000C9447000C9447000C94470034
:100030000C9447000C9447000C9447000C94470024
:100040000C9447000C9447000C9447000C94470014
:100050000C94470011241FBECFE5D8E0DEBFCDBF12
:1000600010E0A0E6B0E0E0E3FCE002C005900D92F5
:10007000AE37B107D9F720E0AEE7B0E001C01D927E
:10008000A238B207E1F70E940E020C9416060C94F7
:100090000000379A329A319A309A3F983E9A3D98AA
:1000A000089597B1907E97B997B18770982B97B9BB
:1000B000369A349BFECF349A84B195B10895682F57
:1000C00082E00E94FE0161E080E00E94FE018FEC70
:1000D00097E00197F1F700C0000060E080E00E9427
:1000E000FE019FE728E381E0915020408040E1F746
:1000F00000C0000008956FEF82E00E94EE0167E00B
:1001000080E00E94EE0188E30E945F008FEC97E0A0
:100110000197F1F700C0000081E00E945F008FECC2
:1001200097E00197F1F700C000008EE00E945F00A9
:100130008FEC97E00197F1F700C0000080E80E9483
:100140005F008FEC97E00197F1F700C00000089581
:10015000682F82E00E94FE0165E080E00E94FE01BF
:100160008FEC97E00197F1F700C0000064E080E0B9
:100170000E94FE019FE728E381E0915020408040EB
:10018000E1F700C000000895CF93DF93EC0189915F
:10019000882319F00E94A800FACFDF91CF9108952B
:1001A000EF92FF920F931F93CF93DF93182F092F96
:1001B000682F792FC0E0D0E0EAE0F0E0CE010196B0
:1001C0001616170634F4EC01CB01BF010E9463023E
:1001D000F5CF0E94E904FC019E018AE0E82EF12C93
:1001E0002150310937FD0DC0812F902FB7010E949A
:1001F0004F02162F072FDF01A20FB31F805D8C93D4
:10020000EFCFCE0FDF1F1882CF01DF91CF911F916B
:100210000F91FF90EF900C94C400CF92DF92EF9279
:10022000FF926B017C010E945603CB010E94D0001B
:100230008EE20E94A80020E030E040E85FE3C701C2
:10024000B6010E94D40320E030E048EC52E40E9462
:100250007C040E945603CB01FF90EF90DF90CF907B
:100260000C94D0000F931F93CF93DF93883080F4CA
:100270008B01880F880F880F805C0E945F00E80167
:10028000085F1F4F89910E94A800C017D107D1F7BE
:10029000DF91CF911F910F910895803148F4611142
:1002A00002C0805803C0613019F481540C945F007F
:1002B00008950F931F93CF93DF9300D000D000D009
:1002C000CDB7DEB710E02AE030E0009771F0E1E052
:1002D000F0E0EC0FFD1FE10FF11DB9010E944F028C
:1002E000805D8083CB011F5FF0CF0FEF010F0117FF
:1002F00088F4E1E0F0E0EC0FFD1FE00FF11D8081DC
:100300000E94A8008FE99FE00197F1F700C000006C
:100310000150EDCF26960FB6F894DEBF0FBECDBFCD
:10032000DF91CF911F910F9108958430D8F46830F8
:10033000C8F490E0880F991FFC01E05AFF4F01902C
:10034000F081E02D208181E090E001C0880F6A9566
:10035000EAF7413011F4822B02C08095822380831A
:1003600080E008958FEF08958430B8F46830A8F4E1
:10037000E82FF0E0EE0FFF1FE859FF4F0190F081EA
:10038000E02D808190E002C0959587956A95E2F70F
:100390008170FA01808380E008958FEF08958430A2
:1003A000D8F46830C8F490E0880F991FFC01E05938
:1003B000FF4F0190F081E02D208181E090E001C0AD
:1003C000880F6A95EAF7413011F4822B02C08095BC
:1003D0008223808380E008958FEF0895843060F455
:1003E000E82FF0E0EE0FFF1FE059FF4F0190F08182
:1003F000E02D608380E008958FEF0895843060F4ED
:10040000E82FF0E0EE0FFF1FE05AFF4F0190F08160
:10041000E02D608380E008958FEF08950E944900E9
:100420000E947B008D9A1DBC1CBC83EC99E097BD9B
:1004300086BD82E88FBD8BE18EBD83E00E945100B6
:10044000BC0180E090E00E948C0323E333E34BE89F
:1004500050E40E94E40220E030E042E852E40E94CE
:1004600078020E945D037BBD6ABD83E00E9451005B
:10047000BC0180E090E00E948C0323E333E34BE86F
:1004800050E40E94E40220E030E042E852E40E949E
:1004900078020E945D03CB010E94D000CECFAA1B40
:1004A000BB1B51E107C0AA1FBB1FA617B70710F05F
:1004B000A61BB70B881F991F5A95A9F78095909591
:1004C000BC01CD01089597FB072E16F4009407D0C8
:1004D00077FD09D00E944F0207FC05D03EF49095AD
:1004E00081959F4F0895709561957F4F089550585D
:1004F000BB27AA270E948F020C9442040E94340456
:1005000038F00E943B0420F039F49F3F19F426F4A0
:100510000C9431040EF4E095E7FB0C941D04E92FD4
:100520000E94530458F3BA176207730784079507AC
:1005300020F079F4A6F50C9475040EF4E0950B2EDA
:10054000BA2FA02D0B01B90190010C01CA01A00125
:100550001124FF27591B99F0593F50F4503E68F180
:100560001A16F040A22F232F342F4427585FF3CFC1
:10057000469537952795A795F0405395C9F77EF492
:100580001F16BA0B620B730B840BBAF09150A1F0DB
:10059000FF0FBB1F661F771F881FC2F70EC0BA0F61
:1005A000621F731F841F48F4879577956795B795E9
:1005B000F7959E3F08F0B0CF9395880F08F09927E4
:1005C000EE0F9795879508950E94F8020C944204C7
:1005D0000E943B0458F00E94340440F029F45F3F2D
:1005E00029F00C941D0451110C9476040C943104E0
:1005F0000E94530468F39923B1F3552391F3951B9B
:10060000550BBB27AA2762177307840738F09F5F33
:100610005F4F220F331F441FAA1FA9F335D00E2EA0
:100620003AF0E0E832D091505040E695001CCAF70D
:100630002BD0FE2F29D0660F771F881FBB1F2617D0
:1006400037074807AB07B0E809F0BB0B802DBF01A7
:10065000FF2793585F4F3AF09E3F510578F00C9476
:100660001D040C9476045F3FE4F3983ED4F3869522
:1006700077956795B795F7959F5FC9F7880F911D97
:100680009695879597F90895E1E0660F771F881F83
:10069000BB1F621773078407BA0720F0621B730B36
:1006A000840BBA0BEE1F88F7E09508950E945D0356
:1006B0006894B1110C94760408950E945B0488F04C
:1006C0009F5798F0B92F9927B751B0F0E1F0660F16
:1006D000771F881F991F1AF0BA95C9F714C0B13057
:1006E00091F00E947504B1E008950C947504672F91
:1006F000782F8827B85F39F0B93FCCF38695779586
:100700006795B395D9F73EF490958095709561956E
:100710007F4F8F4F9F4F0895E89409C097FB3EF499
:1007200090958095709561957F4F8F4F9F4F99233E
:10073000A9F0F92F96E9BB279395F69587957795BC
:100740006795B795F111F8CFFAF4BB0F11F460FF7C
:100750001BC06F5F7F4F8F4F9F4F16C0882311F0D4
:1007600096E911C0772321F09EE8872F762F05C0E8
:10077000662371F096E8862F70E060E02AF09A9583
:10078000660F771F881FDAF7880F9695879597F978
:1007900008950E94340420F019F00E943B0450F4A4
:1007A0000C9431040C947604E92F0E94530488F3CE
:1007B0005523B1F3E7FB6217730784079507A8F188
:1007C00089F3E92FFF2788232AF03197660F771FD7
:1007D000881FDAF7952F5527442332F09150504067
:1007E000220F331F441FD2F7BB27E91BF50B621BF7
:1007F000730B840BB109B1F222F4620F731F841FD3
:10080000B11D31972AF0660F771F881FBB1FEFCFEE
:100810009150504062F041F0882332F0660F771F0C
:10082000881F91505040C1F793950C9423048695EE
:10083000779567959F5FD9F7F7CF97F99F6780E81E
:1008400070E060E008959F3F31F0915020F487956B
:1008500077956795B795880F911D9695879597F928
:1008600008959FEF80EC089500240A941616170649
:1008700018060906089500240A9412161306140691
:1008800005060895092E0394000C11F4882352F0F4
:10089000BB0F40F4BF2B11F460FF04C06F5F7F4FAC
:1008A0008F4F9F4F089557FD9058440F551F59F093
:1008B0005F3F71F04795880F97FB991F61F09F3F4D
:1008C00079F087950895121613061406551FF2CF76
:1008D0004695F1DF08C0161617061806991FF1CFC6
:1008E00086957105610508940895E894BB276627ED
:1008F0007727CB0197F908950E948F040C94420446
:100900000E94340438F00E943B0420F0952311F03B
:100910000C941D040C94310411240C9476040E9450
:10092000530470F3959FC1F3950F50E0551F629FDC
:10093000F001729FBB27F00DB11D639FAA27F00D38
:10094000B11DAA1F649F6627B00DA11D661F829F5F
:100950002227B00DA11D621F739FB00DA11D621F44
:10096000839FA00D611D221F749F3327A00D611D61
:10097000231F849F600D211D822F762F6A2F112443
:100980009F5750409AF0F1F088234AF0EE0FFF1F76
:10099000BB1F661F771F881F91505040A9F79E3FCD
:1009A000510580F00C941D040C9476045F3FE4F331
:1009B000983ED4F3869577956795B795F795E79523
:1009C0009F5FC1F7FE2B880F911D9695879597F92C
:1009D0000895CF93DF938230910510F482E090E088
:1009E000E0918000F091810020E030E0C0E0D0E0B4
:1009F000309711F14081518148175907C0F04817CD
:100A0000590761F482819381209719F09B838A832F
:100A10002BC0909381008093800026C02115310562
:100A200019F04217530718F49A01BE01DF01EF01D4
:100A30000280F381E02DDCCF2115310509F1281B5F
:100A4000390B2430310590F412968D919C911397B7
:100A50006115710521F0FB019383828304C090939B
:100A6000810080938000FD01329644C0FD01E20FB9
:100A7000F31F81939193225031092D933C933AC0F7
:100A800020917E0030917F00232B41F420917A0049
:100A900030917B0030937F0020937E00209178007E
:100AA000309179002115310541F42DB73EB74091C1
:100AB0007C0050917D00241B350BE0917E00F0916D
:100AC0007F00E217F307A0F42E1B3F0B281739070E
:100AD00078F0AC014E5F5F4F2417350748F04E0F9A
:100AE0005F1F50937F0040937E008193919302C0DB
:100AF000E0E0F0E0CF01DF91CF9108950F931F93D5
:100B0000CF93DF93009709F48CC0FC0132971382D6
:100B1000128200918000109181000115110581F46D
:100B200020813181820F931F20917E0030917F00C0
:100B30002817390779F5F0937F00E0937E0071C0A4
:100B4000D80140E050E0AE17BF0750F412962D9147
:100B50003C911397AD012115310509F1D901F3CF6E
:100B60009D01DA013383228360817181860F971F93
:100B70008217930769F4EC0128813981260F371F0A
:100B80002E5F3F4F318320838A819B8193838283B1
:100B9000452B29F4F0938100E093800042C0139626
:100BA000FC93EE931297ED01499159919E01240F08
:100BB000351FE217F30771F480819181840F951F2F
:100BC000029611969C938E938281938113969C93A7
:100BD0008E931297E0E0F0E0D80112968D919C91EF
:100BE0001397009719F0F8018C01F6CF8D919C9125
:100BF00098012E5F3F4F820F931F20917E0030910E
:100C00007F002817390769F4309729F41092810082
:100C10001092800002C01382128210937F00009312
:100C20007E00DF91CF911F910F910895F894FFCF2F
:100C30003B00380035003200390036003300300008
:0E0C40003A003700340031000000820020002E
:00000001FF
