:100000000C942A000C943F000C943F000C943F0089
:100010000C943F000C943F000C943F000C943F0064
:100020000C943F000C943F000C943F000C943F0054
:100030000C943F000C943F000C943F000C943F0044
:100040000C943F000C943F000C943F000C943F0034
:100050000C943F0011241FBECFE5D8E0DEBFCDBF1A
:1000600014E0A0E6B0E0E6EFF9E002C005900D92E2
:10007000A831B107D9F70E9439020C94F9040C9405
:100080000000899A889883E389B910BC86E880BD0E
:1000900088E18AB908955D9BFECF8CB908955F9B76
:1000A000FECF8CB10895CF92DF92EF92FF92CF9363
:1000B000DF936C01EB012097C1F0E1E0F0E021E07B
:1000C00070E040E090E0E12CF12CCE17DF0750F01B
:1000D000372F592FC701B6010E94B304262F482F8E
:1000E0003196F3CF622F842F04C061E070E080E08E
:1000F00090E0DF91CF91FF90EF90DF90CF90089547
:100100000F931F93CF93DF93FC01EB0120E030E0CE
:100110000AE010E0009739F02F5F3F4FB8010E94CE
:10012000C304CB01F7CF2C0F3D1FE9010AE010E01B
:10013000309741F0CF01B8010E94C304FB01805DFC
:100140008A93F6CFF9011082DF91CF911F910F9121
:1001500008958F929F92AF92BF92EF92FF921F935A
:10016000CF93DF937C0190E0F701E90FF11D8081CF
:10017000882311F09F5FF8CF1FEF190FD12F812C2B
:10018000912C5401812F8D1BF701E80FF11DC081C7
:10019000CC2399F06D2F70E08AE090E00E9453002C
:1001A0009B01AC01AC2FB0E0D0970E94E204860E18
:1001B000971EA81EB91ED150E5CFC501B401DF912D
:1001C000CF911F91FF90EF90BF90AF909F908F9035
:1001D0000895CF93DF93EC018991882319F00E9451
:1001E0004B00FACFDF91CF910895EF92FF920F93DA
:1001F0001F93CF938C010E944F00C82F0E944B0089
:1002000078019701201B310BCD3049F0F701C193E4
:100210007F010E944F00C82F0E944B00F2CFF801CF
:10022000E20FF31F108287E790E0CF911F910F91AB
:10023000FF90EF900C94E900CF93DF93DC01CB01AA
:10024000EA01BA010E948000CE01DF91CF910C94A7
:10025000E9000F931F93CF93DF938C01EB01CB0148
:100260000E94F500CE010E94A900F801608371830D
:1002700082839383DF91CF911F910F9108950C9406
:100280000D020F931F93CF93DF93EC01062F142FD2
:100290000E9418020E943602883019F089EA93E021
:1002A0001CC09E0122273770C901880F892F881F23
:1002B000990B9195806A0E9421020E943602883132
:1002C00019F087EB93E009C08C2F0E9421020E9455
:1002D0003602883251F08AEC93E00E94E90087E709
:1002E00090E00E94E90080E00CC0802F0E94210273
:1002F0000E943602883279F7113011F40E941E02F2
:1003000081E0DF91CF911F910F910895CF92DF92FD
:10031000FF920F931F93CF93DF938C016B01F42E09
:100320000E9418020E943602883051F089EA93E058
:100330000E94E90087E790E00E94E90080E065C044
:10034000E801CC27D770CC0FCD2FCC1FDD0BD1957A
:100350008C2F806A0E9421020E943602883151F05F
:1003600087EB93E00E94E90087E790E00E94E900B4
:1003700082E04BC0802F0E9421020E943602883208
:1003800051F08AEC93E00E94E90087E790E00E9438
:10039000E90083E03AC00E9418020E9436028031D0
:1003A00051F08EED93E00E94E90087E790E00E9413
:1003B000E90084E02AC08C2F816A0E9421020E94F9
:1003C0003602803451F080EF93E00E94E90087E725
:1003D00090E00E94E90085E018C00E942802F60122
:1003E00080830E943602803551F083E094E00E94C1
:1003F000E90087E790E00E94E90086E006C0F1E0AE
:10040000FF1202C00E941E0281E0DF91CF911F9176
:100410000F91FF90DF90CF90089588E480B982E03B
:1004200082B984E486BF11B881B18C7F81B9089507
:1004300084EA86BF06B607FEFDCF089584E986BF2D
:10044000089583B984E886BF06B607FEFDCF0895F8
:1004500084EC86BF06B607FEFDCF83B1089584E81D
:1004600086BF06B607FEFDCF83B1089581B1887FB0
:100470000895CF93DF93CDB7DEB7A5970FB6F89465
:10048000DEBF0FBECDBF0E9441000E943F0180E64B
:1004900090E00E94E90087E790E00E94E9008AE787
:1004A00090E00E94E90087E790E00E94E90081ED7A
:1004B00090E00E94E90087E790E00E94E9008AE36B
:1004C00091E00E94E90087E790E00E94E90084E85B
:1004D00091E00E94E90087E790E00E94E9008BE646
:1004E00091E00E94E90087E790E00E94E9008CE932
:1004F00091E00E94E90087E790E00E94E9008EEB1E
:1005000091E00E94E90087E790E00E94E90081EE17
:1005100091E00E94E900CE010D960E94F50087E768
:1005200090E00E94E9008D85873709F042C081EF95
:1005300091E00E94E900BE016F5F7F4FCE014996B6
:100540000E94290187E790E00E94E9008AE292E098
:100550000E94E900CE010D960E94F50087E790E029
:100560000E94E9008D85843691F48BE592E00E942B
:10057000E900BE016F5F7F4FCE0181960E94290185
:1005800087E790E00E94E90041E069A10DC0813653
:1005900009F08DCF8DE892E00E94E900CE010D9622
:1005A0000E94F50041E06D85898D9A8D0E94410180
:1005B0007ECF823709F04FC08FEA92E00E94E900B7
:1005C000BE016F5F7F4FCE0149960E94290187E7E8
:1005D00090E00E94E9008AE292E00E94E900CE01E8
:1005E0000D960E94F50087E790E00E94E9008D8556
:1005F0008436F1F441E0BE016B5D7F4F898D9A8DA9
:100600000E9486018DA190E0A0E0B0E089A39AA3AA
:10061000ABA3BCA384EE92E00E94E90069A17AA199
:100620008BA19CA1AE014F5F5F4F0E941C013BCF8D
:10063000813609F03CCF41E0BE016B5D7F4F898D73
:100640009A8D0E94860184EE92E00E94E9008DA1BD
:100650000E944B0028CF8D3609F029CF8E85823736
:1006600009F0D3C08FEE92E00E94E900BE016F5FF7
:100670007F4FCE0149960E94290187E790E00E94B2
:10068000E9008AE293E00E94E900BE016F5F7F4FBC
:10069000CE014D960E94290187E790E00E94E90073
:1006A0008AE292E00E94E900CE010D960E94F500D8
:1006B00087E790E00E94E9008D85843609F056C0F6
:1006C00040E0BE016B5D7F4F898D9A8D0E9486014F
:1006D0008DA190E0A0E0B0E089A39AA3ABA3BCA356
:1006E00084EE92E00E94E90069A17AA18BA19CA10D
:1006F000AE014F5F5F4F0E941C0187E790E00E94B0
:10070000E90040E050E0BA016A017B018FEFC81AAE
:10071000D80AE80AF80A8D8D9E8DAF8DB8A1019791
:10072000A109B109481759076A077B0708F0BFCE2E
:100730000E9428028DA390E0A0E0B0E089A39AA3D4
:10074000ABA3BCA384EE92E00E94E90069A17AA168
:100750008BA19CA1AE014F5F5F4F0E941C0187E7F8
:1007600090E00E94E900B701A601CECF813609F0E2
:100770009ECE40E0BE016B5D7F4F898D9A8D0E94B9
:1007800086018DA190E0A0E0B0E089A39AA3ABA37D
:10079000BCA384EE92E00E94E9008DA10E944B0070
:1007A00087E790E00E94E90040E050E0BA016A016A
:1007B0007B018FEFC81AD80AE80AF80A8D8D9E8D42
:1007C000AF8DB8A10197A109B109481759076A0768
:1007D0007B07C0F40E9428028DA390E0A0E0B0E067
:1007E00089A39AA3ABA3BCA384EE92E00E94E90084
:1007F0008DA10E944B0087E790E00E94E900B701BD
:10080000A601D5CF0E941E0252CE873709F04FCEE7
:1008100087E493E00E94E900BE016F5F7F4FCE0145
:1008200049960E94290187E790E00E94E9008AE248
:1008300093E00E94E900BE016F5F7F4FCE014D96AD
:100840000E94290187E790E00E94E9008AE292E095
:100850000E94E900CE010D960E94F50087E790E026
:100860000E94E9008D85843609F042C08BE592E054
:100870000E94E900BE016F5F7F4FCE0181960E940A
:10088000290187E790E00E94E90040E069A1898D95
:100890009A8D0E94410140E050E0BA016A017B015B
:1008A0008FEFC81AD80AE80AF80A8D8D9E8DAF8D91
:1008B000B8A10197A109B109481759076A077B0731
:1008C00008F0A0CF8BE592E00E94E900BE016F5FC7
:1008D0007F4FCE0181960E94290187E790E00E9418
:1008E000E90089A18DA30E942102B701A601D6CFFC
:1008F000813609F087CF8DE892E00E94E900CE01B1
:100900000D960E94F50040E06D85898D9A8D0E94BC
:10091000410140E050E0BA016A017B018FEFC81A43
:10092000D80AE80AF80A8D8D9E8DAF8DB8A101977F
:10093000A109B109481759076A077B0708F062CF78
:1009400086E893E00E94E900CE010D960E94F50032
:1009500087E790E00E94E9008D858DA30E94210227
:10096000B701A601D9CFDB018F939F930E94D704D3
:10097000BF91AF91A29F800D911DA39F900DB29F3B
:10098000900D11240895AA1BBB1B51E107C0AA1F9B
:10099000BB1FA617B70710F0A61BB70B881F991F20
:1009A0005A95A9F780959095BC01CD0108950E94B4
:1009B000EA04A59F900DB49F900DA49F800D911DFA
:1009C00011240895B7FF0C94D7040E94D704821B0A
:1009D000930B0895A29FB001B39FC001A39F700D18
:1009E000811D1124911DB29F700D811D1124911D37
:0609F0000895F894FFCF0A
:1009F600454550524F4D20323463303820696E746D
:100A0600657266616365000D0A00202A2A2A2A2A71
:100A16002A2A2A2A2A2A2A2A2A2A2A2A2A2A2A2A30
:100A26002A2A2A2A2A2A2A2A2A2A2A2A2A2A2A2A20
:100A36002A2A2A2A2A2A2A2A2A2A2A2A2A2A2A2A10
:100A46002A2A2A2A2A2A2A2A2A2A2A2A2A2A2A2A00
:100A56002A2A2A2A2A2A2A2A2A2A2A2A2A2A2A2AF0
:100A660000202A2A2A2A2A2A2A2A2A2A2A2A2A2A14
:100A76002A2A2A2A2A2A2A2A2A2A2A2A2A2A2A2AD0
:100A86002A2A2A2A2A2A2A2A2A2A2A2A2A2A2A2AC0
:100A96002A2A2A2A2A2A2A2A2A2A2A2A2A2A2A2AB0
:100AA6002A2A2A2A2A2A2A2A2A2A2A2A2A2A2A2AA0
:100AB6002A2A2A2A2A2A2A2A2A2A2A2A2A2A2A2A90
:100AC6002A2A2A2A2A2A2A2A2A00454550524F4DDE
:100AD60020323463303820696E74657266616365EE
:100AE600206F7074696F6E73203A20666F72207281
:100AF600656164207072657373207220666F722060
:100B06007772697465207072657373207720203A56
:100B16002020200020666F7220726561642070724A
:100B2600657373207220203A2020200020666F72A1
:100B3600206D756C7469706C6520726561642070D7
:100B460072657373206D7220203A20202000206683
:100B56006F72206D756C7469706C6520777269743C
:100B660065207072657373206D7720203A202020EF
:100B76000074686520636F6D6D616E64203A202095
:100B860000656E74657220746865206164647265C0
:100B9600737320796F752077616E7420746F207778
:100BA6007269746520696E2066726F6D20302074DC
:100BB6006F2031303233203A2000656E7465722022
:100BC600746865206461746120666F726D6174205B
:100BD600646563696D616C206F7220617363696916
:100BE600202064206F7220613A2000656E74657261
:100BF60020746865206461746120696E2064656391
:100C0600696D616C20666F726D61742066726F6DBE
:100C1600203020746F20323535203A2000656E74FE
:100C2600657220746865206461746120696E206154
:100C36007363696920666F726D6174203A2000657E
:100C46006E7465722074686520616464726573737E
:100C560020796F752077616E7420746F20726561DC
:100C6600642066726F6D203020746F20313032330D
:100C7600203A20007468652064617461203A00653A
:100C86006E74657220746865207374617274206175
:100C960064647265737320796F752077616E742052
:100CA600746F20726561642066726F6D20302074E7
:100CB6006F2031303233203A2000656E7465722021
:100CC600746865206E756D626572206F6620627944
:100CD600746573203A2000656E74657220746865C9
:100CE6002073746172742061646472657373207911
:100CF6006F752077616E7420746F207772697465E2
:100D060020696E2066726F6D203020746F2031303E
:100D16003233203A2000656E74657220746865204F
:100D26006461746120696E20617363696920666F0E
:100D3600726D617420203A200054575F535441521B
:100D4600545F4572726F0054575F4D545F534C4168
:100D56005F41434B5F4572726F0054575F4D545F5E
:100D6600444154415F41434B5F4572726F00545793
:100D76005F5245505F53544152545F4572726F0043
:100D860054575F4D525F534C415F41434B5F457231
:100D9600726F0054575F4D525F444154415F414367
:080DA6004B5F4572726F000003
:00000001FF
