:100000000C942A000C9447000C9447000C94470071
:100010000C9447000C9447000C9447000C94470044
:100020000C9447000C9447000C9447000C94470034
:100030000C9447000C9447000C9447000C94470024
:100040000C9447000C9447000C9447000C94470014
:100050000C94470011241FBECFE5D8E0DEBFCDBF12
:1000600010E0A0E6B0E0E8E1FAE002C005900D92F1
:10007000AE38B107D9F720E0AEE8B0E001C01D927C
:10008000A239B207E1F70E9433020C940A050C94DE
:1000900000008430D8F46830C8F490E0880F991FCD
:1000A000FC01E05AFF4F0190F081E02D208181E0BA
:1000B00090E001C0880F6A95EAF7413011F4822B75
:1000C00002C080958223808380E008958FEF089599
:1000D0008430B8F46830A8F4E82FF0E0EE0FFF1F8A
:1000E000E859FF4F0190F081E02D808190E002C03F
:1000F000959587956A95E2F78170FA01808380E093
:1001000008958FEF08958430A8F4683098F4E82FAC
:10011000F0E0EE0FFF1FE859FF4F0190F081E02D56
:100120008081808190E002C0959587956A95E2F77D
:10013000817008958FEF08958430D8F46830C8F442
:1001400090E0880F991FFC01E059FF4F0190F0816A
:10015000E02D208181E090E001C0880F6A95EAF7E8
:10016000413011F4822B02C080958223808380E08D
:1001700008958FEF0895843060F4E82FF0E0EE0FDB
:10018000FF1FE059FF4F0190F081E02D608380E078
:1001900008958FEF0895843060F4E82FF0E0EE0FBB
:1001A000FF1FE05AFF4F0190F081E02D608380E057
:1001B00008958FEF0895682F83E00E94CB0061E0DF
:1001C00080E00E94CB008FEC97E00197F1F700C030
:1001D000000060E080E00E94CB009FE728E381E020
:1001E000915020408040E1F700C0000008956FEF7B
:1001F00083E00E94BB0067E080E00E94BB0088E3D0
:100200000E94DB008FEC97E00197F1F700C000003F
:1002100081E00E94DB008FEC97E00197F1F700C0CE
:1002200000008EE00E94DB008FEC97E00197F1F771
:1002300000C0000080E80E94DB008FEC97E001978F
:10024000F1F700C000000895682F83E00E94CB0002
:1002500065E080E00E94CB008FEC97E00197F1F71A
:1002600000C0000064E080E00E94CB009FE728E32C
:1002700081E0915020408040E1F700C000000895E7
:10028000CF93DF93EC018991882319F00E94240118
:10029000FACFDF91CF910895EF92FF920F931F93C2
:1002A000CF93DF93182F092F682F792FC0E0D0E06C
:1002B000EAE0F0E0CE0101961616170634F4EC01E0
:1002C000CB01BF010E945002F5CF0E94DD03FC016B
:1002D0009E018AE0E82EF12C2150310937FD0DC036
:1002E000812F902FB7010E945002162F072FDF0198
:1002F000A20FB31F805D8C93EFCFCE0FDF1F18824C
:10030000CF01DF91CF911F910F91FF90EF900C944F
:100310004001CF92DF92EF92FF926B017C010E942D
:100320008702CB010E944C018EE20E94240120E052
:1003300030E040E85FE3C701B6010E94C80220E058
:1003400030E048EC52E40E9459030E948702CB013E
:10035000FF90EF90DF90CF900C944C010F931F9380
:10036000CF93DF93883080F48B01880F880F880F3C
:10037000805C0E94DB00E801085F1F4F89910E94AA
:100380002401C017D107D1F7DF91CF911F910F91B1
:100390000895803148F4611102C0805803C0613073
:1003A00019F481540C94DB000895DF92EF92FF92D0
:1003B0000F931F93CF93DF939EE7E92E90E0F92EE2
:1003C000DEE4C0E040E06C2F81E00E94490000E0E4
:1003D00010E084E0D82ED00E6D2D81E00E948300C5
:1003E000811110C0F701E00FF11FD0816D2D81E068
:1003F0000E9483008823D1F38FE19EE40197F1F7F7
:1004000000C000000F5F1F4F0430110511F741E0DD
:100410006C2F81E00E944900CF5F94E0E90EF11C4F
:10042000C43081F6DE3441F28D2FDF91CF911F91E0
:100430000F91FF90EF90DF900895379A329A319A9A
:10044000309A3F983E9A3D98089597B1907E97B91B
:1004500097B18770982B97B9369A349BFECF349A10
:1004600084B195B108950E94F7000E941D028FE0AB
:1004700087BB8FEF88BBD79887E00E9425029C013D
:10048000A8E8B3E10E946402DC01CB012AE0B69542
:10049000A795979587952A95D1F70E944C01FFCF94
:1004A00097FB072E16F4009407D077FD09D00E9421
:1004B000730207FC05D03EF4909581959F4F0895F7
:1004C000709561957F4F0895A29FB001B39FC001C1
:1004D000A39F700D811D1124911DB29F700D811D70
:1004E0001124911D0895AA1BBB1B51E107C0AA1F2F
:1004F000BB1FA617B70710F0A61BB70B881F991FC5
:100500005A95A9F780959095BC01CD0108950E9458
:100510008E026894B1110C94530308950E9438031D
:1005200088F09F5798F0B92F9927B751B0F0E1F0B4
:10053000660F771F881F991F1AF0BA95C9F714C064
:10054000B13091F00E945203B1E008950C9452032F
:10055000672F782F8827B85F39F0B93FCCF386959D
:1005600077956795B395D9F73EF4909580957095FA
:1005700061957F4F8F4F9F4F08950E94220320F077
:1005800019F00E94290350F40C941F030C94530398
:10059000E92F0E94300388F35523B1F3E7FB62177C
:1005A000730784079507A8F189F3E92FFF278823AC
:1005B0002AF03197660F771F881FDAF7952F552796
:1005C000442332F091505040220F331F441FD2F782
:1005D000BB27E91BF50B621B730B840BB109B1F24E
:1005E00022F4620F731F841FB11D31972AF0660F2A
:1005F000771F881FBB1FEFCF9150504062F041F032
:10060000882332F0660F771F881F91505040C1F742
:1006100093950C9411038695779567959F5FD9F70D
:10062000F7CF9F3F31F0915020F4879577956795EC
:10063000B795880F911D9695879597F908959FEF27
:1006400080EC089500240A94161617061806090669
:10065000089500240A941216130614060506089538
:1006600057FD9058440F551F59F05F3F71F0479563
:10067000880F97FB991F61F09F3F79F08795089548
:10068000121613061406551FF2CF4695F1DF08C067
:10069000161617061806991FF1CF86957105610584
:1006A00008940895E894BB2766277727CB0197F92C
:1006B00008950E946C030C94CC030E94220338F02E
:1006C0000E94290320F0952311F00C94C6030C948A
:1006D0001F0311240C9453030E94300370F3959F61
:1006E000C1F3950F50E0551F629FF001729FBB2729
:1006F000F00DB11D639FAA27F00DB11DAA1F649FC5
:100700006627B00DA11D661F829F2227B00DA11D77
:10071000621F739FB00DA11D621F839FA00D611DFD
:10072000221F749F3327A00D611D231F849F600D1E
:10073000211D822F762F6A2F11249F5750409AF047
:10074000F1F088234AF0EE0FFF1FBB1F661F771FD3
:10075000881F91505040A9F79E3F510580F00C949E
:10076000C6030C9453035F3FE4F3983ED4F386959D
:1007700077956795B795F795E7959F5FC1F7FE2B3E
:10078000880F911D9695879597F9089597F99F671A
:1007900080E870E060E00895092E0394000C11F4E5
:1007A000882352F0BB0F40F4BF2B11F460FF04C04C
:1007B0006F5F7F4F8F4F9F4F0895CF93DF938230AE
:1007C000910510F482E090E0E0919000F0919100AA
:1007D00020E030E0C0E0D0E0309711F1408151815D
:1007E00048175907C0F04817590761F4828193816F
:1007F000209719F09B838A832BC09093910080935C
:10080000900026C02115310519F04217530718F43E
:100810009A01BE01DF01EF010280F381E02DDCCF00
:100820002115310509F1281B390B2430310590F4CD
:1008300012968D919C9113976115710521F0FB0122
:100840009383828304C09093910080939000FD0174
:10085000329644C0FD01E20FF31F81939193225021
:1008600031092D933C933AC020918E0030918F0036
:10087000232B41F420917A0030917B0030938F003C
:1008800020938E0020917800309179002115310558
:1008900041F42DB73EB740917C0050917D00241B60
:1008A000350BE0918E00F0918F00E217F307A0F472
:1008B0002E1B3F0B2817390778F0AC014E5F5F4FB6
:1008C0002417350748F04E0F5F1F50938F00409359
:1008D0008E008193919302C0E0E0F0E0CF01DF91C0
:1008E000CF9108950F931F93CF93DF93009709F44F
:1008F0008CC0FC01329713821282009190001091FB
:1009000091000115110581F420813181820F931F1F
:1009100020918E0030918F002817390779F5F093D8
:100920008F00E0938E0071C0D80140E050E0AE1718
:10093000BF0750F412962D913C911397AD012115EC
:10094000310509F1D901F3CF9D01DA013383228307
:1009500060817181860F971F8217930769F4EC01FC
:1009600028813981260F371F2E5F3F4F3183208327
:100970008A819B8193838283452B29F4F093910094
:10098000E093900042C01396FC93EE931297ED0112
:10099000499159919E01240F351FE217F30771F415
:1009A00080819181840F951F029611969C938E935E
:1009B0008281938113969C938E931297E0E0F0E0EE
:1009C000D80112968D919C911397009719F0F80118
:1009D0008C01F6CF8D919C9198012E5F3F4F820F35
:1009E000931F20918E0030918F002817390769F4EA
:1009F000309729F4109291001092900002C0138257
:100A0000128210938F0000938E00DF91CF911F917F
:080A10000F910895F894FFCF47
:100A18003B00380035003200390036003300300022
:100A28003A003700340031000000920020003734CB
:0E0A380031303835322E3936333D2F782D2BA4
:00000001FF
