:100000000C942A000C9447000C9447000C94470071
:100010000C9447000C9447000C94B2000C944700D9
:100020000C9447000C9447000C9447000C94470034
:100030000C9447000C9447000C9447000C94470024
:100040000C9447000C9447000C9447000C94470014
:100050000C94470011241FBECFE5D8E0DEBFCDBF12
:1000600010E0A0E6B0E0EAE8FDE002C005900D92E5
:10007000AE37B107D9F720E0AEE7B0E001C01D927E
:10008000A938B207E1F70E94B9020C94C3060C9498
:100090000000BB9A93B7996693BF8CBF08958F9267
:1000A0009F92AF92BF92EF92FF920F931F93CF93C5
:1000B000DF93EC011FBC1DBC1CBC80E288BF8EB569
:1000C00081648EBD08B605FEFDCFE6B4F7B498B7DF
:1000D000906298BF9EB59F7B9EBD08B605FEFDCF82
:1000E00066B577B598B7906298BF9EB590649EBD8F
:1000F00008B605FEFDCF06B517B598B7906298BF54
:100100001EBCE616F70618F56017710700F56E19A4
:100110007F0980E090E00E9439044B015C01C80136
:100120008E199F09BC0180E090E00E9439049B0178
:10013000AC01C501B4010E94910320E030E048EC1D
:1001400052E40E9429050E940A0479836883DF91A2
:10015000CF911F910F91FF90EF90BF90AF909F9024
:100160008F9008951F920F920FB60F9211248F93C4
:100170009F9380917E0081110EC086B597B59093B4
:1001800084008093830080917E008F5F80937E0047
:100190008EB58F7B11C080917E00813079F486B559
:1001A00097B59093800080937F0080917E008F5F51
:1001B00080937E008EB580648EBD0FC080917E00DE
:1001C000823059F486B597B5909382008093810070
:1001D00080917E008F5F80937E009F918F910F9022
:1001E0000FBE0F901F901895379A329A319A309A15
:1001F0003F983E9A3D98089597B1907E97B997B1F0
:100200008770982B97B9369A349BFECF349A84B175
:1002100095B10895682F82E00E94A90261E080E014
:100220000E94A9028FEC97E00197F1F700C000004F
:1002300060E080E00E94A9029FE728E381E09150FE
:1002400020408040E1F700C0000008956FEF82E099
:100250000E94990267E080E00E94990288E30E9470
:100260000A018FEC97E00197F1F700C0000081E0F0
:100270000E940A018FEC97E00197F1F700C000009F
:100280008EE00E940A018FEC97E00197F1F700C021
:10029000000080E80E940A018FEC97E00197F1F7D7
:1002A00000C000000895682F82E00E94A90265E066
:1002B00080E00E94A9028FEC97E00197F1F700C05F
:1002C000000064E080E00E94A9029FE728E381E04B
:1002D000915020408040E1F700C000000895CF9386
:1002E000DF93EC018991882319F00E945301FACF22
:1002F000DF91CF910895EF92FF920F931F93CF93C9
:10030000DF93182F092F682F792FC0E0D0E0EAE0A3
:10031000F0E0CE0101961616170634F4EC01CB017D
:10032000BF010E945B03F5CF0E949605FC019E0170
:100330008AE0E82EF12C2150310937FD0DC0812FC4
:10034000902FB7010E944703162F072FDF01A20F3E
:10035000B31F805D8C93EFCFCE0FDF1F1882CF01CC
:10036000DF91CF911F910F91FF90EF900C946F014F
:10037000CF92DF92EF92FF926B017C010E94030407
:10038000CB010E947B018EE20E94530120E030E00D
:1003900040E85FE3C701B6010E94810420E030E03D
:1003A00048EC52E40E9429050E940304CB01FF900F
:1003B000EF90DF90CF900C947B010F931F93CF931E
:1003C000DF93883080F48B01880F880F880F805C62
:1003D0000E940A01E801085F1F4F89910E945301A2
:1003E000C017D107D1F7DF91CF911F910F910895D9
:1003F000803148F4611102C0805803C0613019F4A3
:1004000081540C940A0108950F931F93CF93DF93A7
:1004100000D000D000D0CDB7DEB710E02AE030E049
:10042000009771F0E1E0F0E0EC0FFD1FE10FF11D2E
:10043000B9010E944703805D8083CB011F5FF0CF2D
:100440000FEF010F011788F4E1E0F0E0EC0FFD1F62
:10045000E00FF11D80810E9453018FE99FE0019719
:10046000F1F700C000000150EDCF26960FB6F894CA
:10047000DEBF0FBECDBFDF91CF911F910F910895C9
:100480008430D8F46830C8F490E0880F991FFC01DC
:10049000E05AFF4F0190F081E02D208181E090E053
:1004A00001C0880F6A95EAF7413011F4822B02C02F
:1004B00080958223808380E008958FEF08958430B3
:1004C000B8F46830A8F4E82FF0E0EE0FFF1FE85909
:1004D000FF4F0190F081E02D808190E002C0959562
:1004E00087956A95E2F78170FA01808380E008952C
:1004F0008FEF08958430D8F46830C8F490E0880F06
:10050000991FFC01E059FF4F0190F081E02D2081FF
:1005100081E090E001C0880F6A95EAF7413011F45C
:10052000822B02C080958223808380E008958FEF24
:100530000895843060F4E82FF0E0EE0FFF1FE059DB
:10054000FF4F0190F081E02D608380E008958FEFF0
:100550000895843060F4E82FF0E0EE0FFF1FE05ABA
:10056000FF4F0190F081E02D608380E008958FEFD0
:100570000895889A0E94260180E80E9449000E94FE
:10058000F4001FBC1DBC1CBC80E288BF8EB581641A
:100590008EBD89B7806289BF789411E0C12C82E159
:1005A000D82E8AE7E82EF12C83E00E94FC008CBF55
:1005B00080917E008330C1F7F89410927E002091E4
:1005C00083003091840080917F00909180002817F3
:1005D000390708F055C020917F003091800080914C
:1005E0008100909182002817390708F049C0809156
:1005F0007F00909180002091830030918400C09111
:100600008100D09182004091830050918400C41BEE
:10061000D50B821B930BBC0180E090E00E94390453
:100620002B013C014E01A12CB12CC501B4010E944B
:1006300039049B01AC01C301B2010E94910320E087
:1006400030E048EC52E40E9429050E940A04CB01E4
:100650000E947B01C701B601A50194010E946F03AE
:10066000C9010E947B012FEF80E792E0215080407A
:100670009040E1F700C0000081E00E940A0103C041
:1006800082B3812782BB1DBC1CBC78948DCFAA1B72
:10069000BB1B51E107C0AA1FBB1FA617B70710F06D
:1006A000A61BB70B881F991F5A95A9F7809590959F
:1006B000BC01CD01089597FB072E16F4009407D0D6
:1006C00077FD09D00E94470307FC05D03EF49095C2
:1006D00081959F4F0895709561957F4F0895A1E290
:1006E0001A2EAA1BBB1BFD010DC0AA1FBB1FEE1FAC
:1006F000FF1FA217B307E407F50720F0A21BB30BF7
:10070000E40BF50B661F771F881F991F1A9469F772
:1007100060957095809590959B01AC01BD01CF01CE
:1007200008950E94A5030C94EF040E94E80458F079
:100730000E94E10440F029F45F3F29F00C94CA04C0
:1007400051110C9423050C94DE040E94000568F3FB
:100750009923B1F3552391F3951B550BBB27AA277A
:1007600062177307840738F09F5F5F4F220F331FB4
:10077000441FAA1FA9F335D00E2E3AF0E0E832D07C
:1007800091505040E695001CCAF72BD0FE2F29D07F
:10079000660F771F881FBB1F261737074807AB0751
:1007A000B0E809F0BB0B802DBF01FF2793585F4FC6
:1007B0003AF09E3F510578F00C94CA040C9423053E
:1007C0005F3FE4F3983ED4F3869577956795B795A8
:1007D000F7959F5FC9F7880F911D9695879597F9B3
:1007E0000895E1E0660F771F881FBB1F621773072C
:1007F0008407BA0720F0621B730B840BBA0BEE1F41
:1008000088F7E09508950E940A046894B1110C9449
:10081000230508950E94080588F09F5798F0B92F86
:100820009927B751B0F0E1F0660F771F881F991F25
:100830001AF0BA95C9F714C0B13091F00E942205A0
:10084000B1E008950C942205672F782F8827B85FB0
:1008500039F0B93FCCF3869577956795B395D9F77D
:100860003EF490958095709561957F4F8F4F9F4F87
:100870000895E89409C097FB3EF490958095709593
:1008800061957F4F8F4F9F4F9923A9F0F92F96E9DC
:10089000BB279395F695879577956795B795F11151
:1008A000F8CFFAF4BB0F11F460FF1BC06F5F7F4FEE
:1008B0008F4F9F4F16C0882311F096E911C0772300
:1008C00021F09EE8872F762F05C0662371F096E809
:1008D000862F70E060E02AF09A95660F771F881FD8
:1008E000DAF7880F9695879597F908950E94E104A5
:1008F00020F019F00E94E80450F40C94DE040C94EB
:100900002305E92F0E94000588F35523B1F3E7FB87
:100910006217730784079507A8F189F3E92FFF276A
:1009200088232AF03197660F771F881FDAF7952FF3
:100930005527442332F091505040220F331F441F5B
:10094000D2F7BB27E91BF50B621B730B840BB109B4
:10095000B1F222F4620F731F841FB11D31972AF088
:10096000660F771F881FBB1FEFCF9150504062F07A
:1009700041F0882332F0660F771F881F9150504056
:10098000C1F793950C94D0048695779567959F5FF2
:10099000D9F7F7CF97F99F6780E870E060E0089596
:1009A0009F3F31F0915020F4879577956795B795E3
:1009B000880F911D9695879597F908959FEF80EC84
:1009C000089500240A9416161706180609060895B5
:1009D00000240A9412161306140605060895092E1B
:1009E0000394000C11F4882352F0BB0F40F4BF2B8A
:1009F00011F460FF04C06F5F7F4F8F4F9F4F0895CA
:100A000057FD9058440F551F59F05F3F71F04795BF
:100A1000880F97FB991F61F09F3F79F087950895A4
:100A2000121613061406551FF2CF4695F1DF08C0C3
:100A3000161617061806991FF1CF869571056105E0
:100A400008940895E894BB2766277727CB0197F988
:100A500008950E943C050C94EF040E94E10438F0D4
:100A60000E94E80420F0952311F00C94CA040C9421
:100A7000DE0411240C9423050E94000570F3959F59
:100A8000C1F3950F50E0551F629FF001729FBB2785
:100A9000F00DB11D639FAA27F00DB11DAA1F649F21
:100AA0006627B00DA11D661F829F2227B00DA11DD4
:100AB000621F739FB00DA11D621F839FA00D611D5A
:100AC000221F749F3327A00D611D231F849F600D7B
:100AD000211D822F762F6A2F11249F5750409AF0A4
:100AE000F1F088234AF0EE0FFF1FBB1F661F771F30
:100AF000881F91505040A9F79E3F510580F00C94FB
:100B0000CA040C9423055F3FE4F3983ED4F3869522
:100B100077956795B795F795E7959F5FC1F7FE2B9A
:100B2000880F911D9695879597F90895CF93DF9338
:100B30008230910510F482E090E0E0918700F0911E
:100B4000880020E030E0C0E0D0E0309711F1408133
:100B5000518148175907C0F04817590761F482813D
:100B60009381209719F09B838A832BC090938800F0
:100B70008093870026C02115310519F042175307CD
:100B800018F49A01BE01DF01EF010280F381E02D2C
:100B9000DCCF2115310509F1281B390B2430310533
:100BA00090F412968D919C9113976115710521F027
:100BB000FB019383828304C0909388008093870015
:100BC000FD01329644C0FD01E20FF31F8193919322
:100BD000225031092D933C933AC0209185003091E9
:100BE0008600232B41F420917A0030917B003093D2
:100BF000860020938500209178003091790021159E
:100C0000310541F42DB73EB740917C0050917D00F5
:100C1000241B350BE0918500F0918600E217F30765
:100C2000A0F42E1B3F0B2817390778F0AC014E5F5C
:100C30005F4F2417350748F04E0F5F1F5093860013
:100C4000409385008193919302C0E0E0F0E0CF01F2
:100C5000DF91CF9108950F931F93CF93DF93009768
:100C600009F48CC0FC013297138212820091870034
:100C7000109188000115110581F420813181820FC6
:100C8000931F20918500309186002817390779F548
:100C9000F0938600E093850071C0D80140E050E0F9
:100CA000AE17BF0750F412962D913C911397AD01EA
:100CB0002115310509F1D901F3CF9D01DA01338303
:100CC000228360817181860F971F8217930769F4D1
:100CD000EC0128813981260F371F2E5F3F4F31836A
:100CE00020838A819B8193838283452B29F4F0930F
:100CF0008800E093870042C01396FC93EE9312970E
:100D0000ED01499159919E01240F351FE217F30718
:100D100071F480819181840F951F029611969C93A6
:100D20008E938281938113969C938E931297E0E029
:100D3000F0E0D80112968D919C911397009719F0CD
:100D4000F8018C01F6CF8D919C9198012E5F3F4F59
:100D5000820F931F20918500309186002817390754
:100D600069F4309729F4109288001092870002C02D
:100D7000138212821093860000938500DF91CF9139
:0A0D80001F910F910895F894FFCF22
:100D8A003B003800350032003900360033003000AD
:0E0D9A003A00370034003100000089002000CC
:00000001FF
