:100000000C942A000C943F000C943F000C943F0089
:100010000C943F000C943F000C943F000C943F0064
:100020000C943F000C943F000C943F000C943F0054
:100030000C943F000C943F000C943F000C943F0044
:100040000C943F000C943F000C943F000C943F0034
:100050000C943F0011241FBECFE5D8E0DEBFCDBF1A
:1000600010E0A0E6B0E0E0E5F3E002C005900D92FC
:10007000A436B107D9F70E943F010C94A6010C9455
:100080000000899A889883E389B910BC86E880BD0E
:1000900088E18AB908955D9BFECF8CB908955F9B76
:1000A000FECF8CB10895CF92DF92EF92FF92CF9363
:1000B000DF936C01EB012097C1F0E1E0F0E021E07B
:1000C00070E040E090E0E12CF12CCE17DF0750F01B
:1000D000372F592FC701B6010E946001262F482FE4
:1000E0003196F3CF622F842F04C061E070E080E08E
:1000F00090E0DF91CF91FF90EF90DF90CF90089547
:100100000F931F93CF93DF93FC01EB0120E030E0CE
:100110000AE010E0009739F02F5F3F4FB8010E94CE
:100120007001CB01F7CF2C0F3D1FE9010AE010E071
:10013000309741F0CF01B8010E947001FB01805D52
:100140008A93F6CFF9011082DF91CF911F910F9121
:1001500008958F929F92AF92BF92EF92FF921F935A
:10016000CF93DF937C0190E0F701E90FF11D8081CF
:10017000882311F09F5FF8CF1FEF190FD12F812C2B
:10018000912C5401812F8D1BF701E80FF11DC081C7
:10019000CC2399F06D2F70E08AE090E00E9453002C
:1001A0009B01AC01AC2FB0E0D0970E948F01860E6E
:1001B000971EA81EB91ED150E5CFC501B401DF912D
:1001C000CF911F91FF90EF90BF90AF909F908F9035
:1001D0000895CF93DF93EC018991882319F00E9451
:1001E0004B00FACFDF91CF910895EF92FF920F93DA
:1001F0001F93CF938C010E944F00C82F0E944B0089
:1002000078019701201B310BCD3049F0F701C193E4
:100210007F010E944F00C82F0E944B00F2CFF801CF
:10022000E20FF31F108280E690E0CF911F910F91B3
:10023000FF90EF900C94E900CF93DF93DC01CB01AA
:10024000EA01BA010E948000CE01DF91CF910C94A7
:10025000E9000F931F93CF93DF938C01EB01CB0148
:100260000E94F500CE010E94A900F801608371830D
:1002700082839383DF91CF911F910F910895CF9344
:10028000DF93CDB7DEB760970FB6F894DEBF0FBE31
:10029000CDBF0E944100BE016F5F7F4FCE010D9622
:1002A0000E9429016D857E858F859889AE014F5FFB
:1002B0005F4F0E941C0180E690E00E94E900EBCFB6
:1002C000DB018F939F930E948401BF91AF91A29F06
:1002D000800D911DA39F900DB29F900D1124089544
:1002E000AA1BBB1B51E107C0AA1FBB1FA617B7075C
:1002F00010F0A61BB70B881F991F5A95A9F7809578
:100300009095BC01CD0108950E949701A59F900D85
:10031000B49F900DA49F800D911D11240895B7FFE7
:100320000C9484010E948401821B930B0895A29F68
:10033000B001B39FC001A39F700D811D1124911DB9
:10034000B29F700D811D1124911D0895F894FFCF67
:040350000D0A000092
:00000001FF
