:100000000C942A000C9434000C9434000C943400AA
:100010000C9434000C9434000C9434000C94340090
:100020000C9434000C9434000C9434000C94340080
:100030000C9434000C9434000C9434000C94340070
:100040000C9434000C9434000C9434000C94340060
:100050000C94340011241FBECFE5D8E0DEBFCDBF25
:100060000E94B4000C94BD000C94000080E282B9A0
:10007000089594EC81B1887F803629F096BF06B64A
:1000800007FEFDCFF7CF8FEF8BBB089584EC86BFC3
:1000900006B607FEFDCF81B1887F8038E1F783B1D6
:1000A0008BBB089511B888E480B986B7846086BF99
:1000B000089584EA86BF06B607FEFDCF089584E959
:1000C00086BF089583B984EA86BF06B607FEFDCFD2
:1000D0000895811102C084EC01C084E886BF06B691
:1000E00007FEFDCF83B1089594E096BF82B984ECFA
:1000F00086BF089583B984EC86BF06B607FEFDCFA0
:100100000895811102C084EC01C084E886BF06B660
:1001100007FEFDCF83B1089506B607FEFDCF089513
:1001200083B984E886BF06B607FEFDCF0895811126
:1001300002C084EC01C084E886BF06B607FEFDCF8E
:1001400083B1089583B984EC86BF06B607FEFDCF60
:100150000895811102C084EC01C084E886BF06B610
:1001600007FEFDCF83B108958FEF8ABB80E282B98D
:0E0170000E9439000E944600FFCFF894FFCF96
:00000001FF
