:100000000C942A000C9434000C9434000C943400AA
:100010000C9434000C9434000C9434000C94340090
:100020000C9434000C9434000C9434000C94340080
:100030000C9434000C9434000C9434000C94340070
:100040000C9434000C9434000C9434000C94340060
:100050000C94340011241FBECFE5D8E0DEBFCDBF25
:100060000E943D000C944E000C9400008FE081BD76
:10007000089588E181BD11BC08958FE081BD889A03
:10008000909A2FEF89E698E1215080409040E1F767
:1000900000C0000096980E943900FFCFF894FFCF6F
:00000001FF
