:100000000C942A000C9434000C9434000C943400AA
:100010000C9434000C9434000C9434000C94340090
:100020000C9434000C9434000C9434000C94340080
:100030000C9434000C9434000C9434000C94340070
:100040000C9434000C9434000C9434000C94340060
:100050000C94340011241FBECFE5D8E0DEBFCDBF25
:100060000E9436000C945D000C9400008FEF81BB61
:1000700084EF91E051E042E034E028E052BBEFE051
:10008000F7E23197F1F700C0000042BBEFE0F7E282
:100090003197F1F700C0000032BBEFE0F7E2319793
:1000A000F1F700C0000022BBEFE0F7E23197F1F773
:0E00B00000C00000019711F7FFCFF894FFCFBA
:00000001FF
