:100000000C942A000C943C000C943C000C943C0092
:100010000C943C000C943C000C943C000C943C0070
:100020000C943C000C943C000C943C000C945E003E
:100030000C943C000C943C000C943C000C943C0050
:100040000C943C000C943C000C943C000C943C0040
:100050000C943C0011241FBECFE5D8E0DEBFCDBF1D
:1000600020E0A0E6B0E001C01D92A937B207E1F799
:100070000E94E0000C94FC000C94000095B381E019
:10008000892785BB089595B382E0892785BB0895AC
:1000900095B384E0892785BB089582E083BF81E022
:1000A00089BF08959093640080936300089586E863
:1000B00091E0909366008093650008951F920F92DF
:1000C0000FB60F9211242F933F934F935F936F932B
:1000D0007F938F939F93AF93BF93EF93FF93809101
:1000E00060009091610001969093610080936000A0
:1000F00020916000309161008091650090916600D0
:100100002817390731F40E949A001092610010926A
:100110006000FF91EF91BF91AF919F918F917F917F
:100120006F915F914F913F912F910F900FBE0F9064
:100130001F9018950F931F93CF93DF93F894C7E602
:10014000D0E00CE610E089819A81892B81F4F801D6
:100150008081882311F081508083F8018081811192
:1001600006C0EB81FC8109958881F8018083269681
:100170000A5F1F4FF0E0C937DF0729F77894DF9156
:10018000CF911F910F9108950E944D000E9457003A
:100190008AE990E00C9452007894089520916200CE
:1001A00036E0239FF0011124E959FF4F6083528309
:1001B00041839483838365832F5F20936200089536
:1001C0008FEF84BB0E94C40040E050E065E08EE306
:1001D00090E00E94CE0040E050E06FE083E490E0C9
:1001E0000E94CE0040E050E064E188E490E00E948C
:0C01F000CE000E94CC00FFCFF894FFCF9F
:00000001FF
