:100000000C94BE000C94DB000C94DB000C94DB0021
:100010000C94DB000C94DB000C94DB000C94DB00F4
:100020000C94DB000C94DB000C94DB000C94DB00E4
:100030000C94DB000C94DB000C94DB000C94DB00D4
:100040000C94DB000C94DB000C94DB000C94DB00C4
:100050000C94DB00084AD73B3BCE016E84BCBFFD4D
:10006000C12F3D6C74319ABD56833DDA3D00C77F88
:1000700011BED9E4BB4C3E916BAAAABE0000008021
:100080003F0000407A10F35A00A0724E1809001089
:10009000A5D4E80000E87648170000E40B540200FD
:1000A00000CA9A3B000000E1F50500008096980028
:1000B000000040420F000000A08601000000102751
:1000C00000000000E80300000000640000000000E1
:1000D0000A00000000000100000000002C76D88813
:1000E000DC674F0823DFC1DFAE59E1B1B796E5E326
:1000F000E453C63AE651997696E8E6C28426EB893F
:100100008C9B62ED407C6FFCEFBC9C9F40F2BAA5DB
:100110006FA5F490055A2AF75C936B6CF9676DC173
:100120001BFCE0E40D47FEF520E6B500D0ED902E77
:100130000300943577050080841E080000204E0AD5
:10014000000000C80C333333330F986E1283114113
:10015000EF8D2114893BE65516CFFEE6DB18D184DE
:100160004B381BF77C1D901DA4BBE4242032847205
:100170005E228100C9F124ECA1E53D2711241FBEB8
:10018000CFE5D8E0DEBFCDBF10E0A0E6B0E0E2E60C
:10019000FFE102C005900D92A83AB107D9F721E01E
:1001A000A8EAB0E001C01D92A531B207E1F70E94B4
:1001B00082040C94AF0F0C9400008EB582608EBD4B
:1001C0001DBC1CBC08954F925F926F927F928F92DC
:1001D0009F92AF92BF92CF92DF92EF92FF920F93D6
:1001E0001F93CF93DF93CDB7DEB76C970FB6F8941C
:1001F000DEBF0FBECDBF6D8B7E8B8F8B988FCA01FC
:10020000B901670178012091B9003091BA0040919D
:10021000BB005091BC00298B3A8B4B8B5C8B0E94AE
:1002200013079B01AC01C701B6010E94850920910B
:10023000D1003091D2004091D3005091D4000E945F
:10024000140769877A878B879C872601370177FA9D
:10025000709477F870948091AD009091AE00A09169
:10026000AF00B091B00089839A83AB83BC832091A7
:10027000B1003091B2004091B3005091B4002D8391
:100280003E834F835887BC01CD010E9414079B0118
:10029000AC01C301B2010E9485094B015C012091B0
:1002A00068003091690040916A0050916B00C7016D
:1002B000B6010E9485099B01AC01C501B4010E94F1
:1002C00014072091B5003091B6004091B7005091CD
:1002D000B8000E9414076D877E878F87988B809067
:1002E000A9009090AA00A090AB00B090AC00A5012E
:1002F0009401C301B2010E9485092B013C019B01BD
:10030000AC016D817E818F8198850E9414076D8379
:100310007E838F839887A301920169817A818B8183
:100320009C810E94140769837A838B839C8320912C
:100330006400309165004091660050916700C701EC
:10034000B6010E9485099B01AC01C501B4010E9460
:100350001407698F7A8F8B8F9C8F29853A854B85FF
:100360005C856D897E898F89988D0E9413072B018A
:100370003C016093E5007093E6008093E700909362
:10038000E80020916000309161004091620050913E
:1003900063006D857E858F8598890E9414076B01A7
:1003A0007C016093D9007093DA008093DB00909316
:1003B000DC009B01AC016D857E858F8598890E944C
:1003C000F7074B015C016093F1007093F20080939A
:1003D000F3009093F400A701960169817A818B81E3
:1003E0009C810E94F7076B017C016093E900709388
:1003F000EA008093EB009093EC00A3019201C50109
:10040000B4010E9485099B01AC0169857A858B85C1
:100410009C850E94140769877A878B879C876093E5
:10042000D1007093D2008093D3009093D400A301A5
:100430009201C701B6010E9485099B01AC0169893F
:100440007A898B899C890E9414076093B900709304
:10045000BA008093BB009093BC002D853E854F85EC
:100460005889C501B4010E9485099B01AC016D85C5
:100470007E858F8598890E9413072B013C0160932C
:10048000B5007093B6008093B7009093B8002D81AB
:100490003E814F815885C501B4010E9485099B01A9
:1004A000AC016D817E818F8198850E9413074B017D
:1004B0005C016093B1007093B2008093B30090939D
:1004C000B400A3019201C701B6010E9485099B01F6
:1004D000AC0169817A818B819C810E9413076093B2
:1004E000AD007093AE008093AF009093B000A50173
:1004F0009401C701B6010E9485099B01AC01698D79
:100500007A8D8B8D9C8D0E9413076093A900709348
:10051000AA008093AB009093AC0069857A858B85A7
:100520009C856C960FB6F894DEBF0FBECDBFDF91F1
:10053000CF911F910F91FF90EF90DF90CF90BF90E0
:10054000AF909F908F907F906F905F904F900895A5
:1005500011B880E280B9089594EA96BF06B607FE06
:10056000FDCF91B1987F983071F483B984E886BF4C
:1005700006B607FEFDCF81B1887F883131F0803229
:1005800031F083E0089580E0089581E0089582E0ED
:10059000089594EA96BF06B607FEFDCF91B1987F05
:1005A000903171F483B984E886BF06B607FEFDCFAB
:1005B00081B1887F803431F0803231F083E008955A
:1005C00080E0089581E0089582E0089584E986BF7F
:1005D00006B604FCFDCF08950F931F93CF93DF93CE
:1005E0001F92CDB7DEB714EA04E816BF06B607FEC1
:1005F000FDCF91B1987F9830C1F783B906BF06B699
:1006000007FEFDCF91B1987F983129F089830E9430
:10061000E6028981EACF0F90DF91CF911F910F9170
:10062000089583B984E886BF06B607FEFDCF81B181
:10063000887F883221F0803321F082E0089580E0C5
:10064000089581E0089584EC86BF06B607FEFDCFCD
:1006500083B1089584E886BF06B607FEFDCF83B157
:1006600008952AB128612AB920B5266820BD9B01CA
:10067000AC0184E0220F331F441F551F8A95D1F728
:1006800060E072E18AE790E00E94F1068FEF820F4E
:1006900089B9DA01C9010197A109B109892F9A2FF6
:1006A000AB2FBB2780BD08955F9BFECF8CB1089513
:1006B0008CB95D9BFECF0895CF93DF93EC018991B8
:1006C000882319F00E945803FACFDF91CF91089543
:1006D0002FE789EA93E0215080409040E1F700C085
:1006E000000080ED0E94EC0289E10E94110387E086
:1006F0000E9411030E94E60280ED0E94EC028BE64C
:100700000E94110381E00E9411030E94E60280ED25
:100710000E94EC028AE10E94110380E00E94110312
:100720000E94E60280ED0E94EC028BE10E94110320
:1007300088E10E9411030E94E60280ED0E94EC0213
:1007400088E30E94110381E00E9411030C94E602E9
:1007500080ED0E94EC028BE30E94110381ED0C946A
:10076000C902CF930E94A8030E942303C82F0E94AE
:1007700023036C2FCC0F770B762F6627082E000CE7
:10078000990B682B792B072E000C880B990B0E9474
:10079000A10860930D0170930E0180930F01909357
:1007A00010010E942303C82F0E9423036C2FCC0F3B
:1007B000770B762F6627082E000C990B682B792B68
:1007C000072E000C880B990B0E94A108609305016D
:1007D0007093060180930701909308010E94230300
:1007E000C82F0E9423036C2FCC0F770B762F662720
:1007F000082E000C990B682B792B072E000C880B08
:10080000990B0E94A1086093F9007093FA008093FD
:10081000FB009093FC000E942303C82F0E94230337
:100820006C2FCC0F770B762F6627082E000C990BB8
:10083000682B792B072E000C880B990B0E94A108BE
:10084000609301017093020180930301909304016E
:100850000E942303C82F0E9423036C2FCC0F770B19
:10086000762F6627082E000C990B682B792B072E04
:10087000000C880B990B0E94A1086093FD007093F7
:10088000FE008093FF00909300010E942303C82F75
:100890000E9423036C2FCC0F770B762F6627082E30
:1008A000000C990B682B792B072E000C880B990BE9
:1008B0000E94A108609311017093120180931301AB
:1008C000909314010E942303C82F0E942A036C2FC7
:1008D000CC0F770B762F6627082E000C990B682B10
:1008E000792B072E000C880B990B0E94A1086093AE
:1008F000090170930A0180930B0190930C01CF9131
:100900000C94E602CF93DF93CDB7DEB7E2970FB634
:10091000F894DEBF0FBECDBF0E94A8020E946803FC
:1009200060E875E280E090E00E9431030E94DD0003
:100930001E0185E1280E311C0E94B10320E030E049
:1009400040E858E360910D0170910E0180910F0114
:10095000909110010E9485092B013C0120E030E0BC
:1009600040E858E36091050170910601809107010C
:10097000909108010E9485094B015C0120E030E064
:1009800040E858E36091F9007091FA008091FB0013
:100990009091FC000E9485096B017C018091FD0013
:1009A0009091FE00A091FF00B09100018FA798AB3D
:1009B000A9ABBAAB6CB57DB580E090E00E949F0812
:1009C00020E034E244E759E40E94F7076BA37CA3DC
:1009D0008DA39EA36093ED007093EE008093EF00D3
:1009E0009093F0001DBC1CBC20E030E0A901C701C1
:1009F000B6010E94F20787FF0CC0D701C601B058AC
:100A00008093CD009093CE00A093CF00B093D00000
:100A100008C0C092CD00D092CE00E092CF00F092FC
:100A2000D00020E030E0A901C301B2010E94F2072A
:100A300087FF0CC0D301C201B0588093C5009093CA
:100A4000C600A093C700B093C80008C04092C5007C
:100A50005092C6006092C7007092C80020E030E05B
:100A6000A901C501B4010E94F20787FF0CC0D5019E
:100A7000C401B0588093C9009093CA00A093CB00E2
:100A8000B093CC0008C08092C9009092CA00A09296
:100A9000CB00B092CC0020E030E04AE754E4609113
:100AA000CD007091CE008091CF009091D0000E9437
:100AB00085090E946908623071050CF43DCF20E081
:100AC00030E04AE754E46091C9007091CA00809117
:100AD000CB009091CC000E9485090E946908693082
:100AE00071050CF429CF20E030E04AE754E460912E
:100AF000C5007091C6008091C7009091C8000E9407
:100B000085090E946908693071050CF415CFA701A9
:100B10009601C501B4010E94930720E030E044E350
:100B200053E40E9485092BED3FE049E450E40E9424
:100B3000F7076FA378A789A79AA76093D50070934A
:100B4000D6008093D7009093D800A7019601C701E3
:100B5000B6010E9485096BA77CA78DA79EA7A5015A
:100B60009401C501B4010E9485092BA53CA54DA5A2
:100B70005EA50E9414070E94F8099B01AC01C30105
:100B8000B20190580E94930720E030E044E353E420
:100B90000E9485092BED3FE049E450E40E94F707ED
:100BA0006F8F78A389A39AA36093F5007093F600E2
:100BB0008093F7009093F80020E030E0A901C7018E
:100BC000B6010E947809181694F120E030E0A901DE
:100BD000C701B6010E94F20787FD04C0C12CD12CC9
:100BE000760106C0C12CD12C90E8E92E9FEBF92E9E
:100BF0002AE037ED43E25CE3C301B2010E948509BC
:100C0000A30192010E9485099B01AC016BA57CA503
:100C10008DA59EA50E9414070E94F8099B01AC01B6
:100C2000C701B6010E9485096B017C0106C0C12C79
:100C3000D12C80E8E82E8FE3F82E23E333E343E85A
:100C400051E46FA578A989A99AA90E94F70723E31F
:100C500033E343E150E40E9414072B013C01A70158
:100C60009601C501B4010E94930720E030E044E3FF
:100C700053E40E9485092BED3FE049E450E40E94D3
:100C8000F7076093DD007093DE008093DF009093A0
:100C9000E0008F8D98A1A9A1BAA18093E100909363
:100CA000E200A093E300B093E4008091A800EBA0E1
:100CB000FCA00DA11EA1A301920181110BC060E057
:100CC00070E0CB010E94E3006B017C0191E0909306
:100CD000A80008C06FA178A589A59AA50E94E30085
:100CE0006B017C016091DD007091DE008091DF007E
:100CF0009091E000810122E046E00E94510A1F929B
:100D0000A8EFAF933F922F92ACE6B0E0BF93AF93C2
:100D1000A1E0B0E0AC0FBD1FBF93AF930E94710A7A
:100D2000CE0101960E945C036091D5007091D600BF
:100D30008091D7009091D80022E046E00E94510AAD
:100D40001F92B8EFBF933F922F92AEE7B0E0BF93F0
:100D5000AF93A1E0B0E0AC0FBD1FBF93AF930E9473
:100D6000710ACE0101960E945C0324E046E0C301B3
:100D7000B2010E94510A1F92B3E5BF933F922F9296
:100D8000ACE8B0E0BF93AF93A1E0B0E0AC0FBD1F03
:100D9000BF93AF930E94710ACE0101960E945C033B
:100DA00024E046E0C701B6010E94510A1F92B3E554
:100DB000BF933F922F92A8E9B0E0BF93AF93A1E019
:100DC000B0E0AC0FBD1FBF93AF930E94710A0FB686
:100DD000F894DEBF0FBECDBFCE0101960E945C032A
:100DE000ABCDA1E21A2EAA1BBB1BFD010DC0AA1F91
:100DF000BB1FEE1FFF1FA217B307E407F50720F084
:100E0000A21BB30BE40BF50B661F771F881F991FFE
:100E10001A9469F760957095809590959B01AC0147
:100E2000BD01CF0108955058BB27AA270E942B0768
:100E30000C943E090E94300938F00E94370920F0D6
:100E400039F49F3F19F426F40C9406090EF4E0954A
:100E5000E7FB0C940009E92F0E944F0958F3BA17D9
:100E6000620773078407950720F079F4A6F50C94C0
:100E700071090EF4E0950B2EBA2FA02D0B01B901CC
:100E800090010C01CA01A0011124FF27591B99F000
:100E9000593F50F4503E68F11A16F040A22F232F0C
:100EA000342F4427585FF3CF469537952795A7955C
:100EB000F0405395C9F77EF41F16BA0B620B730B03
:100EC000840BBAF09150A1F0FF0FBB1F661F771F74
:100ED000881FC2F70EC0BA0F621F731F841F48F429
:100EE000879577956795B795F7959E3F08F0B0CFB2
:100EF0009395880F08F09927EE0F97958795089599
:100F00000E94300960F080E891E009F49EEF0E94B1
:100F1000370928F040E851E071F45EEF0CC00C9402
:100F200006090C947109E92FE0780E944F0940F3FB
:100F3000092E052AB1F3261737074807590738F055
:100F40000E2E07F8E02569F0E025E0640AC0EF63A3
:100F500007F8009407FADB01B9019D01DC01CA0121
:100F6000AD01EF930E940E080E943E090E94C30744
:100F70005F91552339F02BED3FE049E450FD49ECFA
:100F80000C9414070895DF93DD27B92FBF7740E84D
:100F90005FE31616170648075B0718F4D92F0E945F
:100FA0007D099F938F937F936F930E94380AE4E5A6
:100FB000F0E00E9409090E943E092F913F914F9154
:100FC0005F910E949809DD2351F09058A2EA2AED22
:100FD0003FE049EC5FE3D0785D270E942B07DF916B
:100FE0000C943E090E94DC0808F481E008950E94F8
:100FF0000B080C943E090E94370958F00E943009F2
:1010000040F029F45F3F29F00C94000951110C9431
:1010100072090C9406090E944F0968F39923B1F3F1
:10102000552391F3951B550BBB27AA27621773070E
:10103000840738F09F5F5F4F220F331F441FAA1FA2
:10104000A9F335D00E2E3AF0E0E832D0915050405E
:10105000E695001CCAF72BD0FE2F29D0660F771F0C
:10106000881FBB1F261737074807AB07B0E809F0F2
:10107000BB0B802DBF01FF2793585F4F3AF09E3F77
:10108000510578F00C9400090C9472095F3FE4F369
:10109000983ED4F3869577956795B795F7959F5FBA
:1010A000C9F7880F911D9695879597F90895E1E006
:1010B000660F771F881FBB1F621773078407BA0765
:1010C00020F0621B730B840BBA0BEE1F88F7E095C0
:1010D00008950E9470086894B1110C9472090895E3
:1010E0000E94570988F09F5798F0B92F9927B75158
:1010F000B0F0E1F0660F771F881F991F1AF0BA95BC
:10110000C9F714C0B13091F00E947109B1E008959F
:101110000C947109672F782F8827B85F39F0B93F91
:10112000CCF3869577956795B395D9F73EF490956E
:101130008095709561957F4F8F4F9F4F0895E894EC
:1011400009C097FB3EF490958095709561957F4F0F
:101150008F4F9F4F9923A9F0F92F96E9BB279395BD
:10116000F695879577956795B795F111F8CFFAF4CD
:10117000BB0F11F460FF1BC06F5F7F4F8F4F9F4FFE
:1011800016C0882311F096E911C0772321F09EE85C
:10119000872F762F05C0662371F096E8862F70E0C2
:1011A00060E02AF09A95660F771F881FDAF7880F9C
:1011B0009695879597F90895990F0008550FAA0BF2
:1011C000E0E8FEEF16161706E807F907C0F012165A
:1011D0001306E407F50798F0621B730B840B950B5D
:1011E00039F40A2661F0232B242B252B21F40895B2
:1011F0000A2609F4A140A6958FEF811D811D08954F
:1012000097F99F6780E870E060E008959FEF80ECB9
:101210000895DF93CF931F930F93FF92EF92DF9286
:101220007B018C01689406C0DA2EEF010E949809B8
:10123000FE01E894A5912591359145915591A6F32C
:10124000EF010E942B07FE019701A801DA9469F7CC
:10125000DF90EF90FF900F911F91CF91DF91089554
:1012600000240A9416161706180609060895002485
:101270000A9412161306140605060895092E0394FF
:10128000000C11F4882352F0BB0F40F4BF2B11F473
:1012900060FF04C06F5F7F4F8F4F9F4F089557FDD2
:1012A0009058440F551F59F05F3F71F04795880FD4
:1012B00097FB991F61F09F3F79F08795089512166B
:1012C00013061406551FF2CF4695F1DF08C0161617
:1012D00017061806991FF1CF8695710561050894C8
:1012E0000895E894BB2766277727CB0197F90895DF
:1012F0000E94DC0808F48FEF08959B01AC0160E0C8
:1013000070E080E89FE30C94F7070E9498090C9422
:101310003E090E94300938F00E94370920F09523D9
:1013200011F00C9400090C94060911240C94720914
:101330000E944F0970F3959FC1F3950F50E0551F20
:10134000629FF001729FBB27F00DB11D639FAA271A
:10135000F00DB11DAA1F649F6627B00DA11D661F69
:10136000829F2227B00DA11D621F739FB00DA11D8A
:10137000621F839FA00D611D221F749F3327A00D44
:10138000611D231F849F600D211D822F762F6A2FE0
:1013900011249F5750409AF0F1F088234AF0EE0F45
:1013A000FF1FBB1F661F771F881F91505040A9F772
:1013B0009E3F510580F00C9400090C9472095F3F28
:1013C000E4F3983ED4F3869577956795B795F795AE
:1013D000E7959F5FC1F7FE2B880F911D9695879526
:1013E00097F9089519F416F40C9406090C943C0A24
:1013F0000E945709B8F39923C9F3B6F39F57550BC9
:1014000087FF0E944A0A0024A0E640EA9001805823
:101410005695979528F4805C660F771F881F20F0FB
:1014200026173707480730F4621B730B840B2029FB
:1014300031294A2BA69517940794202531254A2750
:1014400058F7660F771F881F20F0261737074807C1
:1014500030F4620B730B840B200D311D411DA095E0
:1014600081F7B901842F9158880F96958795089533
:101470009B01AC010C9485099F3F31F0915020F401
:10148000879577956795B795880F911D9695879560
:1014900097F9089591505040660F771F881FD2F733
:1014A0000895EF920F931F93CF93DF93E80147FDC9
:1014B00002C034E001C034E1E42F440FFF0BF7FF1A
:1014C00003C0F195E195F109E32E022F2E2FAE0115
:1014D0000E94660CCE01DF91CF911F910F91EF908A
:1014E0000895AEE0B0E0E7E7FAE00C94860F0D89CE
:1014F0001E8986E08C831A8309838FEF9FE79E8382
:101500008D83AE01475E5F4F6F89788DCE01019666
:101510000E94940A2F813885F801E20FF31F108290
:101520002E96E4E00C94A20FACE0B0E0EAE9FAE019
:101530000C94780F7C016B018A01FC0117821682E2
:10154000838181FFBDC1CE0101964C01F7019381DA
:10155000F60193FD859193FF81916F01882309F432
:10156000ABC1853239F493FD859193FF81916F0171
:10157000853229F4B70190E00E94E20EE7CF512CAA
:10158000312C20E02032A0F48B3269F030F480322C
:1015900059F0833269F420612CC08D3239F08033E8
:1015A00039F4216026C02260246023C0286021C055
:1015B00027FD27C030ED380F3A3078F426FF06C0FB
:1015C000FAE05F9E300D1124532E13C08AE0389E3E
:1015D000300D1124332E20620CC08E3221F426FDF2
:1015E0006BC1206406C08C3611F4206802C08836B6
:1015F00041F4F60193FD859193FF81916F01811173
:10160000C1CF982F9F7D9554933028F40C5F1F4FC6
:10161000FFE3F9830DC0833631F0833771F08335F2
:1016200009F05BC022C0F801808189830E5F1F4FE3
:1016300044244394512C540115C03801F2E06F0E3C
:10164000711CF801A080B18026FF03C0652D70E0F9
:1016500002C06FEF7FEFC5012C870E94D70E2C01CF
:1016600083012C852F77222E17C03801F2E06F0EF0
:10167000711CF801A080B18026FF03C0652D70E0C9
:1016800002C06FEF7FEFC5012C870E94CC0E2C01AA
:101690002C852068222E830123FC1BC0832D90E023
:1016A00048165906B0F4B70180E290E00E94E20EBD
:1016B0003A94F4CFF50127FC859127FE81915F01D3
:1016C000B70190E00E94E20E31103A94F1E04F1A17
:1016D00051084114510471F7E5C0843611F0893680
:1016E00039F5F80127FF07C06081718182819381FC
:1016F0000C5F1F4F08C060817181072E000C880BA2
:10170000990B0E5F1F4F2F76722E97FF09C0909591
:101710008095709561957F4F8F4F9F4F2068722EF7
:101720002AE030E0A4010E941A0FA82EA81844C095
:10173000853729F42F7EB22E2AE030E025C0F22F23
:10174000F97FBF2E8F36C1F018F4883579F0B4C018
:10175000803719F0883721F0AFC02F2F2061B22ECB
:10176000B4FE0DC08B2D8460B82E09C024FF0AC0C2
:101770009F2F9660B92E06C028E030E005C020E11A
:1017800030E002C020E132E0F801B7FE07C060811E
:101790007181828193810C5F1F4F06C060817181CE
:1017A00080E090E00E5F1F4FA4010E941A0FA82E48
:1017B000A818FB2DFF777F2E76FE0BC0372D3E7FBE
:1017C000A51450F474FE0AC072FC08C0372D3E7E8A
:1017D00005C0BA2C372D03C0BA2C01C0B52C34FF7C
:1017E0000DC0FE01EA0DF11D8081803311F4397EB8
:1017F00009C032FF06C0B394B39404C0832F867827
:1018000009F0B39433FD13C030FF06C05A2CB31453
:1018100018F4530C5B18B32CB31468F4B70180E2CE
:1018200090E03C870E94E20EB3943C85F5CFB31460
:1018300010F43B1801C0312C34FF12C0B70180E313
:1018400090E03C870E94E20E3C8532FF17C031FDDC
:1018500003C088E790E002C088E590E0B7010CC0C3
:10186000832F867859F031FF02C08BE201C080E2FD
:1018700037FD8DE2B70190E00E94E20EA51438F426
:10188000B70180E390E00E94E20E5A94F7CFAA9449
:10189000F401EA0DF11D8081B70190E00E94E20E93
:1018A000A110F5CF332009F451CEB70180E290E0CA
:1018B0000E94E20E3A94F6CFF7018681978102C02A
:1018C0008FEF9FEF2C96E2E10C94940F4F925F9272
:1018D0006F927F929F92AF92BF92CF92DF92EF92E0
:1018E000FF920F931F93CF93DF93CDB7DEB7299766
:1018F0000FB6F894DEBF0FBECDBF6A01122FB02E17
:101900002BE3201720F0FF24F394F00E02C0BCE379
:10191000FB2E0F2D27E0AE014F5F5F4F0E94F40DAD
:10192000AC018981982F9970913031F0E1FC06C0AB
:10193000E0FE06C090E205C09DE203C09BE201C04C
:1019400090E0EE2DE07183FF3CC0911102C083E076
:1019500001C084E0811718F4212F281B01C020E06A
:10196000E1110BC0F601822F30E2882319F0319388
:101970008150FBCFC20ED11C20E0992329F0D60163
:101980009C93F60131966F01C6010396E2FE0AC0F0
:101990003EE4D6013C9341E411964C931197129684
:1019A0003C9306C03EE6F601308341E64183328334
:1019B000FC01322F40E2332309F442C041933150FD
:1019C000FACF82FF44C0911102C083E001C084E0DD
:1019D000811718F4212F281B01C020E0E1110BC052
:1019E000F601822F30E2882319F031938150FBCF2A
:1019F000C20ED11C20E0992329F0D6019C93F60158
:101A000031966F01C6010396E2FE0BC039E4D601A0
:101A10003C933EE411963C93119736E412963C9326
:101A200007C039E6F60130833EE6318336E632837D
:101A3000FC01322F40E2332319F041933150FBCFA8
:101A4000FC01E20FF11D10828EEF9FEFB7C0F1E0B5
:101A5000911101C0F0E06F2F70E01416150624F408
:101A60009A012F5F3F4F02C021E030E0260F371F61
:101A7000BB2029F06B2D70E06F5F7F4F02C060E0EC
:101A800070E0260F371F612F70E0261737071CF410
:101A9000121B212F01C020E03E2D387159F4D601D0
:101AA000322F60E2332319F06D933150FBCFC20E19
:101AB000D11C20E0FF2331F0D6019C93B6016F5F6B
:101AC0007F4F6B01E1110BC0F601922F30E3992398
:101AD00019F031939150FBCFC20ED11C20E09F2D05
:101AE000940F3A81782F7071A72E84FF03C0313391
:101AF00009F49150191624F4993018F098E001C0B7
:101B000091E0E42F852F57FF02C0E0E080E06E2FC8
:101B1000782FE0E0F0E0AEE29A2E3A01691A7108FF
:101B20002A01461A570A0B2D10E01195019511094B
:101B30006F3F8FEF780729F4D6019C92C60101967A
:101B40006C014617570784F0661677066CF47F0120
:101B5000E40CF51CA1E0B0E0AC0FBD1FEA0EFB1ECB
:101B6000D7011196BC9002C090E3B92E6150710963
:101B70003196C60101967C016017710724F0D601E9
:101B8000BC926C01D5CF6417750741F4363320F44D
:101B9000353321F4A11002C081E3B82EF601B082E2
:101BA000F701822F90E2882319F091938150FBCFA7
:101BB000F701E20FF11D108280E090E029960FB648
:101BC000F894DEBF0FBECDBFDF91CF911F910F9173
:101BD000FF90EF90DF90CF90BF90AF909F907F905D
:101BE0006F905F904F900895283008F027E03327DA
:101BF000DA01990F311D87FD91600096610571052D
:101C000039F432602E5F3D9330E32A95E1F7089571
:101C10009F3F30F080387105610509F03C5F3C5F03
:101C20003D93913008F08068911DDF93CF931F930F
:101C30000F93FF92EF92192F987F9695E92F969523
:101C40009695E90FFF27E452FF4F99273327EE249B
:101C5000FF24A701E70105900894079428F4360FA4
:101C6000E71EF81E491F511D660F771F881F991F19
:101C70000694A1F70590079428F4E70EF81E491F73
:101C8000561FC11D770F881F991F661F0694A1F765
:101C90000590079428F4F80E491F561FC71FD11D41
:101CA000880F991F661F771F0694A1F70590079468
:101CB00020F4490F561FC71FD81F990F661F771FA3
:101CC000881F0694A9F784911095177041F0D69556
:101CD000C79557954795F794E7941A95C1F7E2E8A9
:101CE000F0E0689415901591359165919591059066
:101CF0007FE27395E118F10A430B560BC90BD0092B
:101D0000C0F7E10CF11E431F561FC91FD01D7EF402
:101D1000703311F48A95E6CFE894015030F0080F43
:101D20000AF40027021708F4202F2395022F7A3394
:101D300028F079E37D932A95E9F710C07D932A95E1
:101D400089F6069497956795379517951794E11836
:101D5000F10A430B560BC90BD00998F023957E91DD
:101D600073957A3308F070E37C932013B8F77E9173
:101D700070617D9330F0839571E37D9370E32A95D4
:101D8000E1F71124EF90FF900F911F91CF91DF9118
:101D9000992787FD90950895FC010590615070404A
:101DA0000110D8F7809590958E0F9F1F0895FC0124
:101DB0006150704001900110D8F7809590958E0F7A
:101DC0009F1F08950F931F93CF93DF93FB012381F0
:101DD00021FD03C08FEF9FEF28C022FF16C0468170
:101DE0005781248135814217530744F4A081B18182
:101DF0009D012F5F3F4F318320838C932681378154
:101E00002F5F3F4F3783268310C0EB01092F182F18
:101E10000084F185E02D0995892BE1F68E819F8163
:101E200001969F838E83812F902FDF91CF911F91F9
:101E30000F910895FA01AA27283051F1203181F13C
:101E4000E8946F936E7F6E5F7F4F8F4F9F4FAF4FC2
:101E5000B1E03ED0B4E03CD0670F781F891F9A1FD5
:101E6000A11D680F791F8A1F911DA11D6A0F711D89
:101E7000811D911DA11D20D009F468943F912AE095
:101E8000269F11243019305D3193DEF6CF0108957D
:101E9000462F4770405D4193B3E00FD0C9F7F6CFAE
:101EA000462F4F70405D4A3318F0495D31FD405276
:101EB000419302D0A9F7EACFB4E0A695979587950C
:101EC00077956795BA95C9F70097610571050895EB
:101ED0009B01AC010A2E0694579547953795279597
:101EE000BA95C9F7620F731F841F951FA01D08952F
:101EF0002F923F924F925F926F927F928F929F921A
:101F0000AF92BF92CF92DF92EF92FF920F931F9307
:101F1000CF93DF93CDB7DEB7CA1BDB0B0FB6F894B8
:101F2000DEBF0FBECDBF09942A88398848885F84F8
:101F30006E847D848C849B84AA84B984C884DF8069
:101F4000EE80FD800C811B81AA81B981CE0FD11D4D
:101F50000FB6F894DEBF0FBECDBFED010895F89423
:021F6000FFCFB1
:101F6200CDCCCC3D9A99993ECDCCCC3D20526F6CD4
:101F72006C5F726573203D20257325630900205232
:101F82006F6C6C203D202573256309002058672063
:101F92003D20257325630900206B616C78203D206C
:081FA200257325630D0A000000
:00000001FF
