:100000000C942A000C9434000C9434000C943400AA
:100010000C9434000C9434000C9434000C94340090
:100020000C9434000C9434000C9434000C94340080
:100030000C9434000C9434000C9434000C94340070
:100040000C9434000C9434000C9434000C94340060
:100050000C94340011241FBECFE5D8E0DEBFCDBF25
:100060000E9454000C9460000C94000087B38F71C0
:1000700087BBBC9A6C986E9A089587B38C6287BBD5
:10008000BC986C9A8DB183608DB96E9A08958FB9C2
:10009000779BFECF8FB10895779BFECF8FB10895E8
:1000A0008FB9779BFECF08958FEF84BB0E943600F7
:1000B0000E944C0085BB80EF0E94470085BBF8CFB3
:0400C000F894FFCFE2
:00000001FF
